{
  "contracts/DocuChain.sol": {
    "DocuChain": {
      "abi": [
        {
          "inputs": [
            {
              "internalType": "string",
              "name": "_cid",
              "type": "string"
            },
            {
              "internalType": "string",
              "name": "_name",
              "type": "string"
            },
            {
              "internalType": "string",
              "name": "_docType",
              "type": "string"
            },
            {
              "internalType": "address",
              "name": "_verifierAddress",
              "type": "address"
            },
            {
              "internalType": "address",
              "name": "_studentAddress",
              "type": "address"
            }
          ],
          "name": "addDocumentDetails",
          "outputs": [],
          "stateMutability": "nonpayable",
          "type": "function"
        },
        {
          "inputs": [
            {
              "internalType": "string",
              "name": "_fullName",
              "type": "string"
            },
            {
              "internalType": "string",
              "name": "_email",
              "type": "string"
            },
            {
              "internalType": "string",
              "name": "_gender",
              "type": "string"
            }
          ],
          "name": "addStudentDetails",
          "outputs": [],
          "stateMutability": "nonpayable",
          "type": "function"
        },
        {
          "inputs": [
            {
              "internalType": "string",
              "name": "_name",
              "type": "string"
            },
            {
              "internalType": "string",
              "name": "_email",
              "type": "string"
            },
            {
              "internalType": "string",
              "name": "_instituteType",
              "type": "string"
            },
            {
              "internalType": "string",
              "name": "_location",
              "type": "string"
            },
            {
              "internalType": "string",
              "name": "_logoCid",
              "type": "string"
            }
          ],
          "name": "addVerifierDetails",
          "outputs": [],
          "stateMutability": "nonpayable",
          "type": "function"
        },
        {
          "inputs": [
            {
              "internalType": "string",
              "name": "_cid",
              "type": "string"
            }
          ],
          "name": "deleteDocument",
          "outputs": [],
          "stateMutability": "nonpayable",
          "type": "function"
        },
        {
          "inputs": [],
          "name": "deleteStudentDetails",
          "outputs": [],
          "stateMutability": "nonpayable",
          "type": "function"
        },
        {
          "inputs": [],
          "name": "deleteVerifier",
          "outputs": [],
          "stateMutability": "nonpayable",
          "type": "function"
        },
        {
          "inputs": [
            {
              "internalType": "uint256",
              "name": "",
              "type": "uint256"
            }
          ],
          "name": "documentHashes",
          "outputs": [
            {
              "internalType": "string",
              "name": "",
              "type": "string"
            }
          ],
          "stateMutability": "view",
          "type": "function"
        },
        {
          "inputs": [
            {
              "internalType": "string",
              "name": "_cid",
              "type": "string"
            }
          ],
          "name": "getDocumentDetails",
          "outputs": [
            {
              "components": [
                {
                  "internalType": "string",
                  "name": "cid",
                  "type": "string"
                },
                {
                  "internalType": "string",
                  "name": "docName",
                  "type": "string"
                },
                {
                  "internalType": "string",
                  "name": "docType",
                  "type": "string"
                },
                {
                  "internalType": "address",
                  "name": "verifierAddress",
                  "type": "address"
                },
                {
                  "internalType": "address",
                  "name": "studentAddress",
                  "type": "address"
                },
                {
                  "internalType": "enum DocuChain.VerificationStatus",
                  "name": "status",
                  "type": "uint8"
                }
              ],
              "internalType": "struct DocuChain.Document",
              "name": "",
              "type": "tuple"
            }
          ],
          "stateMutability": "view",
          "type": "function"
        },
        {
          "inputs": [],
          "name": "getDocumentsForStudent",
          "outputs": [
            {
              "components": [
                {
                  "internalType": "string",
                  "name": "cid",
                  "type": "string"
                },
                {
                  "internalType": "string",
                  "name": "docName",
                  "type": "string"
                },
                {
                  "internalType": "string",
                  "name": "docType",
                  "type": "string"
                },
                {
                  "internalType": "address",
                  "name": "verifierAddress",
                  "type": "address"
                },
                {
                  "internalType": "address",
                  "name": "studentAddress",
                  "type": "address"
                },
                {
                  "internalType": "enum DocuChain.VerificationStatus",
                  "name": "status",
                  "type": "uint8"
                }
              ],
              "internalType": "struct DocuChain.Document[]",
              "name": "",
              "type": "tuple[]"
            }
          ],
          "stateMutability": "view",
          "type": "function"
        },
        {
          "inputs": [],
          "name": "getDocumentsForVerifier",
          "outputs": [
            {
              "components": [
                {
                  "internalType": "string",
                  "name": "cid",
                  "type": "string"
                },
                {
                  "internalType": "string",
                  "name": "docName",
                  "type": "string"
                },
                {
                  "internalType": "string",
                  "name": "docType",
                  "type": "string"
                },
                {
                  "internalType": "address",
                  "name": "verifierAddress",
                  "type": "address"
                },
                {
                  "internalType": "address",
                  "name": "studentAddress",
                  "type": "address"
                },
                {
                  "internalType": "enum DocuChain.VerificationStatus",
                  "name": "status",
                  "type": "uint8"
                }
              ],
              "internalType": "struct DocuChain.Document[]",
              "name": "",
              "type": "tuple[]"
            }
          ],
          "stateMutability": "view",
          "type": "function"
        },
        {
          "inputs": [],
          "name": "getStudentDetails",
          "outputs": [
            {
              "components": [
                {
                  "internalType": "address",
                  "name": "studentAddress",
                  "type": "address"
                },
                {
                  "internalType": "string",
                  "name": "fullName",
                  "type": "string"
                },
                {
                  "internalType": "string",
                  "name": "email",
                  "type": "string"
                },
                {
                  "internalType": "string",
                  "name": "gender",
                  "type": "string"
                }
              ],
              "internalType": "struct DocuChain.Student",
              "name": "",
              "type": "tuple"
            }
          ],
          "stateMutability": "view",
          "type": "function"
        },
        {
          "inputs": [
            {
              "internalType": "address",
              "name": "_address",
              "type": "address"
            }
          ],
          "name": "getVerifierDetails",
          "outputs": [
            {
              "components": [
                {
                  "internalType": "address",
                  "name": "verifierAddress",
                  "type": "address"
                },
                {
                  "internalType": "string",
                  "name": "name",
                  "type": "string"
                },
                {
                  "internalType": "string",
                  "name": "email",
                  "type": "string"
                },
                {
                  "internalType": "string",
                  "name": "instituteType",
                  "type": "string"
                },
                {
                  "internalType": "string",
                  "name": "location",
                  "type": "string"
                },
                {
                  "internalType": "string",
                  "name": "logoCid",
                  "type": "string"
                }
              ],
              "internalType": "struct DocuChain.Verifier",
              "name": "",
              "type": "tuple"
            }
          ],
          "stateMutability": "view",
          "type": "function"
        },
        {
          "inputs": [
            {
              "internalType": "string",
              "name": "_cid",
              "type": "string"
            }
          ],
          "name": "isDocumentExists",
          "outputs": [
            {
              "internalType": "bool",
              "name": "",
              "type": "bool"
            }
          ],
          "stateMutability": "view",
          "type": "function"
        },
        {
          "inputs": [],
          "name": "isStudentExists",
          "outputs": [
            {
              "internalType": "bool",
              "name": "",
              "type": "bool"
            }
          ],
          "stateMutability": "view",
          "type": "function"
        },
        {
          "inputs": [
            {
              "internalType": "address",
              "name": "_address",
              "type": "address"
            }
          ],
          "name": "isVerifierExists",
          "outputs": [
            {
              "internalType": "bool",
              "name": "",
              "type": "bool"
            }
          ],
          "stateMutability": "view",
          "type": "function"
        },
        {
          "inputs": [
            {
              "internalType": "string",
              "name": "_cid",
              "type": "string"
            },
            {
              "internalType": "enum DocuChain.VerificationStatus",
              "name": "_status",
              "type": "uint8"
            }
          ],
          "name": "verifyDocument",
          "outputs": [],
          "stateMutability": "nonpayable",
          "type": "function"
        }
      ],
      "evm": {
        "bytecode": {
          "linkReferences": {},
          "object": "608060405234801561001057600080fd5b506137f6806100206000396000f3fe608060405234801561001057600080fd5b50600436106100ff5760003560e01c8063bc65865911610097578063e1b84b4411610066578063e1b84b4414610286578063e4678dfb146102a4578063ee3fb445146102c0578063f884658f146102f0576100ff565b8063bc658659146101ec578063c20c43251461020a578063d29352db1461023a578063d998c8241461026a576100ff565b8063635994f8116100d3578063635994f8146101785780637c48d713146101945780638e383c6b1461019e57806391974540146101ce576100ff565b8062066b9a146101045780631a47c5c5146101205780634403e2dc1461013e5780634fe604ab14610148575b600080fd5b61011e600480360381019061011991906125db565b61030c565b005b610128610496565b6040516101359190612972565b60405180910390f35b6101466108fb565b005b610162600480360381019061015d91906129c0565b6109fe565b60405161016f9190612a08565b60405180910390f35b610192600480360381019061018d9190612a23565b610a99565b005b61019c610c8d565b005b6101b860048036038101906101b39190612aa2565b610df7565b6040516101c59190612b19565b60405180910390f35b6101d6610ea3565b6040516101e39190612972565b60405180910390f35b6101f4611308565b6040516102019190612bac565b60405180910390f35b610224600480360381019061021f91906129c0565b61156a565b6040516102319190612c73565b60405180910390f35b610254600480360381019061024f9190612a23565b6118f3565b6040516102619190612d2c565b60405180910390f35b610284600480360381019061027f9190612d4e565b611c10565b005b61028e611ef2565b60405161029b9190612a08565b60405180910390f35b6102be60048036038101906102b99190612e42565b611f8a565b005b6102da60048036038101906102d59190612a23565b612116565b6040516102e79190612a08565b60405180910390f35b61030a60048036038101906103059190612e9e565b612150565b005b610315336109fe565b15610355576040517f08c379a000000000000000000000000000000000000000000000000000000000815260040161034c90612f91565b60405180910390fd5b6040518060c001604052803373ffffffffffffffffffffffffffffffffffffffff16815260200186815260200185815260200184815260200183815260200182815250600260003373ffffffffffffffffffffffffffffffffffffffff1673ffffffffffffffffffffffffffffffffffffffff16815260200190815260200160002060008201518160000160006101000a81548173ffffffffffffffffffffffffffffffffffffffff021916908373ffffffffffffffffffffffffffffffffffffffff160217905550602082015181600101908161043391906131bd565b50604082015181600201908161044991906131bd565b50606082015181600301908161045f91906131bd565b50608082015181600401908161047591906131bd565b5060a082015181600501908161048b91906131bd565b509050505050505050565b6060600060038054905067ffffffffffffffff8111156104b9576104b86124b0565b5b6040519080825280602002602001820160405280156104f257816020015b6104df612326565b8152602001906001900390816104d75790505b5090506000805b6003805490508110156108ef5760006003828154811061051c5761051b61328f565b5b90600052602060002001805461053190612fe0565b80601f016020809104026020016040519081016040528092919081815260200182805461055d90612fe0565b80156105aa5780601f1061057f576101008083540402835291602001916105aa565b820191906000526020600020905b81548152906001019060200180831161058d57829003601f168201915b5050505050905060006001826040516105c391906132fa565b90815260200160405180910390206040518060c00160405290816000820180546105ec90612fe0565b80601f016020809104026020016040519081016040528092919081815260200182805461061890612fe0565b80156106655780601f1061063a57610100808354040283529160200191610665565b820191906000526020600020905b81548152906001019060200180831161064857829003601f168201915b5050505050815260200160018201805461067e90612fe0565b80601f01602080910402602001604051908101604052809291908181526020018280546106aa90612fe0565b80156106f75780601f106106cc576101008083540402835291602001916106f7565b820191906000526020600020905b8154815290600101906020018083116106da57829003601f168201915b5050505050815260200160028201805461071090612fe0565b80601f016020809104026020016040519081016040528092919081815260200182805461073c90612fe0565b80156107895780601f1061075e57610100808354040283529160200191610789565b820191906000526020600020905b81548152906001019060200180831161076c57829003601f168201915b505050505081526020016003820160009054906101000a900473ffffffffffffffffffffffffffffffffffffffff1673ffffffffffffffffffffffffffffffffffffffff1673ffffffffffffffffffffffffffffffffffffffff1681526020016004820160009054906101000a900473ffffffffffffffffffffffffffffffffffffffff1673ffffffffffffffffffffffffffffffffffffffff1673ffffffffffffffffffffffffffffffffffffffff1681526020016004820160149054906101000a900460ff166002811115610863576108626127ce565b5b6002811115610875576108746127ce565b5b8152505090503373ffffffffffffffffffffffffffffffffffffffff16816060015173ffffffffffffffffffffffffffffffffffffffff16036108e057808585815181106108c6576108c561328f565b5b602002602001018190525083806108dc90613340565b9450505b505080806001019150506104f9565b50808252819250505090565b610904336109fe565b610943576040517f08c379a000000000000000000000000000000000000000000000000000000000815260040161093a906133d4565b60405180910390fd5b600260003373ffffffffffffffffffffffffffffffffffffffff1673ffffffffffffffffffffffffffffffffffffffff168152602001908152602001600020600080820160006101000a81549073ffffffffffffffffffffffffffffffffffffffff02191690556001820160006109ba919061239a565b6002820160006109ca919061239a565b6003820160006109da919061239a565b6004820160006109ea919061239a565b6005820160006109fa919061239a565b5050565b60008073ffffffffffffffffffffffffffffffffffffffff16600260008473ffffffffffffffffffffffffffffffffffffffff1673ffffffffffffffffffffffffffffffffffffffff16815260200190815260200160002060000160009054906101000a900473ffffffffffffffffffffffffffffffffffffffff1673ffffffffffffffffffffffffffffffffffffffff1614159050919050565b610aa281612116565b610ae1576040517f08c379a0000000000000000000000000000000000000000000000000000000008152600401610ad890613440565b60405180910390fd5b610ae9611ef2565b610b28576040517f08c379a0000000000000000000000000000000000000000000000000000000008152600401610b1f906134ac565b60405180910390fd5b3373ffffffffffffffffffffffffffffffffffffffff16600182604051610b4f91906132fa565b908152602001604051809103902060040160009054906101000a900473ffffffffffffffffffffffffffffffffffffffff1673ffffffffffffffffffffffffffffffffffffffff1614610bd7576040517f08c379a0000000000000000000000000000000000000000000000000000000008152600401610bce90613518565b60405180910390fd5b600181604051610be791906132fa565b908152602001604051809103902060008082016000610c06919061239a565b600182016000610c16919061239a565b600282016000610c26919061239a565b6003820160006101000a81549073ffffffffffffffffffffffffffffffffffffffff02191690556004820160006101000a81549073ffffffffffffffffffffffffffffffffffffffff02191690556004820160146101000a81549060ff0219169055505050565b600073ffffffffffffffffffffffffffffffffffffffff166000803373ffffffffffffffffffffffffffffffffffffffff1673ffffffffffffffffffffffffffffffffffffffff16815260200190815260200160002060000160009054906101000a900473ffffffffffffffffffffffffffffffffffffffff1673ffffffffffffffffffffffffffffffffffffffff1603610d5d576040517f08c379a0000000000000000000000000000000000000000000000000000000008152600401610d5490613584565b60405180910390fd5b6000803373ffffffffffffffffffffffffffffffffffffffff1673ffffffffffffffffffffffffffffffffffffffff168152602001908152602001600020600080820160006101000a81549073ffffffffffffffffffffffffffffffffffffffff0219169055600182016000610dd3919061239a565b600282016000610de3919061239a565b600382016000610df3919061239a565b5050565b60038181548110610e0757600080fd5b906000526020600020016000915090508054610e2290612fe0565b80601f0160208091040260200160405190810160405280929190818152602001828054610e4e90612fe0565b8015610e9b5780601f10610e7057610100808354040283529160200191610e9b565b820191906000526020600020905b815481529060010190602001808311610e7e57829003601f168201915b505050505081565b6060600060038054905067ffffffffffffffff811115610ec657610ec56124b0565b5b604051908082528060200260200182016040528015610eff57816020015b610eec612326565b815260200190600190039081610ee45790505b5090506000805b6003805490508110156112fc57600060038281548110610f2957610f2861328f565b5b906000526020600020018054610f3e90612fe0565b80601f0160208091040260200160405190810160405280929190818152602001828054610f6a90612fe0565b8015610fb75780601f10610f8c57610100808354040283529160200191610fb7565b820191906000526020600020905b815481529060010190602001808311610f9a57829003601f168201915b505050505090506000600182604051610fd091906132fa565b90815260200160405180910390206040518060c0016040529081600082018054610ff990612fe0565b80601f016020809104026020016040519081016040528092919081815260200182805461102590612fe0565b80156110725780601f1061104757610100808354040283529160200191611072565b820191906000526020600020905b81548152906001019060200180831161105557829003601f168201915b5050505050815260200160018201805461108b90612fe0565b80601f01602080910402602001604051908101604052809291908181526020018280546110b790612fe0565b80156111045780601f106110d957610100808354040283529160200191611104565b820191906000526020600020905b8154815290600101906020018083116110e757829003601f168201915b5050505050815260200160028201805461111d90612fe0565b80601f016020809104026020016040519081016040528092919081815260200182805461114990612fe0565b80156111965780601f1061116b57610100808354040283529160200191611196565b820191906000526020600020905b81548152906001019060200180831161117957829003601f168201915b505050505081526020016003820160009054906101000a900473ffffffffffffffffffffffffffffffffffffffff1673ffffffffffffffffffffffffffffffffffffffff1673ffffffffffffffffffffffffffffffffffffffff1681526020016004820160009054906101000a900473ffffffffffffffffffffffffffffffffffffffff1673ffffffffffffffffffffffffffffffffffffffff1673ffffffffffffffffffffffffffffffffffffffff1681526020016004820160149054906101000a900460ff1660028111156112705761126f6127ce565b5b6002811115611282576112816127ce565b5b8152505090503373ffffffffffffffffffffffffffffffffffffffff16816080015173ffffffffffffffffffffffffffffffffffffffff16036112ed57808585815181106112d3576112d261328f565b5b602002602001018190525083806112e990613340565b9450505b50508080600101915050610f06565b50808252819250505090565b6113106123da565b6000803373ffffffffffffffffffffffffffffffffffffffff1673ffffffffffffffffffffffffffffffffffffffff1681526020019081526020016000206040518060800160405290816000820160009054906101000a900473ffffffffffffffffffffffffffffffffffffffff1673ffffffffffffffffffffffffffffffffffffffff1673ffffffffffffffffffffffffffffffffffffffff1681526020016001820180546113bf90612fe0565b80601f01602080910402602001604051908101604052809291908181526020018280546113eb90612fe0565b80156114385780601f1061140d57610100808354040283529160200191611438565b820191906000526020600020905b81548152906001019060200180831161141b57829003601f168201915b5050505050815260200160028201805461145190612fe0565b80601f016020809104026020016040519081016040528092919081815260200182805461147d90612fe0565b80156114ca5780601f1061149f576101008083540402835291602001916114ca565b820191906000526020600020905b8154815290600101906020018083116114ad57829003601f168201915b505050505081526020016003820180546114e390612fe0565b80601f016020809104026020016040519081016040528092919081815260200182805461150f90612fe0565b801561155c5780601f106115315761010080835404028352916020019161155c565b820191906000526020600020905b81548152906001019060200180831161153f57829003601f168201915b505050505081525050905090565b611572612418565b600260008373ffffffffffffffffffffffffffffffffffffffff1673ffffffffffffffffffffffffffffffffffffffff1681526020019081526020016000206040518060c00160405290816000820160009054906101000a900473ffffffffffffffffffffffffffffffffffffffff1673ffffffffffffffffffffffffffffffffffffffff1673ffffffffffffffffffffffffffffffffffffffff16815260200160018201805461162290612fe0565b80601f016020809104026020016040519081016040528092919081815260200182805461164e90612fe0565b801561169b5780601f106116705761010080835404028352916020019161169b565b820191906000526020600020905b81548152906001019060200180831161167e57829003601f168201915b505050505081526020016002820180546116b490612fe0565b80601f01602080910402602001604051908101604052809291908181526020018280546116e090612fe0565b801561172d5780601f106117025761010080835404028352916020019161172d565b820191906000526020600020905b81548152906001019060200180831161171057829003601f168201915b5050505050815260200160038201805461174690612fe0565b80601f016020809104026020016040519081016040528092919081815260200182805461177290612fe0565b80156117bf5780601f10611794576101008083540402835291602001916117bf565b820191906000526020600020905b8154815290600101906020018083116117a257829003601f168201915b505050505081526020016004820180546117d890612fe0565b80601f016020809104026020016040519081016040528092919081815260200182805461180490612fe0565b80156118515780601f1061182657610100808354040283529160200191611851565b820191906000526020600020905b81548152906001019060200180831161183457829003601f168201915b5050505050815260200160058201805461186a90612fe0565b80601f016020809104026020016040519081016040528092919081815260200182805461189690612fe0565b80156118e35780601f106118b8576101008083540402835291602001916118e3565b820191906000526020600020905b8154815290600101906020018083116118c657829003601f168201915b5050505050815250509050919050565b6118fb612326565b61190482612116565b611943576040517f08c379a000000000000000000000000000000000000000000000000000000000815260040161193a90613440565b60405180910390fd5b60018260405161195391906132fa565b90815260200160405180910390206040518060c001604052908160008201805461197c90612fe0565b80601f01602080910402602001604051908101604052809291908181526020018280546119a890612fe0565b80156119f55780601f106119ca576101008083540402835291602001916119f5565b820191906000526020600020905b8154815290600101906020018083116119d857829003601f168201915b50505050508152602001600182018054611a0e90612fe0565b80601f0160208091040260200160405190810160405280929190818152602001828054611a3a90612fe0565b8015611a875780601f10611a5c57610100808354040283529160200191611a87565b820191906000526020600020905b815481529060010190602001808311611a6a57829003601f168201915b50505050508152602001600282018054611aa090612fe0565b80601f0160208091040260200160405190810160405280929190818152602001828054611acc90612fe0565b8015611b195780601f10611aee57610100808354040283529160200191611b19565b820191906000526020600020905b815481529060010190602001808311611afc57829003601f168201915b505050505081526020016003820160009054906101000a900473ffffffffffffffffffffffffffffffffffffffff1673ffffffffffffffffffffffffffffffffffffffff1673ffffffffffffffffffffffffffffffffffffffff1681526020016004820160009054906101000a900473ffffffffffffffffffffffffffffffffffffffff1673ffffffffffffffffffffffffffffffffffffffff1673ffffffffffffffffffffffffffffffffffffffff1681526020016004820160149054906101000a900460ff166002811115611bf357611bf26127ce565b5b6002811115611c0557611c046127ce565b5b815250509050919050565b600073ffffffffffffffffffffffffffffffffffffffff166000803373ffffffffffffffffffffffffffffffffffffffff1673ffffffffffffffffffffffffffffffffffffffff16815260200190815260200160002060000160009054906101000a900473ffffffffffffffffffffffffffffffffffffffff1673ffffffffffffffffffffffffffffffffffffffff1603611ce0576040517f08c379a0000000000000000000000000000000000000000000000000000000008152600401611cd7906135f0565b60405180910390fd5b611ce985612116565b15611d29576040517f08c379a0000000000000000000000000000000000000000000000000000000008152600401611d209061365c565b60405180910390fd5b600385908060018154018082558091505060019003906000526020600020016000909190919091509081611d5d91906131bd565b506040518060c001604052808681526020018581526020018481526020018373ffffffffffffffffffffffffffffffffffffffff1681526020018273ffffffffffffffffffffffffffffffffffffffff16815260200160006002811115611dc757611dc66127ce565b5b815250600186604051611dda91906132fa565b90815260200160405180910390206000820151816000019081611dfd91906131bd565b506020820151816001019081611e1391906131bd565b506040820151816002019081611e2991906131bd565b5060608201518160030160006101000a81548173ffffffffffffffffffffffffffffffffffffffff021916908373ffffffffffffffffffffffffffffffffffffffff16021790555060808201518160040160006101000a81548173ffffffffffffffffffffffffffffffffffffffff021916908373ffffffffffffffffffffffffffffffffffffffff16021790555060a08201518160040160146101000a81548160ff02191690836002811115611ee357611ee26127ce565b5b02179055509050505050505050565b60008073ffffffffffffffffffffffffffffffffffffffff166000803373ffffffffffffffffffffffffffffffffffffffff1673ffffffffffffffffffffffffffffffffffffffff16815260200190815260200160002060000160009054906101000a900473ffffffffffffffffffffffffffffffffffffffff1673ffffffffffffffffffffffffffffffffffffffff161415905090565b611f9382612116565b611fd2576040517f08c379a0000000000000000000000000000000000000000000000000000000008152600401611fc990613440565b60405180910390fd5b611fdb336109fe565b61201a576040517f08c379a0000000000000000000000000000000000000000000000000000000008152600401612011906136c8565b60405180910390fd5b3373ffffffffffffffffffffffffffffffffffffffff1660018360405161204191906132fa565b908152602001604051809103902060030160009054906101000a900473ffffffffffffffffffffffffffffffffffffffff1673ffffffffffffffffffffffffffffffffffffffff16146120c9576040517f08c379a00000000000000000000000000000000000000000000000000000000081526004016120c090613734565b60405180910390fd5b806001836040516120da91906132fa565b908152602001604051809103902060040160146101000a81548160ff0219169083600281111561210d5761210c6127ce565b5b02179055505050565b60008060018360405161212991906132fa565b9081526020016040518091039020600001805461214590612fe0565b905014159050919050565b600073ffffffffffffffffffffffffffffffffffffffff166000803373ffffffffffffffffffffffffffffffffffffffff1673ffffffffffffffffffffffffffffffffffffffff16815260200190815260200160002060000160009054906101000a900473ffffffffffffffffffffffffffffffffffffffff1673ffffffffffffffffffffffffffffffffffffffff1614612220576040517f08c379a0000000000000000000000000000000000000000000000000000000008152600401612217906137a0565b60405180910390fd5b60405180608001604052803373ffffffffffffffffffffffffffffffffffffffff168152602001848152602001838152602001828152506000803373ffffffffffffffffffffffffffffffffffffffff1673ffffffffffffffffffffffffffffffffffffffff16815260200190815260200160002060008201518160000160006101000a81548173ffffffffffffffffffffffffffffffffffffffff021916908373ffffffffffffffffffffffffffffffffffffffff16021790555060208201518160010190816122f191906131bd565b50604082015181600201908161230791906131bd565b50606082015181600301908161231d91906131bd565b50905050505050565b6040518060c00160405280606081526020016060815260200160608152602001600073ffffffffffffffffffffffffffffffffffffffff168152602001600073ffffffffffffffffffffffffffffffffffffffff16815260200160006002811115612394576123936127ce565b5b81525090565b5080546123a690612fe0565b6000825580601f106123b857506123d7565b601f0160209004906000526020600020908101906123d69190612464565b5b50565b6040518060800160405280600073ffffffffffffffffffffffffffffffffffffffff1681526020016060815260200160608152602001606081525090565b6040518060c00160405280600073ffffffffffffffffffffffffffffffffffffffff16815260200160608152602001606081526020016060815260200160608152602001606081525090565b5b8082111561247d576000816000905550600101612465565b5090565b6000604051905090565b600080fd5b600080fd5b600080fd5b600080fd5b6000601f19601f8301169050919050565b7f4e487b7100000000000000000000000000000000000000000000000000000000600052604160045260246000fd5b6124e88261249f565b810181811067ffffffffffffffff82111715612507576125066124b0565b5b80604052505050565b600061251a612481565b905061252682826124df565b919050565b600067ffffffffffffffff821115612546576125456124b0565b5b61254f8261249f565b9050602081019050919050565b82818337600083830152505050565b600061257e6125798461252b565b612510565b90508281526020810184848401111561259a5761259961249a565b5b6125a584828561255c565b509392505050565b600082601f8301126125c2576125c1612495565b5b81356125d284826020860161256b565b91505092915050565b600080600080600060a086880312156125f7576125f661248b565b5b600086013567ffffffffffffffff81111561261557612614612490565b5b612621888289016125ad565b955050602086013567ffffffffffffffff81111561264257612641612490565b5b61264e888289016125ad565b945050604086013567ffffffffffffffff81111561266f5761266e612490565b5b61267b888289016125ad565b935050606086013567ffffffffffffffff81111561269c5761269b612490565b5b6126a8888289016125ad565b925050608086013567ffffffffffffffff8111156126c9576126c8612490565b5b6126d5888289016125ad565b9150509295509295909350565b600081519050919050565b600082825260208201905092915050565b6000819050602082019050919050565b600081519050919050565b600082825260208201905092915050565b60005b8381101561274857808201518184015260208101905061272d565b60008484015250505050565b600061275f8261270e565b6127698185612719565b935061277981856020860161272a565b6127828161249f565b840191505092915050565b600073ffffffffffffffffffffffffffffffffffffffff82169050919050565b60006127b88261278d565b9050919050565b6127c8816127ad565b82525050565b7f4e487b7100000000000000000000000000000000000000000000000000000000600052602160045260246000fd5b6003811061280e5761280d6127ce565b5b50565b600081905061281f826127fd565b919050565b600061282f82612811565b9050919050565b61283f81612824565b82525050565b600060c08301600083015184820360008601526128628282612754565b9150506020830151848203602086015261287c8282612754565b915050604083015184820360408601526128968282612754565b91505060608301516128ab60608601826127bf565b5060808301516128be60808601826127bf565b5060a08301516128d160a0860182612836565b508091505092915050565b60006128e88383612845565b905092915050565b6000602082019050919050565b6000612908826126e2565b61291281856126ed565b935083602082028501612924856126fe565b8060005b85811015612960578484038952815161294185826128dc565b945061294c836128f0565b925060208a01995050600181019050612928565b50829750879550505050505092915050565b6000602082019050818103600083015261298c81846128fd565b905092915050565b61299d816127ad565b81146129a857600080fd5b50565b6000813590506129ba81612994565b92915050565b6000602082840312156129d6576129d561248b565b5b60006129e4848285016129ab565b91505092915050565b60008115159050919050565b612a02816129ed565b82525050565b6000602082019050612a1d60008301846129f9565b92915050565b600060208284031215612a3957612a3861248b565b5b600082013567ffffffffffffffff811115612a5757612a56612490565b5b612a63848285016125ad565b91505092915050565b6000819050919050565b612a7f81612a6c565b8114612a8a57600080fd5b50565b600081359050612a9c81612a76565b92915050565b600060208284031215612ab857612ab761248b565b5b6000612ac684828501612a8d565b91505092915050565b600082825260208201905092915050565b6000612aeb8261270e565b612af58185612acf565b9350612b0581856020860161272a565b612b0e8161249f565b840191505092915050565b60006020820190508181036000830152612b338184612ae0565b905092915050565b6000608083016000830151612b5360008601826127bf565b5060208301518482036020860152612b6b8282612754565b91505060408301518482036040860152612b858282612754565b91505060608301518482036060860152612b9f8282612754565b9150508091505092915050565b60006020820190508181036000830152612bc68184612b3b565b905092915050565b600060c083016000830151612be660008601826127bf565b5060208301518482036020860152612bfe8282612754565b91505060408301518482036040860152612c188282612754565b91505060608301518482036060860152612c328282612754565b91505060808301518482036080860152612c4c8282612754565b91505060a083015184820360a0860152612c668282612754565b9150508091505092915050565b60006020820190508181036000830152612c8d8184612bce565b905092915050565b600060c0830160008301518482036000860152612cb28282612754565b91505060208301518482036020860152612ccc8282612754565b91505060408301518482036040860152612ce68282612754565b9150506060830151612cfb60608601826127bf565b506080830151612d0e60808601826127bf565b5060a0830151612d2160a0860182612836565b508091505092915050565b60006020820190508181036000830152612d468184612c95565b905092915050565b600080600080600060a08688031215612d6a57612d6961248b565b5b600086013567ffffffffffffffff811115612d8857612d87612490565b5b612d94888289016125ad565b955050602086013567ffffffffffffffff811115612db557612db4612490565b5b612dc1888289016125ad565b945050604086013567ffffffffffffffff811115612de257612de1612490565b5b612dee888289016125ad565b9350506060612dff888289016129ab565b9250506080612e10888289016129ab565b9150509295509295909350565b60038110612e2a57600080fd5b50565b600081359050612e3c81612e1d565b92915050565b60008060408385031215612e5957612e5861248b565b5b600083013567ffffffffffffffff811115612e7757612e76612490565b5b612e83858286016125ad565b9250506020612e9485828601612e2d565b9150509250929050565b600080600060608486031215612eb757612eb661248b565b5b600084013567ffffffffffffffff811115612ed557612ed4612490565b5b612ee1868287016125ad565b935050602084013567ffffffffffffffff811115612f0257612f01612490565b5b612f0e868287016125ad565b925050604084013567ffffffffffffffff811115612f2f57612f2e612490565b5b612f3b868287016125ad565b9150509250925092565b7f566572696669657220616c726561647920657869737473000000000000000000600082015250565b6000612f7b601783612acf565b9150612f8682612f45565b602082019050919050565b60006020820190508181036000830152612faa81612f6e565b9050919050565b7f4e487b7100000000000000000000000000000000000000000000000000000000600052602260045260246000fd5b60006002820490506001821680612ff857607f821691505b60208210810361300b5761300a612fb1565b5b50919050565b60008190508160005260206000209050919050565b60006020601f8301049050919050565b600082821b905092915050565b6000600883026130737fffffffffffffffffffffffffffffffffffffffffffffffffffffffffffffffff82613036565b61307d8683613036565b95508019841693508086168417925050509392505050565b6000819050919050565b60006130ba6130b56130b084612a6c565b613095565b612a6c565b9050919050565b6000819050919050565b6130d48361309f565b6130e86130e0826130c1565b848454613043565b825550505050565b600090565b6130fd6130f0565b6131088184846130cb565b505050565b5b8181101561312c576131216000826130f5565b60018101905061310e565b5050565b601f8211156131715761314281613011565b61314b84613026565b8101602085101561315a578190505b61316e61316685613026565b83018261310d565b50505b505050565b600082821c905092915050565b600061319460001984600802613176565b1980831691505092915050565b60006131ad8383613183565b9150826002028217905092915050565b6131c68261270e565b67ffffffffffffffff8111156131df576131de6124b0565b5b6131e98254612fe0565b6131f4828285613130565b600060209050601f8311600181146132275760008415613215578287015190505b61321f85826131a1565b865550613287565b601f19841661323586613011565b60005b8281101561325d57848901518255600182019150602085019450602081019050613238565b8683101561327a5784890151613276601f891682613183565b8355505b6001600288020188555050505b505050505050565b7f4e487b7100000000000000000000000000000000000000000000000000000000600052603260045260246000fd5b600081905092915050565b60006132d48261270e565b6132de81856132be565b93506132ee81856020860161272a565b80840191505092915050565b600061330682846132c9565b915081905092915050565b7f4e487b7100000000000000000000000000000000000000000000000000000000600052601160045260246000fd5b600061334b82612a6c565b91507fffffffffffffffffffffffffffffffffffffffffffffffffffffffffffffffff820361337d5761337c613311565b5b600182019050919050565b7f566572696669657220646f6573206e6f74206578697374730000000000000000600082015250565b60006133be601883612acf565b91506133c982613388565b602082019050919050565b600060208201905081810360008301526133ed816133b1565b9050919050565b7f446f63756d656e74206e6f7420666f756e640000000000000000000000000000600082015250565b600061342a601283612acf565b9150613435826133f4565b602082019050919050565b600060208201905081810360008301526134598161341d565b9050919050565b7f53747564656e74206e6f7420666f756e64000000000000000000000000000000600082015250565b6000613496601183612acf565b91506134a182613460565b602082019050919050565b600060208201905081810360008301526134c581613489565b9050919050565b7f53747564656e74206e6f7420617574686f72697a656400000000000000000000600082015250565b6000613502601683612acf565b915061350d826134cc565b602082019050919050565b60006020820190508181036000830152613531816134f5565b9050919050565b7f53747564656e742044657461696c7320616c72656164792064656c6574656400600082015250565b600061356e601f83612acf565b915061357982613538565b602082019050919050565b6000602082019050818103600083015261359d81613561565b9050919050565b7f53747564656e742064657461696c73206e6f7420616464656400000000000000600082015250565b60006135da601983612acf565b91506135e5826135a4565b602082019050919050565b60006020820190508181036000830152613609816135cd565b9050919050565b7f446f63756d656e7420616c726561647920616464656400000000000000000000600082015250565b6000613646601683612acf565b915061365182613610565b602082019050919050565b6000602082019050818103600083015261367581613639565b9050919050565b7f5665726966696572206e6f7420666f756e640000000000000000000000000000600082015250565b60006136b2601283612acf565b91506136bd8261367c565b602082019050919050565b600060208201905081810360008301526136e1816136a5565b9050919050565b7f5665726966696572206e6f7420617574686f72697a6564000000000000000000600082015250565b600061371e601783612acf565b9150613729826136e8565b602082019050919050565b6000602082019050818103600083015261374d81613711565b9050919050565b7f53747564656e74204164647265737320616c7265616479206164646564000000600082015250565b600061378a601d83612acf565b915061379582613754565b602082019050919050565b600060208201905081810360008301526137b98161377d565b905091905056fea26469706673582212200d14e8b6babec86dedc794143766e87b65a0491746516e9a47402ca8447d6da764736f6c63430008180033",
          "opcodes": "PUSH1 0x80 PUSH1 0x40 MSTORE CALLVALUE DUP1 ISZERO PUSH2 0x10 JUMPI PUSH1 0x0 DUP1 REVERT JUMPDEST POP PUSH2 0x37F6 DUP1 PUSH2 0x20 PUSH1 0x0 CODECOPY PUSH1 0x0 RETURN INVALID PUSH1 0x80 PUSH1 0x40 MSTORE CALLVALUE DUP1 ISZERO PUSH2 0x10 JUMPI PUSH1 0x0 DUP1 REVERT JUMPDEST POP PUSH1 0x4 CALLDATASIZE LT PUSH2 0xFF JUMPI PUSH1 0x0 CALLDATALOAD PUSH1 0xE0 SHR DUP1 PUSH4 0xBC658659 GT PUSH2 0x97 JUMPI DUP1 PUSH4 0xE1B84B44 GT PUSH2 0x66 JUMPI DUP1 PUSH4 0xE1B84B44 EQ PUSH2 0x286 JUMPI DUP1 PUSH4 0xE4678DFB EQ PUSH2 0x2A4 JUMPI DUP1 PUSH4 0xEE3FB445 EQ PUSH2 0x2C0 JUMPI DUP1 PUSH4 0xF884658F EQ PUSH2 0x2F0 JUMPI PUSH2 0xFF JUMP JUMPDEST DUP1 PUSH4 0xBC658659 EQ PUSH2 0x1EC JUMPI DUP1 PUSH4 0xC20C4325 EQ PUSH2 0x20A JUMPI DUP1 PUSH4 0xD29352DB EQ PUSH2 0x23A JUMPI DUP1 PUSH4 0xD998C824 EQ PUSH2 0x26A JUMPI PUSH2 0xFF JUMP JUMPDEST DUP1 PUSH4 0x635994F8 GT PUSH2 0xD3 JUMPI DUP1 PUSH4 0x635994F8 EQ PUSH2 0x178 JUMPI DUP1 PUSH4 0x7C48D713 EQ PUSH2 0x194 JUMPI DUP1 PUSH4 0x8E383C6B EQ PUSH2 0x19E JUMPI DUP1 PUSH4 0x91974540 EQ PUSH2 0x1CE JUMPI PUSH2 0xFF JUMP JUMPDEST DUP1 PUSH3 0x66B9A EQ PUSH2 0x104 JUMPI DUP1 PUSH4 0x1A47C5C5 EQ PUSH2 0x120 JUMPI DUP1 PUSH4 0x4403E2DC EQ PUSH2 0x13E JUMPI DUP1 PUSH4 0x4FE604AB EQ PUSH2 0x148 JUMPI JUMPDEST PUSH1 0x0 DUP1 REVERT JUMPDEST PUSH2 0x11E PUSH1 0x4 DUP1 CALLDATASIZE SUB DUP2 ADD SWAP1 PUSH2 0x119 SWAP2 SWAP1 PUSH2 0x25DB JUMP JUMPDEST PUSH2 0x30C JUMP JUMPDEST STOP JUMPDEST PUSH2 0x128 PUSH2 0x496 JUMP JUMPDEST PUSH1 0x40 MLOAD PUSH2 0x135 SWAP2 SWAP1 PUSH2 0x2972 JUMP JUMPDEST PUSH1 0x40 MLOAD DUP1 SWAP2 SUB SWAP1 RETURN JUMPDEST PUSH2 0x146 PUSH2 0x8FB JUMP JUMPDEST STOP JUMPDEST PUSH2 0x162 PUSH1 0x4 DUP1 CALLDATASIZE SUB DUP2 ADD SWAP1 PUSH2 0x15D SWAP2 SWAP1 PUSH2 0x29C0 JUMP JUMPDEST PUSH2 0x9FE JUMP JUMPDEST PUSH1 0x40 MLOAD PUSH2 0x16F SWAP2 SWAP1 PUSH2 0x2A08 JUMP JUMPDEST PUSH1 0x40 MLOAD DUP1 SWAP2 SUB SWAP1 RETURN JUMPDEST PUSH2 0x192 PUSH1 0x4 DUP1 CALLDATASIZE SUB DUP2 ADD SWAP1 PUSH2 0x18D SWAP2 SWAP1 PUSH2 0x2A23 JUMP JUMPDEST PUSH2 0xA99 JUMP JUMPDEST STOP JUMPDEST PUSH2 0x19C PUSH2 0xC8D JUMP JUMPDEST STOP JUMPDEST PUSH2 0x1B8 PUSH1 0x4 DUP1 CALLDATASIZE SUB DUP2 ADD SWAP1 PUSH2 0x1B3 SWAP2 SWAP1 PUSH2 0x2AA2 JUMP JUMPDEST PUSH2 0xDF7 JUMP JUMPDEST PUSH1 0x40 MLOAD PUSH2 0x1C5 SWAP2 SWAP1 PUSH2 0x2B19 JUMP JUMPDEST PUSH1 0x40 MLOAD DUP1 SWAP2 SUB SWAP1 RETURN JUMPDEST PUSH2 0x1D6 PUSH2 0xEA3 JUMP JUMPDEST PUSH1 0x40 MLOAD PUSH2 0x1E3 SWAP2 SWAP1 PUSH2 0x2972 JUMP JUMPDEST PUSH1 0x40 MLOAD DUP1 SWAP2 SUB SWAP1 RETURN JUMPDEST PUSH2 0x1F4 PUSH2 0x1308 JUMP JUMPDEST PUSH1 0x40 MLOAD PUSH2 0x201 SWAP2 SWAP1 PUSH2 0x2BAC JUMP JUMPDEST PUSH1 0x40 MLOAD DUP1 SWAP2 SUB SWAP1 RETURN JUMPDEST PUSH2 0x224 PUSH1 0x4 DUP1 CALLDATASIZE SUB DUP2 ADD SWAP1 PUSH2 0x21F SWAP2 SWAP1 PUSH2 0x29C0 JUMP JUMPDEST PUSH2 0x156A JUMP JUMPDEST PUSH1 0x40 MLOAD PUSH2 0x231 SWAP2 SWAP1 PUSH2 0x2C73 JUMP JUMPDEST PUSH1 0x40 MLOAD DUP1 SWAP2 SUB SWAP1 RETURN JUMPDEST PUSH2 0x254 PUSH1 0x4 DUP1 CALLDATASIZE SUB DUP2 ADD SWAP1 PUSH2 0x24F SWAP2 SWAP1 PUSH2 0x2A23 JUMP JUMPDEST PUSH2 0x18F3 JUMP JUMPDEST PUSH1 0x40 MLOAD PUSH2 0x261 SWAP2 SWAP1 PUSH2 0x2D2C JUMP JUMPDEST PUSH1 0x40 MLOAD DUP1 SWAP2 SUB SWAP1 RETURN JUMPDEST PUSH2 0x284 PUSH1 0x4 DUP1 CALLDATASIZE SUB DUP2 ADD SWAP1 PUSH2 0x27F SWAP2 SWAP1 PUSH2 0x2D4E JUMP JUMPDEST PUSH2 0x1C10 JUMP JUMPDEST STOP JUMPDEST PUSH2 0x28E PUSH2 0x1EF2 JUMP JUMPDEST PUSH1 0x40 MLOAD PUSH2 0x29B SWAP2 SWAP1 PUSH2 0x2A08 JUMP JUMPDEST PUSH1 0x40 MLOAD DUP1 SWAP2 SUB SWAP1 RETURN JUMPDEST PUSH2 0x2BE PUSH1 0x4 DUP1 CALLDATASIZE SUB DUP2 ADD SWAP1 PUSH2 0x2B9 SWAP2 SWAP1 PUSH2 0x2E42 JUMP JUMPDEST PUSH2 0x1F8A JUMP JUMPDEST STOP JUMPDEST PUSH2 0x2DA PUSH1 0x4 DUP1 CALLDATASIZE SUB DUP2 ADD SWAP1 PUSH2 0x2D5 SWAP2 SWAP1 PUSH2 0x2A23 JUMP JUMPDEST PUSH2 0x2116 JUMP JUMPDEST PUSH1 0x40 MLOAD PUSH2 0x2E7 SWAP2 SWAP1 PUSH2 0x2A08 JUMP JUMPDEST PUSH1 0x40 MLOAD DUP1 SWAP2 SUB SWAP1 RETURN JUMPDEST PUSH2 0x30A PUSH1 0x4 DUP1 CALLDATASIZE SUB DUP2 ADD SWAP1 PUSH2 0x305 SWAP2 SWAP1 PUSH2 0x2E9E JUMP JUMPDEST PUSH2 0x2150 JUMP JUMPDEST STOP JUMPDEST PUSH2 0x315 CALLER PUSH2 0x9FE JUMP JUMPDEST ISZERO PUSH2 0x355 JUMPI PUSH1 0x40 MLOAD PUSH32 0x8C379A000000000000000000000000000000000000000000000000000000000 DUP2 MSTORE PUSH1 0x4 ADD PUSH2 0x34C SWAP1 PUSH2 0x2F91 JUMP JUMPDEST PUSH1 0x40 MLOAD DUP1 SWAP2 SUB SWAP1 REVERT JUMPDEST PUSH1 0x40 MLOAD DUP1 PUSH1 0xC0 ADD PUSH1 0x40 MSTORE DUP1 CALLER PUSH20 0xFFFFFFFFFFFFFFFFFFFFFFFFFFFFFFFFFFFFFFFF AND DUP2 MSTORE PUSH1 0x20 ADD DUP7 DUP2 MSTORE PUSH1 0x20 ADD DUP6 DUP2 MSTORE PUSH1 0x20 ADD DUP5 DUP2 MSTORE PUSH1 0x20 ADD DUP4 DUP2 MSTORE PUSH1 0x20 ADD DUP3 DUP2 MSTORE POP PUSH1 0x2 PUSH1 0x0 CALLER PUSH20 0xFFFFFFFFFFFFFFFFFFFFFFFFFFFFFFFFFFFFFFFF AND PUSH20 0xFFFFFFFFFFFFFFFFFFFFFFFFFFFFFFFFFFFFFFFF AND DUP2 MSTORE PUSH1 0x20 ADD SWAP1 DUP2 MSTORE PUSH1 0x20 ADD PUSH1 0x0 KECCAK256 PUSH1 0x0 DUP3 ADD MLOAD DUP2 PUSH1 0x0 ADD PUSH1 0x0 PUSH2 0x100 EXP DUP2 SLOAD DUP2 PUSH20 0xFFFFFFFFFFFFFFFFFFFFFFFFFFFFFFFFFFFFFFFF MUL NOT AND SWAP1 DUP4 PUSH20 0xFFFFFFFFFFFFFFFFFFFFFFFFFFFFFFFFFFFFFFFF AND MUL OR SWAP1 SSTORE POP PUSH1 0x20 DUP3 ADD MLOAD DUP2 PUSH1 0x1 ADD SWAP1 DUP2 PUSH2 0x433 SWAP2 SWAP1 PUSH2 0x31BD JUMP JUMPDEST POP PUSH1 0x40 DUP3 ADD MLOAD DUP2 PUSH1 0x2 ADD SWAP1 DUP2 PUSH2 0x449 SWAP2 SWAP1 PUSH2 0x31BD JUMP JUMPDEST POP PUSH1 0x60 DUP3 ADD MLOAD DUP2 PUSH1 0x3 ADD SWAP1 DUP2 PUSH2 0x45F SWAP2 SWAP1 PUSH2 0x31BD JUMP JUMPDEST POP PUSH1 0x80 DUP3 ADD MLOAD DUP2 PUSH1 0x4 ADD SWAP1 DUP2 PUSH2 0x475 SWAP2 SWAP1 PUSH2 0x31BD JUMP JUMPDEST POP PUSH1 0xA0 DUP3 ADD MLOAD DUP2 PUSH1 0x5 ADD SWAP1 DUP2 PUSH2 0x48B SWAP2 SWAP1 PUSH2 0x31BD JUMP JUMPDEST POP SWAP1 POP POP POP POP POP POP POP JUMP JUMPDEST PUSH1 0x60 PUSH1 0x0 PUSH1 0x3 DUP1 SLOAD SWAP1 POP PUSH8 0xFFFFFFFFFFFFFFFF DUP2 GT ISZERO PUSH2 0x4B9 JUMPI PUSH2 0x4B8 PUSH2 0x24B0 JUMP JUMPDEST JUMPDEST PUSH1 0x40 MLOAD SWAP1 DUP1 DUP3 MSTORE DUP1 PUSH1 0x20 MUL PUSH1 0x20 ADD DUP3 ADD PUSH1 0x40 MSTORE DUP1 ISZERO PUSH2 0x4F2 JUMPI DUP2 PUSH1 0x20 ADD JUMPDEST PUSH2 0x4DF PUSH2 0x2326 JUMP JUMPDEST DUP2 MSTORE PUSH1 0x20 ADD SWAP1 PUSH1 0x1 SWAP1 SUB SWAP1 DUP2 PUSH2 0x4D7 JUMPI SWAP1 POP JUMPDEST POP SWAP1 POP PUSH1 0x0 DUP1 JUMPDEST PUSH1 0x3 DUP1 SLOAD SWAP1 POP DUP2 LT ISZERO PUSH2 0x8EF JUMPI PUSH1 0x0 PUSH1 0x3 DUP3 DUP2 SLOAD DUP2 LT PUSH2 0x51C JUMPI PUSH2 0x51B PUSH2 0x328F JUMP JUMPDEST JUMPDEST SWAP1 PUSH1 0x0 MSTORE PUSH1 0x20 PUSH1 0x0 KECCAK256 ADD DUP1 SLOAD PUSH2 0x531 SWAP1 PUSH2 0x2FE0 JUMP JUMPDEST DUP1 PUSH1 0x1F ADD PUSH1 0x20 DUP1 SWAP2 DIV MUL PUSH1 0x20 ADD PUSH1 0x40 MLOAD SWAP1 DUP2 ADD PUSH1 0x40 MSTORE DUP1 SWAP3 SWAP2 SWAP1 DUP2 DUP2 MSTORE PUSH1 0x20 ADD DUP3 DUP1 SLOAD PUSH2 0x55D SWAP1 PUSH2 0x2FE0 JUMP JUMPDEST DUP1 ISZERO PUSH2 0x5AA JUMPI DUP1 PUSH1 0x1F LT PUSH2 0x57F JUMPI PUSH2 0x100 DUP1 DUP4 SLOAD DIV MUL DUP4 MSTORE SWAP2 PUSH1 0x20 ADD SWAP2 PUSH2 0x5AA JUMP JUMPDEST DUP3 ADD SWAP2 SWAP1 PUSH1 0x0 MSTORE PUSH1 0x20 PUSH1 0x0 KECCAK256 SWAP1 JUMPDEST DUP2 SLOAD DUP2 MSTORE SWAP1 PUSH1 0x1 ADD SWAP1 PUSH1 0x20 ADD DUP1 DUP4 GT PUSH2 0x58D JUMPI DUP3 SWAP1 SUB PUSH1 0x1F AND DUP3 ADD SWAP2 JUMPDEST POP POP POP POP POP SWAP1 POP PUSH1 0x0 PUSH1 0x1 DUP3 PUSH1 0x40 MLOAD PUSH2 0x5C3 SWAP2 SWAP1 PUSH2 0x32FA JUMP JUMPDEST SWAP1 DUP2 MSTORE PUSH1 0x20 ADD PUSH1 0x40 MLOAD DUP1 SWAP2 SUB SWAP1 KECCAK256 PUSH1 0x40 MLOAD DUP1 PUSH1 0xC0 ADD PUSH1 0x40 MSTORE SWAP1 DUP2 PUSH1 0x0 DUP3 ADD DUP1 SLOAD PUSH2 0x5EC SWAP1 PUSH2 0x2FE0 JUMP JUMPDEST DUP1 PUSH1 0x1F ADD PUSH1 0x20 DUP1 SWAP2 DIV MUL PUSH1 0x20 ADD PUSH1 0x40 MLOAD SWAP1 DUP2 ADD PUSH1 0x40 MSTORE DUP1 SWAP3 SWAP2 SWAP1 DUP2 DUP2 MSTORE PUSH1 0x20 ADD DUP3 DUP1 SLOAD PUSH2 0x618 SWAP1 PUSH2 0x2FE0 JUMP JUMPDEST DUP1 ISZERO PUSH2 0x665 JUMPI DUP1 PUSH1 0x1F LT PUSH2 0x63A JUMPI PUSH2 0x100 DUP1 DUP4 SLOAD DIV MUL DUP4 MSTORE SWAP2 PUSH1 0x20 ADD SWAP2 PUSH2 0x665 JUMP JUMPDEST DUP3 ADD SWAP2 SWAP1 PUSH1 0x0 MSTORE PUSH1 0x20 PUSH1 0x0 KECCAK256 SWAP1 JUMPDEST DUP2 SLOAD DUP2 MSTORE SWAP1 PUSH1 0x1 ADD SWAP1 PUSH1 0x20 ADD DUP1 DUP4 GT PUSH2 0x648 JUMPI DUP3 SWAP1 SUB PUSH1 0x1F AND DUP3 ADD SWAP2 JUMPDEST POP POP POP POP POP DUP2 MSTORE PUSH1 0x20 ADD PUSH1 0x1 DUP3 ADD DUP1 SLOAD PUSH2 0x67E SWAP1 PUSH2 0x2FE0 JUMP JUMPDEST DUP1 PUSH1 0x1F ADD PUSH1 0x20 DUP1 SWAP2 DIV MUL PUSH1 0x20 ADD PUSH1 0x40 MLOAD SWAP1 DUP2 ADD PUSH1 0x40 MSTORE DUP1 SWAP3 SWAP2 SWAP1 DUP2 DUP2 MSTORE PUSH1 0x20 ADD DUP3 DUP1 SLOAD PUSH2 0x6AA SWAP1 PUSH2 0x2FE0 JUMP JUMPDEST DUP1 ISZERO PUSH2 0x6F7 JUMPI DUP1 PUSH1 0x1F LT PUSH2 0x6CC JUMPI PUSH2 0x100 DUP1 DUP4 SLOAD DIV MUL DUP4 MSTORE SWAP2 PUSH1 0x20 ADD SWAP2 PUSH2 0x6F7 JUMP JUMPDEST DUP3 ADD SWAP2 SWAP1 PUSH1 0x0 MSTORE PUSH1 0x20 PUSH1 0x0 KECCAK256 SWAP1 JUMPDEST DUP2 SLOAD DUP2 MSTORE SWAP1 PUSH1 0x1 ADD SWAP1 PUSH1 0x20 ADD DUP1 DUP4 GT PUSH2 0x6DA JUMPI DUP3 SWAP1 SUB PUSH1 0x1F AND DUP3 ADD SWAP2 JUMPDEST POP POP POP POP POP DUP2 MSTORE PUSH1 0x20 ADD PUSH1 0x2 DUP3 ADD DUP1 SLOAD PUSH2 0x710 SWAP1 PUSH2 0x2FE0 JUMP JUMPDEST DUP1 PUSH1 0x1F ADD PUSH1 0x20 DUP1 SWAP2 DIV MUL PUSH1 0x20 ADD PUSH1 0x40 MLOAD SWAP1 DUP2 ADD PUSH1 0x40 MSTORE DUP1 SWAP3 SWAP2 SWAP1 DUP2 DUP2 MSTORE PUSH1 0x20 ADD DUP3 DUP1 SLOAD PUSH2 0x73C SWAP1 PUSH2 0x2FE0 JUMP JUMPDEST DUP1 ISZERO PUSH2 0x789 JUMPI DUP1 PUSH1 0x1F LT PUSH2 0x75E JUMPI PUSH2 0x100 DUP1 DUP4 SLOAD DIV MUL DUP4 MSTORE SWAP2 PUSH1 0x20 ADD SWAP2 PUSH2 0x789 JUMP JUMPDEST DUP3 ADD SWAP2 SWAP1 PUSH1 0x0 MSTORE PUSH1 0x20 PUSH1 0x0 KECCAK256 SWAP1 JUMPDEST DUP2 SLOAD DUP2 MSTORE SWAP1 PUSH1 0x1 ADD SWAP1 PUSH1 0x20 ADD DUP1 DUP4 GT PUSH2 0x76C JUMPI DUP3 SWAP1 SUB PUSH1 0x1F AND DUP3 ADD SWAP2 JUMPDEST POP POP POP POP POP DUP2 MSTORE PUSH1 0x20 ADD PUSH1 0x3 DUP3 ADD PUSH1 0x0 SWAP1 SLOAD SWAP1 PUSH2 0x100 EXP SWAP1 DIV PUSH20 0xFFFFFFFFFFFFFFFFFFFFFFFFFFFFFFFFFFFFFFFF AND PUSH20 0xFFFFFFFFFFFFFFFFFFFFFFFFFFFFFFFFFFFFFFFF AND PUSH20 0xFFFFFFFFFFFFFFFFFFFFFFFFFFFFFFFFFFFFFFFF AND DUP2 MSTORE PUSH1 0x20 ADD PUSH1 0x4 DUP3 ADD PUSH1 0x0 SWAP1 SLOAD SWAP1 PUSH2 0x100 EXP SWAP1 DIV PUSH20 0xFFFFFFFFFFFFFFFFFFFFFFFFFFFFFFFFFFFFFFFF AND PUSH20 0xFFFFFFFFFFFFFFFFFFFFFFFFFFFFFFFFFFFFFFFF AND PUSH20 0xFFFFFFFFFFFFFFFFFFFFFFFFFFFFFFFFFFFFFFFF AND DUP2 MSTORE PUSH1 0x20 ADD PUSH1 0x4 DUP3 ADD PUSH1 0x14 SWAP1 SLOAD SWAP1 PUSH2 0x100 EXP SWAP1 DIV PUSH1 0xFF AND PUSH1 0x2 DUP2 GT ISZERO PUSH2 0x863 JUMPI PUSH2 0x862 PUSH2 0x27CE JUMP JUMPDEST JUMPDEST PUSH1 0x2 DUP2 GT ISZERO PUSH2 0x875 JUMPI PUSH2 0x874 PUSH2 0x27CE JUMP JUMPDEST JUMPDEST DUP2 MSTORE POP POP SWAP1 POP CALLER PUSH20 0xFFFFFFFFFFFFFFFFFFFFFFFFFFFFFFFFFFFFFFFF AND DUP2 PUSH1 0x60 ADD MLOAD PUSH20 0xFFFFFFFFFFFFFFFFFFFFFFFFFFFFFFFFFFFFFFFF AND SUB PUSH2 0x8E0 JUMPI DUP1 DUP6 DUP6 DUP2 MLOAD DUP2 LT PUSH2 0x8C6 JUMPI PUSH2 0x8C5 PUSH2 0x328F JUMP JUMPDEST JUMPDEST PUSH1 0x20 MUL PUSH1 0x20 ADD ADD DUP2 SWAP1 MSTORE POP DUP4 DUP1 PUSH2 0x8DC SWAP1 PUSH2 0x3340 JUMP JUMPDEST SWAP5 POP POP JUMPDEST POP POP DUP1 DUP1 PUSH1 0x1 ADD SWAP2 POP POP PUSH2 0x4F9 JUMP JUMPDEST POP DUP1 DUP3 MSTORE DUP2 SWAP3 POP POP POP SWAP1 JUMP JUMPDEST PUSH2 0x904 CALLER PUSH2 0x9FE JUMP JUMPDEST PUSH2 0x943 JUMPI PUSH1 0x40 MLOAD PUSH32 0x8C379A000000000000000000000000000000000000000000000000000000000 DUP2 MSTORE PUSH1 0x4 ADD PUSH2 0x93A SWAP1 PUSH2 0x33D4 JUMP JUMPDEST PUSH1 0x40 MLOAD DUP1 SWAP2 SUB SWAP1 REVERT JUMPDEST PUSH1 0x2 PUSH1 0x0 CALLER PUSH20 0xFFFFFFFFFFFFFFFFFFFFFFFFFFFFFFFFFFFFFFFF AND PUSH20 0xFFFFFFFFFFFFFFFFFFFFFFFFFFFFFFFFFFFFFFFF AND DUP2 MSTORE PUSH1 0x20 ADD SWAP1 DUP2 MSTORE PUSH1 0x20 ADD PUSH1 0x0 KECCAK256 PUSH1 0x0 DUP1 DUP3 ADD PUSH1 0x0 PUSH2 0x100 EXP DUP2 SLOAD SWAP1 PUSH20 0xFFFFFFFFFFFFFFFFFFFFFFFFFFFFFFFFFFFFFFFF MUL NOT AND SWAP1 SSTORE PUSH1 0x1 DUP3 ADD PUSH1 0x0 PUSH2 0x9BA SWAP2 SWAP1 PUSH2 0x239A JUMP JUMPDEST PUSH1 0x2 DUP3 ADD PUSH1 0x0 PUSH2 0x9CA SWAP2 SWAP1 PUSH2 0x239A JUMP JUMPDEST PUSH1 0x3 DUP3 ADD PUSH1 0x0 PUSH2 0x9DA SWAP2 SWAP1 PUSH2 0x239A JUMP JUMPDEST PUSH1 0x4 DUP3 ADD PUSH1 0x0 PUSH2 0x9EA SWAP2 SWAP1 PUSH2 0x239A JUMP JUMPDEST PUSH1 0x5 DUP3 ADD PUSH1 0x0 PUSH2 0x9FA SWAP2 SWAP1 PUSH2 0x239A JUMP JUMPDEST POP POP JUMP JUMPDEST PUSH1 0x0 DUP1 PUSH20 0xFFFFFFFFFFFFFFFFFFFFFFFFFFFFFFFFFFFFFFFF AND PUSH1 0x2 PUSH1 0x0 DUP5 PUSH20 0xFFFFFFFFFFFFFFFFFFFFFFFFFFFFFFFFFFFFFFFF AND PUSH20 0xFFFFFFFFFFFFFFFFFFFFFFFFFFFFFFFFFFFFFFFF AND DUP2 MSTORE PUSH1 0x20 ADD SWAP1 DUP2 MSTORE PUSH1 0x20 ADD PUSH1 0x0 KECCAK256 PUSH1 0x0 ADD PUSH1 0x0 SWAP1 SLOAD SWAP1 PUSH2 0x100 EXP SWAP1 DIV PUSH20 0xFFFFFFFFFFFFFFFFFFFFFFFFFFFFFFFFFFFFFFFF AND PUSH20 0xFFFFFFFFFFFFFFFFFFFFFFFFFFFFFFFFFFFFFFFF AND EQ ISZERO SWAP1 POP SWAP2 SWAP1 POP JUMP JUMPDEST PUSH2 0xAA2 DUP2 PUSH2 0x2116 JUMP JUMPDEST PUSH2 0xAE1 JUMPI PUSH1 0x40 MLOAD PUSH32 0x8C379A000000000000000000000000000000000000000000000000000000000 DUP2 MSTORE PUSH1 0x4 ADD PUSH2 0xAD8 SWAP1 PUSH2 0x3440 JUMP JUMPDEST PUSH1 0x40 MLOAD DUP1 SWAP2 SUB SWAP1 REVERT JUMPDEST PUSH2 0xAE9 PUSH2 0x1EF2 JUMP JUMPDEST PUSH2 0xB28 JUMPI PUSH1 0x40 MLOAD PUSH32 0x8C379A000000000000000000000000000000000000000000000000000000000 DUP2 MSTORE PUSH1 0x4 ADD PUSH2 0xB1F SWAP1 PUSH2 0x34AC JUMP JUMPDEST PUSH1 0x40 MLOAD DUP1 SWAP2 SUB SWAP1 REVERT JUMPDEST CALLER PUSH20 0xFFFFFFFFFFFFFFFFFFFFFFFFFFFFFFFFFFFFFFFF AND PUSH1 0x1 DUP3 PUSH1 0x40 MLOAD PUSH2 0xB4F SWAP2 SWAP1 PUSH2 0x32FA JUMP JUMPDEST SWAP1 DUP2 MSTORE PUSH1 0x20 ADD PUSH1 0x40 MLOAD DUP1 SWAP2 SUB SWAP1 KECCAK256 PUSH1 0x4 ADD PUSH1 0x0 SWAP1 SLOAD SWAP1 PUSH2 0x100 EXP SWAP1 DIV PUSH20 0xFFFFFFFFFFFFFFFFFFFFFFFFFFFFFFFFFFFFFFFF AND PUSH20 0xFFFFFFFFFFFFFFFFFFFFFFFFFFFFFFFFFFFFFFFF AND EQ PUSH2 0xBD7 JUMPI PUSH1 0x40 MLOAD PUSH32 0x8C379A000000000000000000000000000000000000000000000000000000000 DUP2 MSTORE PUSH1 0x4 ADD PUSH2 0xBCE SWAP1 PUSH2 0x3518 JUMP JUMPDEST PUSH1 0x40 MLOAD DUP1 SWAP2 SUB SWAP1 REVERT JUMPDEST PUSH1 0x1 DUP2 PUSH1 0x40 MLOAD PUSH2 0xBE7 SWAP2 SWAP1 PUSH2 0x32FA JUMP JUMPDEST SWAP1 DUP2 MSTORE PUSH1 0x20 ADD PUSH1 0x40 MLOAD DUP1 SWAP2 SUB SWAP1 KECCAK256 PUSH1 0x0 DUP1 DUP3 ADD PUSH1 0x0 PUSH2 0xC06 SWAP2 SWAP1 PUSH2 0x239A JUMP JUMPDEST PUSH1 0x1 DUP3 ADD PUSH1 0x0 PUSH2 0xC16 SWAP2 SWAP1 PUSH2 0x239A JUMP JUMPDEST PUSH1 0x2 DUP3 ADD PUSH1 0x0 PUSH2 0xC26 SWAP2 SWAP1 PUSH2 0x239A JUMP JUMPDEST PUSH1 0x3 DUP3 ADD PUSH1 0x0 PUSH2 0x100 EXP DUP2 SLOAD SWAP1 PUSH20 0xFFFFFFFFFFFFFFFFFFFFFFFFFFFFFFFFFFFFFFFF MUL NOT AND SWAP1 SSTORE PUSH1 0x4 DUP3 ADD PUSH1 0x0 PUSH2 0x100 EXP DUP2 SLOAD SWAP1 PUSH20 0xFFFFFFFFFFFFFFFFFFFFFFFFFFFFFFFFFFFFFFFF MUL NOT AND SWAP1 SSTORE PUSH1 0x4 DUP3 ADD PUSH1 0x14 PUSH2 0x100 EXP DUP2 SLOAD SWAP1 PUSH1 0xFF MUL NOT AND SWAP1 SSTORE POP POP POP JUMP JUMPDEST PUSH1 0x0 PUSH20 0xFFFFFFFFFFFFFFFFFFFFFFFFFFFFFFFFFFFFFFFF AND PUSH1 0x0 DUP1 CALLER PUSH20 0xFFFFFFFFFFFFFFFFFFFFFFFFFFFFFFFFFFFFFFFF AND PUSH20 0xFFFFFFFFFFFFFFFFFFFFFFFFFFFFFFFFFFFFFFFF AND DUP2 MSTORE PUSH1 0x20 ADD SWAP1 DUP2 MSTORE PUSH1 0x20 ADD PUSH1 0x0 KECCAK256 PUSH1 0x0 ADD PUSH1 0x0 SWAP1 SLOAD SWAP1 PUSH2 0x100 EXP SWAP1 DIV PUSH20 0xFFFFFFFFFFFFFFFFFFFFFFFFFFFFFFFFFFFFFFFF AND PUSH20 0xFFFFFFFFFFFFFFFFFFFFFFFFFFFFFFFFFFFFFFFF AND SUB PUSH2 0xD5D JUMPI PUSH1 0x40 MLOAD PUSH32 0x8C379A000000000000000000000000000000000000000000000000000000000 DUP2 MSTORE PUSH1 0x4 ADD PUSH2 0xD54 SWAP1 PUSH2 0x3584 JUMP JUMPDEST PUSH1 0x40 MLOAD DUP1 SWAP2 SUB SWAP1 REVERT JUMPDEST PUSH1 0x0 DUP1 CALLER PUSH20 0xFFFFFFFFFFFFFFFFFFFFFFFFFFFFFFFFFFFFFFFF AND PUSH20 0xFFFFFFFFFFFFFFFFFFFFFFFFFFFFFFFFFFFFFFFF AND DUP2 MSTORE PUSH1 0x20 ADD SWAP1 DUP2 MSTORE PUSH1 0x20 ADD PUSH1 0x0 KECCAK256 PUSH1 0x0 DUP1 DUP3 ADD PUSH1 0x0 PUSH2 0x100 EXP DUP2 SLOAD SWAP1 PUSH20 0xFFFFFFFFFFFFFFFFFFFFFFFFFFFFFFFFFFFFFFFF MUL NOT AND SWAP1 SSTORE PUSH1 0x1 DUP3 ADD PUSH1 0x0 PUSH2 0xDD3 SWAP2 SWAP1 PUSH2 0x239A JUMP JUMPDEST PUSH1 0x2 DUP3 ADD PUSH1 0x0 PUSH2 0xDE3 SWAP2 SWAP1 PUSH2 0x239A JUMP JUMPDEST PUSH1 0x3 DUP3 ADD PUSH1 0x0 PUSH2 0xDF3 SWAP2 SWAP1 PUSH2 0x239A JUMP JUMPDEST POP POP JUMP JUMPDEST PUSH1 0x3 DUP2 DUP2 SLOAD DUP2 LT PUSH2 0xE07 JUMPI PUSH1 0x0 DUP1 REVERT JUMPDEST SWAP1 PUSH1 0x0 MSTORE PUSH1 0x20 PUSH1 0x0 KECCAK256 ADD PUSH1 0x0 SWAP2 POP SWAP1 POP DUP1 SLOAD PUSH2 0xE22 SWAP1 PUSH2 0x2FE0 JUMP JUMPDEST DUP1 PUSH1 0x1F ADD PUSH1 0x20 DUP1 SWAP2 DIV MUL PUSH1 0x20 ADD PUSH1 0x40 MLOAD SWAP1 DUP2 ADD PUSH1 0x40 MSTORE DUP1 SWAP3 SWAP2 SWAP1 DUP2 DUP2 MSTORE PUSH1 0x20 ADD DUP3 DUP1 SLOAD PUSH2 0xE4E SWAP1 PUSH2 0x2FE0 JUMP JUMPDEST DUP1 ISZERO PUSH2 0xE9B JUMPI DUP1 PUSH1 0x1F LT PUSH2 0xE70 JUMPI PUSH2 0x100 DUP1 DUP4 SLOAD DIV MUL DUP4 MSTORE SWAP2 PUSH1 0x20 ADD SWAP2 PUSH2 0xE9B JUMP JUMPDEST DUP3 ADD SWAP2 SWAP1 PUSH1 0x0 MSTORE PUSH1 0x20 PUSH1 0x0 KECCAK256 SWAP1 JUMPDEST DUP2 SLOAD DUP2 MSTORE SWAP1 PUSH1 0x1 ADD SWAP1 PUSH1 0x20 ADD DUP1 DUP4 GT PUSH2 0xE7E JUMPI DUP3 SWAP1 SUB PUSH1 0x1F AND DUP3 ADD SWAP2 JUMPDEST POP POP POP POP POP DUP2 JUMP JUMPDEST PUSH1 0x60 PUSH1 0x0 PUSH1 0x3 DUP1 SLOAD SWAP1 POP PUSH8 0xFFFFFFFFFFFFFFFF DUP2 GT ISZERO PUSH2 0xEC6 JUMPI PUSH2 0xEC5 PUSH2 0x24B0 JUMP JUMPDEST JUMPDEST PUSH1 0x40 MLOAD SWAP1 DUP1 DUP3 MSTORE DUP1 PUSH1 0x20 MUL PUSH1 0x20 ADD DUP3 ADD PUSH1 0x40 MSTORE DUP1 ISZERO PUSH2 0xEFF JUMPI DUP2 PUSH1 0x20 ADD JUMPDEST PUSH2 0xEEC PUSH2 0x2326 JUMP JUMPDEST DUP2 MSTORE PUSH1 0x20 ADD SWAP1 PUSH1 0x1 SWAP1 SUB SWAP1 DUP2 PUSH2 0xEE4 JUMPI SWAP1 POP JUMPDEST POP SWAP1 POP PUSH1 0x0 DUP1 JUMPDEST PUSH1 0x3 DUP1 SLOAD SWAP1 POP DUP2 LT ISZERO PUSH2 0x12FC JUMPI PUSH1 0x0 PUSH1 0x3 DUP3 DUP2 SLOAD DUP2 LT PUSH2 0xF29 JUMPI PUSH2 0xF28 PUSH2 0x328F JUMP JUMPDEST JUMPDEST SWAP1 PUSH1 0x0 MSTORE PUSH1 0x20 PUSH1 0x0 KECCAK256 ADD DUP1 SLOAD PUSH2 0xF3E SWAP1 PUSH2 0x2FE0 JUMP JUMPDEST DUP1 PUSH1 0x1F ADD PUSH1 0x20 DUP1 SWAP2 DIV MUL PUSH1 0x20 ADD PUSH1 0x40 MLOAD SWAP1 DUP2 ADD PUSH1 0x40 MSTORE DUP1 SWAP3 SWAP2 SWAP1 DUP2 DUP2 MSTORE PUSH1 0x20 ADD DUP3 DUP1 SLOAD PUSH2 0xF6A SWAP1 PUSH2 0x2FE0 JUMP JUMPDEST DUP1 ISZERO PUSH2 0xFB7 JUMPI DUP1 PUSH1 0x1F LT PUSH2 0xF8C JUMPI PUSH2 0x100 DUP1 DUP4 SLOAD DIV MUL DUP4 MSTORE SWAP2 PUSH1 0x20 ADD SWAP2 PUSH2 0xFB7 JUMP JUMPDEST DUP3 ADD SWAP2 SWAP1 PUSH1 0x0 MSTORE PUSH1 0x20 PUSH1 0x0 KECCAK256 SWAP1 JUMPDEST DUP2 SLOAD DUP2 MSTORE SWAP1 PUSH1 0x1 ADD SWAP1 PUSH1 0x20 ADD DUP1 DUP4 GT PUSH2 0xF9A JUMPI DUP3 SWAP1 SUB PUSH1 0x1F AND DUP3 ADD SWAP2 JUMPDEST POP POP POP POP POP SWAP1 POP PUSH1 0x0 PUSH1 0x1 DUP3 PUSH1 0x40 MLOAD PUSH2 0xFD0 SWAP2 SWAP1 PUSH2 0x32FA JUMP JUMPDEST SWAP1 DUP2 MSTORE PUSH1 0x20 ADD PUSH1 0x40 MLOAD DUP1 SWAP2 SUB SWAP1 KECCAK256 PUSH1 0x40 MLOAD DUP1 PUSH1 0xC0 ADD PUSH1 0x40 MSTORE SWAP1 DUP2 PUSH1 0x0 DUP3 ADD DUP1 SLOAD PUSH2 0xFF9 SWAP1 PUSH2 0x2FE0 JUMP JUMPDEST DUP1 PUSH1 0x1F ADD PUSH1 0x20 DUP1 SWAP2 DIV MUL PUSH1 0x20 ADD PUSH1 0x40 MLOAD SWAP1 DUP2 ADD PUSH1 0x40 MSTORE DUP1 SWAP3 SWAP2 SWAP1 DUP2 DUP2 MSTORE PUSH1 0x20 ADD DUP3 DUP1 SLOAD PUSH2 0x1025 SWAP1 PUSH2 0x2FE0 JUMP JUMPDEST DUP1 ISZERO PUSH2 0x1072 JUMPI DUP1 PUSH1 0x1F LT PUSH2 0x1047 JUMPI PUSH2 0x100 DUP1 DUP4 SLOAD DIV MUL DUP4 MSTORE SWAP2 PUSH1 0x20 ADD SWAP2 PUSH2 0x1072 JUMP JUMPDEST DUP3 ADD SWAP2 SWAP1 PUSH1 0x0 MSTORE PUSH1 0x20 PUSH1 0x0 KECCAK256 SWAP1 JUMPDEST DUP2 SLOAD DUP2 MSTORE SWAP1 PUSH1 0x1 ADD SWAP1 PUSH1 0x20 ADD DUP1 DUP4 GT PUSH2 0x1055 JUMPI DUP3 SWAP1 SUB PUSH1 0x1F AND DUP3 ADD SWAP2 JUMPDEST POP POP POP POP POP DUP2 MSTORE PUSH1 0x20 ADD PUSH1 0x1 DUP3 ADD DUP1 SLOAD PUSH2 0x108B SWAP1 PUSH2 0x2FE0 JUMP JUMPDEST DUP1 PUSH1 0x1F ADD PUSH1 0x20 DUP1 SWAP2 DIV MUL PUSH1 0x20 ADD PUSH1 0x40 MLOAD SWAP1 DUP2 ADD PUSH1 0x40 MSTORE DUP1 SWAP3 SWAP2 SWAP1 DUP2 DUP2 MSTORE PUSH1 0x20 ADD DUP3 DUP1 SLOAD PUSH2 0x10B7 SWAP1 PUSH2 0x2FE0 JUMP JUMPDEST DUP1 ISZERO PUSH2 0x1104 JUMPI DUP1 PUSH1 0x1F LT PUSH2 0x10D9 JUMPI PUSH2 0x100 DUP1 DUP4 SLOAD DIV MUL DUP4 MSTORE SWAP2 PUSH1 0x20 ADD SWAP2 PUSH2 0x1104 JUMP JUMPDEST DUP3 ADD SWAP2 SWAP1 PUSH1 0x0 MSTORE PUSH1 0x20 PUSH1 0x0 KECCAK256 SWAP1 JUMPDEST DUP2 SLOAD DUP2 MSTORE SWAP1 PUSH1 0x1 ADD SWAP1 PUSH1 0x20 ADD DUP1 DUP4 GT PUSH2 0x10E7 JUMPI DUP3 SWAP1 SUB PUSH1 0x1F AND DUP3 ADD SWAP2 JUMPDEST POP POP POP POP POP DUP2 MSTORE PUSH1 0x20 ADD PUSH1 0x2 DUP3 ADD DUP1 SLOAD PUSH2 0x111D SWAP1 PUSH2 0x2FE0 JUMP JUMPDEST DUP1 PUSH1 0x1F ADD PUSH1 0x20 DUP1 SWAP2 DIV MUL PUSH1 0x20 ADD PUSH1 0x40 MLOAD SWAP1 DUP2 ADD PUSH1 0x40 MSTORE DUP1 SWAP3 SWAP2 SWAP1 DUP2 DUP2 MSTORE PUSH1 0x20 ADD DUP3 DUP1 SLOAD PUSH2 0x1149 SWAP1 PUSH2 0x2FE0 JUMP JUMPDEST DUP1 ISZERO PUSH2 0x1196 JUMPI DUP1 PUSH1 0x1F LT PUSH2 0x116B JUMPI PUSH2 0x100 DUP1 DUP4 SLOAD DIV MUL DUP4 MSTORE SWAP2 PUSH1 0x20 ADD SWAP2 PUSH2 0x1196 JUMP JUMPDEST DUP3 ADD SWAP2 SWAP1 PUSH1 0x0 MSTORE PUSH1 0x20 PUSH1 0x0 KECCAK256 SWAP1 JUMPDEST DUP2 SLOAD DUP2 MSTORE SWAP1 PUSH1 0x1 ADD SWAP1 PUSH1 0x20 ADD DUP1 DUP4 GT PUSH2 0x1179 JUMPI DUP3 SWAP1 SUB PUSH1 0x1F AND DUP3 ADD SWAP2 JUMPDEST POP POP POP POP POP DUP2 MSTORE PUSH1 0x20 ADD PUSH1 0x3 DUP3 ADD PUSH1 0x0 SWAP1 SLOAD SWAP1 PUSH2 0x100 EXP SWAP1 DIV PUSH20 0xFFFFFFFFFFFFFFFFFFFFFFFFFFFFFFFFFFFFFFFF AND PUSH20 0xFFFFFFFFFFFFFFFFFFFFFFFFFFFFFFFFFFFFFFFF AND PUSH20 0xFFFFFFFFFFFFFFFFFFFFFFFFFFFFFFFFFFFFFFFF AND DUP2 MSTORE PUSH1 0x20 ADD PUSH1 0x4 DUP3 ADD PUSH1 0x0 SWAP1 SLOAD SWAP1 PUSH2 0x100 EXP SWAP1 DIV PUSH20 0xFFFFFFFFFFFFFFFFFFFFFFFFFFFFFFFFFFFFFFFF AND PUSH20 0xFFFFFFFFFFFFFFFFFFFFFFFFFFFFFFFFFFFFFFFF AND PUSH20 0xFFFFFFFFFFFFFFFFFFFFFFFFFFFFFFFFFFFFFFFF AND DUP2 MSTORE PUSH1 0x20 ADD PUSH1 0x4 DUP3 ADD PUSH1 0x14 SWAP1 SLOAD SWAP1 PUSH2 0x100 EXP SWAP1 DIV PUSH1 0xFF AND PUSH1 0x2 DUP2 GT ISZERO PUSH2 0x1270 JUMPI PUSH2 0x126F PUSH2 0x27CE JUMP JUMPDEST JUMPDEST PUSH1 0x2 DUP2 GT ISZERO PUSH2 0x1282 JUMPI PUSH2 0x1281 PUSH2 0x27CE JUMP JUMPDEST JUMPDEST DUP2 MSTORE POP POP SWAP1 POP CALLER PUSH20 0xFFFFFFFFFFFFFFFFFFFFFFFFFFFFFFFFFFFFFFFF AND DUP2 PUSH1 0x80 ADD MLOAD PUSH20 0xFFFFFFFFFFFFFFFFFFFFFFFFFFFFFFFFFFFFFFFF AND SUB PUSH2 0x12ED JUMPI DUP1 DUP6 DUP6 DUP2 MLOAD DUP2 LT PUSH2 0x12D3 JUMPI PUSH2 0x12D2 PUSH2 0x328F JUMP JUMPDEST JUMPDEST PUSH1 0x20 MUL PUSH1 0x20 ADD ADD DUP2 SWAP1 MSTORE POP DUP4 DUP1 PUSH2 0x12E9 SWAP1 PUSH2 0x3340 JUMP JUMPDEST SWAP5 POP POP JUMPDEST POP POP DUP1 DUP1 PUSH1 0x1 ADD SWAP2 POP POP PUSH2 0xF06 JUMP JUMPDEST POP DUP1 DUP3 MSTORE DUP2 SWAP3 POP POP POP SWAP1 JUMP JUMPDEST PUSH2 0x1310 PUSH2 0x23DA JUMP JUMPDEST PUSH1 0x0 DUP1 CALLER PUSH20 0xFFFFFFFFFFFFFFFFFFFFFFFFFFFFFFFFFFFFFFFF AND PUSH20 0xFFFFFFFFFFFFFFFFFFFFFFFFFFFFFFFFFFFFFFFF AND DUP2 MSTORE PUSH1 0x20 ADD SWAP1 DUP2 MSTORE PUSH1 0x20 ADD PUSH1 0x0 KECCAK256 PUSH1 0x40 MLOAD DUP1 PUSH1 0x80 ADD PUSH1 0x40 MSTORE SWAP1 DUP2 PUSH1 0x0 DUP3 ADD PUSH1 0x0 SWAP1 SLOAD SWAP1 PUSH2 0x100 EXP SWAP1 DIV PUSH20 0xFFFFFFFFFFFFFFFFFFFFFFFFFFFFFFFFFFFFFFFF AND PUSH20 0xFFFFFFFFFFFFFFFFFFFFFFFFFFFFFFFFFFFFFFFF AND PUSH20 0xFFFFFFFFFFFFFFFFFFFFFFFFFFFFFFFFFFFFFFFF AND DUP2 MSTORE PUSH1 0x20 ADD PUSH1 0x1 DUP3 ADD DUP1 SLOAD PUSH2 0x13BF SWAP1 PUSH2 0x2FE0 JUMP JUMPDEST DUP1 PUSH1 0x1F ADD PUSH1 0x20 DUP1 SWAP2 DIV MUL PUSH1 0x20 ADD PUSH1 0x40 MLOAD SWAP1 DUP2 ADD PUSH1 0x40 MSTORE DUP1 SWAP3 SWAP2 SWAP1 DUP2 DUP2 MSTORE PUSH1 0x20 ADD DUP3 DUP1 SLOAD PUSH2 0x13EB SWAP1 PUSH2 0x2FE0 JUMP JUMPDEST DUP1 ISZERO PUSH2 0x1438 JUMPI DUP1 PUSH1 0x1F LT PUSH2 0x140D JUMPI PUSH2 0x100 DUP1 DUP4 SLOAD DIV MUL DUP4 MSTORE SWAP2 PUSH1 0x20 ADD SWAP2 PUSH2 0x1438 JUMP JUMPDEST DUP3 ADD SWAP2 SWAP1 PUSH1 0x0 MSTORE PUSH1 0x20 PUSH1 0x0 KECCAK256 SWAP1 JUMPDEST DUP2 SLOAD DUP2 MSTORE SWAP1 PUSH1 0x1 ADD SWAP1 PUSH1 0x20 ADD DUP1 DUP4 GT PUSH2 0x141B JUMPI DUP3 SWAP1 SUB PUSH1 0x1F AND DUP3 ADD SWAP2 JUMPDEST POP POP POP POP POP DUP2 MSTORE PUSH1 0x20 ADD PUSH1 0x2 DUP3 ADD DUP1 SLOAD PUSH2 0x1451 SWAP1 PUSH2 0x2FE0 JUMP JUMPDEST DUP1 PUSH1 0x1F ADD PUSH1 0x20 DUP1 SWAP2 DIV MUL PUSH1 0x20 ADD PUSH1 0x40 MLOAD SWAP1 DUP2 ADD PUSH1 0x40 MSTORE DUP1 SWAP3 SWAP2 SWAP1 DUP2 DUP2 MSTORE PUSH1 0x20 ADD DUP3 DUP1 SLOAD PUSH2 0x147D SWAP1 PUSH2 0x2FE0 JUMP JUMPDEST DUP1 ISZERO PUSH2 0x14CA JUMPI DUP1 PUSH1 0x1F LT PUSH2 0x149F JUMPI PUSH2 0x100 DUP1 DUP4 SLOAD DIV MUL DUP4 MSTORE SWAP2 PUSH1 0x20 ADD SWAP2 PUSH2 0x14CA JUMP JUMPDEST DUP3 ADD SWAP2 SWAP1 PUSH1 0x0 MSTORE PUSH1 0x20 PUSH1 0x0 KECCAK256 SWAP1 JUMPDEST DUP2 SLOAD DUP2 MSTORE SWAP1 PUSH1 0x1 ADD SWAP1 PUSH1 0x20 ADD DUP1 DUP4 GT PUSH2 0x14AD JUMPI DUP3 SWAP1 SUB PUSH1 0x1F AND DUP3 ADD SWAP2 JUMPDEST POP POP POP POP POP DUP2 MSTORE PUSH1 0x20 ADD PUSH1 0x3 DUP3 ADD DUP1 SLOAD PUSH2 0x14E3 SWAP1 PUSH2 0x2FE0 JUMP JUMPDEST DUP1 PUSH1 0x1F ADD PUSH1 0x20 DUP1 SWAP2 DIV MUL PUSH1 0x20 ADD PUSH1 0x40 MLOAD SWAP1 DUP2 ADD PUSH1 0x40 MSTORE DUP1 SWAP3 SWAP2 SWAP1 DUP2 DUP2 MSTORE PUSH1 0x20 ADD DUP3 DUP1 SLOAD PUSH2 0x150F SWAP1 PUSH2 0x2FE0 JUMP JUMPDEST DUP1 ISZERO PUSH2 0x155C JUMPI DUP1 PUSH1 0x1F LT PUSH2 0x1531 JUMPI PUSH2 0x100 DUP1 DUP4 SLOAD DIV MUL DUP4 MSTORE SWAP2 PUSH1 0x20 ADD SWAP2 PUSH2 0x155C JUMP JUMPDEST DUP3 ADD SWAP2 SWAP1 PUSH1 0x0 MSTORE PUSH1 0x20 PUSH1 0x0 KECCAK256 SWAP1 JUMPDEST DUP2 SLOAD DUP2 MSTORE SWAP1 PUSH1 0x1 ADD SWAP1 PUSH1 0x20 ADD DUP1 DUP4 GT PUSH2 0x153F JUMPI DUP3 SWAP1 SUB PUSH1 0x1F AND DUP3 ADD SWAP2 JUMPDEST POP POP POP POP POP DUP2 MSTORE POP POP SWAP1 POP SWAP1 JUMP JUMPDEST PUSH2 0x1572 PUSH2 0x2418 JUMP JUMPDEST PUSH1 0x2 PUSH1 0x0 DUP4 PUSH20 0xFFFFFFFFFFFFFFFFFFFFFFFFFFFFFFFFFFFFFFFF AND PUSH20 0xFFFFFFFFFFFFFFFFFFFFFFFFFFFFFFFFFFFFFFFF AND DUP2 MSTORE PUSH1 0x20 ADD SWAP1 DUP2 MSTORE PUSH1 0x20 ADD PUSH1 0x0 KECCAK256 PUSH1 0x40 MLOAD DUP1 PUSH1 0xC0 ADD PUSH1 0x40 MSTORE SWAP1 DUP2 PUSH1 0x0 DUP3 ADD PUSH1 0x0 SWAP1 SLOAD SWAP1 PUSH2 0x100 EXP SWAP1 DIV PUSH20 0xFFFFFFFFFFFFFFFFFFFFFFFFFFFFFFFFFFFFFFFF AND PUSH20 0xFFFFFFFFFFFFFFFFFFFFFFFFFFFFFFFFFFFFFFFF AND PUSH20 0xFFFFFFFFFFFFFFFFFFFFFFFFFFFFFFFFFFFFFFFF AND DUP2 MSTORE PUSH1 0x20 ADD PUSH1 0x1 DUP3 ADD DUP1 SLOAD PUSH2 0x1622 SWAP1 PUSH2 0x2FE0 JUMP JUMPDEST DUP1 PUSH1 0x1F ADD PUSH1 0x20 DUP1 SWAP2 DIV MUL PUSH1 0x20 ADD PUSH1 0x40 MLOAD SWAP1 DUP2 ADD PUSH1 0x40 MSTORE DUP1 SWAP3 SWAP2 SWAP1 DUP2 DUP2 MSTORE PUSH1 0x20 ADD DUP3 DUP1 SLOAD PUSH2 0x164E SWAP1 PUSH2 0x2FE0 JUMP JUMPDEST DUP1 ISZERO PUSH2 0x169B JUMPI DUP1 PUSH1 0x1F LT PUSH2 0x1670 JUMPI PUSH2 0x100 DUP1 DUP4 SLOAD DIV MUL DUP4 MSTORE SWAP2 PUSH1 0x20 ADD SWAP2 PUSH2 0x169B JUMP JUMPDEST DUP3 ADD SWAP2 SWAP1 PUSH1 0x0 MSTORE PUSH1 0x20 PUSH1 0x0 KECCAK256 SWAP1 JUMPDEST DUP2 SLOAD DUP2 MSTORE SWAP1 PUSH1 0x1 ADD SWAP1 PUSH1 0x20 ADD DUP1 DUP4 GT PUSH2 0x167E JUMPI DUP3 SWAP1 SUB PUSH1 0x1F AND DUP3 ADD SWAP2 JUMPDEST POP POP POP POP POP DUP2 MSTORE PUSH1 0x20 ADD PUSH1 0x2 DUP3 ADD DUP1 SLOAD PUSH2 0x16B4 SWAP1 PUSH2 0x2FE0 JUMP JUMPDEST DUP1 PUSH1 0x1F ADD PUSH1 0x20 DUP1 SWAP2 DIV MUL PUSH1 0x20 ADD PUSH1 0x40 MLOAD SWAP1 DUP2 ADD PUSH1 0x40 MSTORE DUP1 SWAP3 SWAP2 SWAP1 DUP2 DUP2 MSTORE PUSH1 0x20 ADD DUP3 DUP1 SLOAD PUSH2 0x16E0 SWAP1 PUSH2 0x2FE0 JUMP JUMPDEST DUP1 ISZERO PUSH2 0x172D JUMPI DUP1 PUSH1 0x1F LT PUSH2 0x1702 JUMPI PUSH2 0x100 DUP1 DUP4 SLOAD DIV MUL DUP4 MSTORE SWAP2 PUSH1 0x20 ADD SWAP2 PUSH2 0x172D JUMP JUMPDEST DUP3 ADD SWAP2 SWAP1 PUSH1 0x0 MSTORE PUSH1 0x20 PUSH1 0x0 KECCAK256 SWAP1 JUMPDEST DUP2 SLOAD DUP2 MSTORE SWAP1 PUSH1 0x1 ADD SWAP1 PUSH1 0x20 ADD DUP1 DUP4 GT PUSH2 0x1710 JUMPI DUP3 SWAP1 SUB PUSH1 0x1F AND DUP3 ADD SWAP2 JUMPDEST POP POP POP POP POP DUP2 MSTORE PUSH1 0x20 ADD PUSH1 0x3 DUP3 ADD DUP1 SLOAD PUSH2 0x1746 SWAP1 PUSH2 0x2FE0 JUMP JUMPDEST DUP1 PUSH1 0x1F ADD PUSH1 0x20 DUP1 SWAP2 DIV MUL PUSH1 0x20 ADD PUSH1 0x40 MLOAD SWAP1 DUP2 ADD PUSH1 0x40 MSTORE DUP1 SWAP3 SWAP2 SWAP1 DUP2 DUP2 MSTORE PUSH1 0x20 ADD DUP3 DUP1 SLOAD PUSH2 0x1772 SWAP1 PUSH2 0x2FE0 JUMP JUMPDEST DUP1 ISZERO PUSH2 0x17BF JUMPI DUP1 PUSH1 0x1F LT PUSH2 0x1794 JUMPI PUSH2 0x100 DUP1 DUP4 SLOAD DIV MUL DUP4 MSTORE SWAP2 PUSH1 0x20 ADD SWAP2 PUSH2 0x17BF JUMP JUMPDEST DUP3 ADD SWAP2 SWAP1 PUSH1 0x0 MSTORE PUSH1 0x20 PUSH1 0x0 KECCAK256 SWAP1 JUMPDEST DUP2 SLOAD DUP2 MSTORE SWAP1 PUSH1 0x1 ADD SWAP1 PUSH1 0x20 ADD DUP1 DUP4 GT PUSH2 0x17A2 JUMPI DUP3 SWAP1 SUB PUSH1 0x1F AND DUP3 ADD SWAP2 JUMPDEST POP POP POP POP POP DUP2 MSTORE PUSH1 0x20 ADD PUSH1 0x4 DUP3 ADD DUP1 SLOAD PUSH2 0x17D8 SWAP1 PUSH2 0x2FE0 JUMP JUMPDEST DUP1 PUSH1 0x1F ADD PUSH1 0x20 DUP1 SWAP2 DIV MUL PUSH1 0x20 ADD PUSH1 0x40 MLOAD SWAP1 DUP2 ADD PUSH1 0x40 MSTORE DUP1 SWAP3 SWAP2 SWAP1 DUP2 DUP2 MSTORE PUSH1 0x20 ADD DUP3 DUP1 SLOAD PUSH2 0x1804 SWAP1 PUSH2 0x2FE0 JUMP JUMPDEST DUP1 ISZERO PUSH2 0x1851 JUMPI DUP1 PUSH1 0x1F LT PUSH2 0x1826 JUMPI PUSH2 0x100 DUP1 DUP4 SLOAD DIV MUL DUP4 MSTORE SWAP2 PUSH1 0x20 ADD SWAP2 PUSH2 0x1851 JUMP JUMPDEST DUP3 ADD SWAP2 SWAP1 PUSH1 0x0 MSTORE PUSH1 0x20 PUSH1 0x0 KECCAK256 SWAP1 JUMPDEST DUP2 SLOAD DUP2 MSTORE SWAP1 PUSH1 0x1 ADD SWAP1 PUSH1 0x20 ADD DUP1 DUP4 GT PUSH2 0x1834 JUMPI DUP3 SWAP1 SUB PUSH1 0x1F AND DUP3 ADD SWAP2 JUMPDEST POP POP POP POP POP DUP2 MSTORE PUSH1 0x20 ADD PUSH1 0x5 DUP3 ADD DUP1 SLOAD PUSH2 0x186A SWAP1 PUSH2 0x2FE0 JUMP JUMPDEST DUP1 PUSH1 0x1F ADD PUSH1 0x20 DUP1 SWAP2 DIV MUL PUSH1 0x20 ADD PUSH1 0x40 MLOAD SWAP1 DUP2 ADD PUSH1 0x40 MSTORE DUP1 SWAP3 SWAP2 SWAP1 DUP2 DUP2 MSTORE PUSH1 0x20 ADD DUP3 DUP1 SLOAD PUSH2 0x1896 SWAP1 PUSH2 0x2FE0 JUMP JUMPDEST DUP1 ISZERO PUSH2 0x18E3 JUMPI DUP1 PUSH1 0x1F LT PUSH2 0x18B8 JUMPI PUSH2 0x100 DUP1 DUP4 SLOAD DIV MUL DUP4 MSTORE SWAP2 PUSH1 0x20 ADD SWAP2 PUSH2 0x18E3 JUMP JUMPDEST DUP3 ADD SWAP2 SWAP1 PUSH1 0x0 MSTORE PUSH1 0x20 PUSH1 0x0 KECCAK256 SWAP1 JUMPDEST DUP2 SLOAD DUP2 MSTORE SWAP1 PUSH1 0x1 ADD SWAP1 PUSH1 0x20 ADD DUP1 DUP4 GT PUSH2 0x18C6 JUMPI DUP3 SWAP1 SUB PUSH1 0x1F AND DUP3 ADD SWAP2 JUMPDEST POP POP POP POP POP DUP2 MSTORE POP POP SWAP1 POP SWAP2 SWAP1 POP JUMP JUMPDEST PUSH2 0x18FB PUSH2 0x2326 JUMP JUMPDEST PUSH2 0x1904 DUP3 PUSH2 0x2116 JUMP JUMPDEST PUSH2 0x1943 JUMPI PUSH1 0x40 MLOAD PUSH32 0x8C379A000000000000000000000000000000000000000000000000000000000 DUP2 MSTORE PUSH1 0x4 ADD PUSH2 0x193A SWAP1 PUSH2 0x3440 JUMP JUMPDEST PUSH1 0x40 MLOAD DUP1 SWAP2 SUB SWAP1 REVERT JUMPDEST PUSH1 0x1 DUP3 PUSH1 0x40 MLOAD PUSH2 0x1953 SWAP2 SWAP1 PUSH2 0x32FA JUMP JUMPDEST SWAP1 DUP2 MSTORE PUSH1 0x20 ADD PUSH1 0x40 MLOAD DUP1 SWAP2 SUB SWAP1 KECCAK256 PUSH1 0x40 MLOAD DUP1 PUSH1 0xC0 ADD PUSH1 0x40 MSTORE SWAP1 DUP2 PUSH1 0x0 DUP3 ADD DUP1 SLOAD PUSH2 0x197C SWAP1 PUSH2 0x2FE0 JUMP JUMPDEST DUP1 PUSH1 0x1F ADD PUSH1 0x20 DUP1 SWAP2 DIV MUL PUSH1 0x20 ADD PUSH1 0x40 MLOAD SWAP1 DUP2 ADD PUSH1 0x40 MSTORE DUP1 SWAP3 SWAP2 SWAP1 DUP2 DUP2 MSTORE PUSH1 0x20 ADD DUP3 DUP1 SLOAD PUSH2 0x19A8 SWAP1 PUSH2 0x2FE0 JUMP JUMPDEST DUP1 ISZERO PUSH2 0x19F5 JUMPI DUP1 PUSH1 0x1F LT PUSH2 0x19CA JUMPI PUSH2 0x100 DUP1 DUP4 SLOAD DIV MUL DUP4 MSTORE SWAP2 PUSH1 0x20 ADD SWAP2 PUSH2 0x19F5 JUMP JUMPDEST DUP3 ADD SWAP2 SWAP1 PUSH1 0x0 MSTORE PUSH1 0x20 PUSH1 0x0 KECCAK256 SWAP1 JUMPDEST DUP2 SLOAD DUP2 MSTORE SWAP1 PUSH1 0x1 ADD SWAP1 PUSH1 0x20 ADD DUP1 DUP4 GT PUSH2 0x19D8 JUMPI DUP3 SWAP1 SUB PUSH1 0x1F AND DUP3 ADD SWAP2 JUMPDEST POP POP POP POP POP DUP2 MSTORE PUSH1 0x20 ADD PUSH1 0x1 DUP3 ADD DUP1 SLOAD PUSH2 0x1A0E SWAP1 PUSH2 0x2FE0 JUMP JUMPDEST DUP1 PUSH1 0x1F ADD PUSH1 0x20 DUP1 SWAP2 DIV MUL PUSH1 0x20 ADD PUSH1 0x40 MLOAD SWAP1 DUP2 ADD PUSH1 0x40 MSTORE DUP1 SWAP3 SWAP2 SWAP1 DUP2 DUP2 MSTORE PUSH1 0x20 ADD DUP3 DUP1 SLOAD PUSH2 0x1A3A SWAP1 PUSH2 0x2FE0 JUMP JUMPDEST DUP1 ISZERO PUSH2 0x1A87 JUMPI DUP1 PUSH1 0x1F LT PUSH2 0x1A5C JUMPI PUSH2 0x100 DUP1 DUP4 SLOAD DIV MUL DUP4 MSTORE SWAP2 PUSH1 0x20 ADD SWAP2 PUSH2 0x1A87 JUMP JUMPDEST DUP3 ADD SWAP2 SWAP1 PUSH1 0x0 MSTORE PUSH1 0x20 PUSH1 0x0 KECCAK256 SWAP1 JUMPDEST DUP2 SLOAD DUP2 MSTORE SWAP1 PUSH1 0x1 ADD SWAP1 PUSH1 0x20 ADD DUP1 DUP4 GT PUSH2 0x1A6A JUMPI DUP3 SWAP1 SUB PUSH1 0x1F AND DUP3 ADD SWAP2 JUMPDEST POP POP POP POP POP DUP2 MSTORE PUSH1 0x20 ADD PUSH1 0x2 DUP3 ADD DUP1 SLOAD PUSH2 0x1AA0 SWAP1 PUSH2 0x2FE0 JUMP JUMPDEST DUP1 PUSH1 0x1F ADD PUSH1 0x20 DUP1 SWAP2 DIV MUL PUSH1 0x20 ADD PUSH1 0x40 MLOAD SWAP1 DUP2 ADD PUSH1 0x40 MSTORE DUP1 SWAP3 SWAP2 SWAP1 DUP2 DUP2 MSTORE PUSH1 0x20 ADD DUP3 DUP1 SLOAD PUSH2 0x1ACC SWAP1 PUSH2 0x2FE0 JUMP JUMPDEST DUP1 ISZERO PUSH2 0x1B19 JUMPI DUP1 PUSH1 0x1F LT PUSH2 0x1AEE JUMPI PUSH2 0x100 DUP1 DUP4 SLOAD DIV MUL DUP4 MSTORE SWAP2 PUSH1 0x20 ADD SWAP2 PUSH2 0x1B19 JUMP JUMPDEST DUP3 ADD SWAP2 SWAP1 PUSH1 0x0 MSTORE PUSH1 0x20 PUSH1 0x0 KECCAK256 SWAP1 JUMPDEST DUP2 SLOAD DUP2 MSTORE SWAP1 PUSH1 0x1 ADD SWAP1 PUSH1 0x20 ADD DUP1 DUP4 GT PUSH2 0x1AFC JUMPI DUP3 SWAP1 SUB PUSH1 0x1F AND DUP3 ADD SWAP2 JUMPDEST POP POP POP POP POP DUP2 MSTORE PUSH1 0x20 ADD PUSH1 0x3 DUP3 ADD PUSH1 0x0 SWAP1 SLOAD SWAP1 PUSH2 0x100 EXP SWAP1 DIV PUSH20 0xFFFFFFFFFFFFFFFFFFFFFFFFFFFFFFFFFFFFFFFF AND PUSH20 0xFFFFFFFFFFFFFFFFFFFFFFFFFFFFFFFFFFFFFFFF AND PUSH20 0xFFFFFFFFFFFFFFFFFFFFFFFFFFFFFFFFFFFFFFFF AND DUP2 MSTORE PUSH1 0x20 ADD PUSH1 0x4 DUP3 ADD PUSH1 0x0 SWAP1 SLOAD SWAP1 PUSH2 0x100 EXP SWAP1 DIV PUSH20 0xFFFFFFFFFFFFFFFFFFFFFFFFFFFFFFFFFFFFFFFF AND PUSH20 0xFFFFFFFFFFFFFFFFFFFFFFFFFFFFFFFFFFFFFFFF AND PUSH20 0xFFFFFFFFFFFFFFFFFFFFFFFFFFFFFFFFFFFFFFFF AND DUP2 MSTORE PUSH1 0x20 ADD PUSH1 0x4 DUP3 ADD PUSH1 0x14 SWAP1 SLOAD SWAP1 PUSH2 0x100 EXP SWAP1 DIV PUSH1 0xFF AND PUSH1 0x2 DUP2 GT ISZERO PUSH2 0x1BF3 JUMPI PUSH2 0x1BF2 PUSH2 0x27CE JUMP JUMPDEST JUMPDEST PUSH1 0x2 DUP2 GT ISZERO PUSH2 0x1C05 JUMPI PUSH2 0x1C04 PUSH2 0x27CE JUMP JUMPDEST JUMPDEST DUP2 MSTORE POP POP SWAP1 POP SWAP2 SWAP1 POP JUMP JUMPDEST PUSH1 0x0 PUSH20 0xFFFFFFFFFFFFFFFFFFFFFFFFFFFFFFFFFFFFFFFF AND PUSH1 0x0 DUP1 CALLER PUSH20 0xFFFFFFFFFFFFFFFFFFFFFFFFFFFFFFFFFFFFFFFF AND PUSH20 0xFFFFFFFFFFFFFFFFFFFFFFFFFFFFFFFFFFFFFFFF AND DUP2 MSTORE PUSH1 0x20 ADD SWAP1 DUP2 MSTORE PUSH1 0x20 ADD PUSH1 0x0 KECCAK256 PUSH1 0x0 ADD PUSH1 0x0 SWAP1 SLOAD SWAP1 PUSH2 0x100 EXP SWAP1 DIV PUSH20 0xFFFFFFFFFFFFFFFFFFFFFFFFFFFFFFFFFFFFFFFF AND PUSH20 0xFFFFFFFFFFFFFFFFFFFFFFFFFFFFFFFFFFFFFFFF AND SUB PUSH2 0x1CE0 JUMPI PUSH1 0x40 MLOAD PUSH32 0x8C379A000000000000000000000000000000000000000000000000000000000 DUP2 MSTORE PUSH1 0x4 ADD PUSH2 0x1CD7 SWAP1 PUSH2 0x35F0 JUMP JUMPDEST PUSH1 0x40 MLOAD DUP1 SWAP2 SUB SWAP1 REVERT JUMPDEST PUSH2 0x1CE9 DUP6 PUSH2 0x2116 JUMP JUMPDEST ISZERO PUSH2 0x1D29 JUMPI PUSH1 0x40 MLOAD PUSH32 0x8C379A000000000000000000000000000000000000000000000000000000000 DUP2 MSTORE PUSH1 0x4 ADD PUSH2 0x1D20 SWAP1 PUSH2 0x365C JUMP JUMPDEST PUSH1 0x40 MLOAD DUP1 SWAP2 SUB SWAP1 REVERT JUMPDEST PUSH1 0x3 DUP6 SWAP1 DUP1 PUSH1 0x1 DUP2 SLOAD ADD DUP1 DUP3 SSTORE DUP1 SWAP2 POP POP PUSH1 0x1 SWAP1 SUB SWAP1 PUSH1 0x0 MSTORE PUSH1 0x20 PUSH1 0x0 KECCAK256 ADD PUSH1 0x0 SWAP1 SWAP2 SWAP1 SWAP2 SWAP1 SWAP2 POP SWAP1 DUP2 PUSH2 0x1D5D SWAP2 SWAP1 PUSH2 0x31BD JUMP JUMPDEST POP PUSH1 0x40 MLOAD DUP1 PUSH1 0xC0 ADD PUSH1 0x40 MSTORE DUP1 DUP7 DUP2 MSTORE PUSH1 0x20 ADD DUP6 DUP2 MSTORE PUSH1 0x20 ADD DUP5 DUP2 MSTORE PUSH1 0x20 ADD DUP4 PUSH20 0xFFFFFFFFFFFFFFFFFFFFFFFFFFFFFFFFFFFFFFFF AND DUP2 MSTORE PUSH1 0x20 ADD DUP3 PUSH20 0xFFFFFFFFFFFFFFFFFFFFFFFFFFFFFFFFFFFFFFFF AND DUP2 MSTORE PUSH1 0x20 ADD PUSH1 0x0 PUSH1 0x2 DUP2 GT ISZERO PUSH2 0x1DC7 JUMPI PUSH2 0x1DC6 PUSH2 0x27CE JUMP JUMPDEST JUMPDEST DUP2 MSTORE POP PUSH1 0x1 DUP7 PUSH1 0x40 MLOAD PUSH2 0x1DDA SWAP2 SWAP1 PUSH2 0x32FA JUMP JUMPDEST SWAP1 DUP2 MSTORE PUSH1 0x20 ADD PUSH1 0x40 MLOAD DUP1 SWAP2 SUB SWAP1 KECCAK256 PUSH1 0x0 DUP3 ADD MLOAD DUP2 PUSH1 0x0 ADD SWAP1 DUP2 PUSH2 0x1DFD SWAP2 SWAP1 PUSH2 0x31BD JUMP JUMPDEST POP PUSH1 0x20 DUP3 ADD MLOAD DUP2 PUSH1 0x1 ADD SWAP1 DUP2 PUSH2 0x1E13 SWAP2 SWAP1 PUSH2 0x31BD JUMP JUMPDEST POP PUSH1 0x40 DUP3 ADD MLOAD DUP2 PUSH1 0x2 ADD SWAP1 DUP2 PUSH2 0x1E29 SWAP2 SWAP1 PUSH2 0x31BD JUMP JUMPDEST POP PUSH1 0x60 DUP3 ADD MLOAD DUP2 PUSH1 0x3 ADD PUSH1 0x0 PUSH2 0x100 EXP DUP2 SLOAD DUP2 PUSH20 0xFFFFFFFFFFFFFFFFFFFFFFFFFFFFFFFFFFFFFFFF MUL NOT AND SWAP1 DUP4 PUSH20 0xFFFFFFFFFFFFFFFFFFFFFFFFFFFFFFFFFFFFFFFF AND MUL OR SWAP1 SSTORE POP PUSH1 0x80 DUP3 ADD MLOAD DUP2 PUSH1 0x4 ADD PUSH1 0x0 PUSH2 0x100 EXP DUP2 SLOAD DUP2 PUSH20 0xFFFFFFFFFFFFFFFFFFFFFFFFFFFFFFFFFFFFFFFF MUL NOT AND SWAP1 DUP4 PUSH20 0xFFFFFFFFFFFFFFFFFFFFFFFFFFFFFFFFFFFFFFFF AND MUL OR SWAP1 SSTORE POP PUSH1 0xA0 DUP3 ADD MLOAD DUP2 PUSH1 0x4 ADD PUSH1 0x14 PUSH2 0x100 EXP DUP2 SLOAD DUP2 PUSH1 0xFF MUL NOT AND SWAP1 DUP4 PUSH1 0x2 DUP2 GT ISZERO PUSH2 0x1EE3 JUMPI PUSH2 0x1EE2 PUSH2 0x27CE JUMP JUMPDEST JUMPDEST MUL OR SWAP1 SSTORE POP SWAP1 POP POP POP POP POP POP POP JUMP JUMPDEST PUSH1 0x0 DUP1 PUSH20 0xFFFFFFFFFFFFFFFFFFFFFFFFFFFFFFFFFFFFFFFF AND PUSH1 0x0 DUP1 CALLER PUSH20 0xFFFFFFFFFFFFFFFFFFFFFFFFFFFFFFFFFFFFFFFF AND PUSH20 0xFFFFFFFFFFFFFFFFFFFFFFFFFFFFFFFFFFFFFFFF AND DUP2 MSTORE PUSH1 0x20 ADD SWAP1 DUP2 MSTORE PUSH1 0x20 ADD PUSH1 0x0 KECCAK256 PUSH1 0x0 ADD PUSH1 0x0 SWAP1 SLOAD SWAP1 PUSH2 0x100 EXP SWAP1 DIV PUSH20 0xFFFFFFFFFFFFFFFFFFFFFFFFFFFFFFFFFFFFFFFF AND PUSH20 0xFFFFFFFFFFFFFFFFFFFFFFFFFFFFFFFFFFFFFFFF AND EQ ISZERO SWAP1 POP SWAP1 JUMP JUMPDEST PUSH2 0x1F93 DUP3 PUSH2 0x2116 JUMP JUMPDEST PUSH2 0x1FD2 JUMPI PUSH1 0x40 MLOAD PUSH32 0x8C379A000000000000000000000000000000000000000000000000000000000 DUP2 MSTORE PUSH1 0x4 ADD PUSH2 0x1FC9 SWAP1 PUSH2 0x3440 JUMP JUMPDEST PUSH1 0x40 MLOAD DUP1 SWAP2 SUB SWAP1 REVERT JUMPDEST PUSH2 0x1FDB CALLER PUSH2 0x9FE JUMP JUMPDEST PUSH2 0x201A JUMPI PUSH1 0x40 MLOAD PUSH32 0x8C379A000000000000000000000000000000000000000000000000000000000 DUP2 MSTORE PUSH1 0x4 ADD PUSH2 0x2011 SWAP1 PUSH2 0x36C8 JUMP JUMPDEST PUSH1 0x40 MLOAD DUP1 SWAP2 SUB SWAP1 REVERT JUMPDEST CALLER PUSH20 0xFFFFFFFFFFFFFFFFFFFFFFFFFFFFFFFFFFFFFFFF AND PUSH1 0x1 DUP4 PUSH1 0x40 MLOAD PUSH2 0x2041 SWAP2 SWAP1 PUSH2 0x32FA JUMP JUMPDEST SWAP1 DUP2 MSTORE PUSH1 0x20 ADD PUSH1 0x40 MLOAD DUP1 SWAP2 SUB SWAP1 KECCAK256 PUSH1 0x3 ADD PUSH1 0x0 SWAP1 SLOAD SWAP1 PUSH2 0x100 EXP SWAP1 DIV PUSH20 0xFFFFFFFFFFFFFFFFFFFFFFFFFFFFFFFFFFFFFFFF AND PUSH20 0xFFFFFFFFFFFFFFFFFFFFFFFFFFFFFFFFFFFFFFFF AND EQ PUSH2 0x20C9 JUMPI PUSH1 0x40 MLOAD PUSH32 0x8C379A000000000000000000000000000000000000000000000000000000000 DUP2 MSTORE PUSH1 0x4 ADD PUSH2 0x20C0 SWAP1 PUSH2 0x3734 JUMP JUMPDEST PUSH1 0x40 MLOAD DUP1 SWAP2 SUB SWAP1 REVERT JUMPDEST DUP1 PUSH1 0x1 DUP4 PUSH1 0x40 MLOAD PUSH2 0x20DA SWAP2 SWAP1 PUSH2 0x32FA JUMP JUMPDEST SWAP1 DUP2 MSTORE PUSH1 0x20 ADD PUSH1 0x40 MLOAD DUP1 SWAP2 SUB SWAP1 KECCAK256 PUSH1 0x4 ADD PUSH1 0x14 PUSH2 0x100 EXP DUP2 SLOAD DUP2 PUSH1 0xFF MUL NOT AND SWAP1 DUP4 PUSH1 0x2 DUP2 GT ISZERO PUSH2 0x210D JUMPI PUSH2 0x210C PUSH2 0x27CE JUMP JUMPDEST JUMPDEST MUL OR SWAP1 SSTORE POP POP POP JUMP JUMPDEST PUSH1 0x0 DUP1 PUSH1 0x1 DUP4 PUSH1 0x40 MLOAD PUSH2 0x2129 SWAP2 SWAP1 PUSH2 0x32FA JUMP JUMPDEST SWAP1 DUP2 MSTORE PUSH1 0x20 ADD PUSH1 0x40 MLOAD DUP1 SWAP2 SUB SWAP1 KECCAK256 PUSH1 0x0 ADD DUP1 SLOAD PUSH2 0x2145 SWAP1 PUSH2 0x2FE0 JUMP JUMPDEST SWAP1 POP EQ ISZERO SWAP1 POP SWAP2 SWAP1 POP JUMP JUMPDEST PUSH1 0x0 PUSH20 0xFFFFFFFFFFFFFFFFFFFFFFFFFFFFFFFFFFFFFFFF AND PUSH1 0x0 DUP1 CALLER PUSH20 0xFFFFFFFFFFFFFFFFFFFFFFFFFFFFFFFFFFFFFFFF AND PUSH20 0xFFFFFFFFFFFFFFFFFFFFFFFFFFFFFFFFFFFFFFFF AND DUP2 MSTORE PUSH1 0x20 ADD SWAP1 DUP2 MSTORE PUSH1 0x20 ADD PUSH1 0x0 KECCAK256 PUSH1 0x0 ADD PUSH1 0x0 SWAP1 SLOAD SWAP1 PUSH2 0x100 EXP SWAP1 DIV PUSH20 0xFFFFFFFFFFFFFFFFFFFFFFFFFFFFFFFFFFFFFFFF AND PUSH20 0xFFFFFFFFFFFFFFFFFFFFFFFFFFFFFFFFFFFFFFFF AND EQ PUSH2 0x2220 JUMPI PUSH1 0x40 MLOAD PUSH32 0x8C379A000000000000000000000000000000000000000000000000000000000 DUP2 MSTORE PUSH1 0x4 ADD PUSH2 0x2217 SWAP1 PUSH2 0x37A0 JUMP JUMPDEST PUSH1 0x40 MLOAD DUP1 SWAP2 SUB SWAP1 REVERT JUMPDEST PUSH1 0x40 MLOAD DUP1 PUSH1 0x80 ADD PUSH1 0x40 MSTORE DUP1 CALLER PUSH20 0xFFFFFFFFFFFFFFFFFFFFFFFFFFFFFFFFFFFFFFFF AND DUP2 MSTORE PUSH1 0x20 ADD DUP5 DUP2 MSTORE PUSH1 0x20 ADD DUP4 DUP2 MSTORE PUSH1 0x20 ADD DUP3 DUP2 MSTORE POP PUSH1 0x0 DUP1 CALLER PUSH20 0xFFFFFFFFFFFFFFFFFFFFFFFFFFFFFFFFFFFFFFFF AND PUSH20 0xFFFFFFFFFFFFFFFFFFFFFFFFFFFFFFFFFFFFFFFF AND DUP2 MSTORE PUSH1 0x20 ADD SWAP1 DUP2 MSTORE PUSH1 0x20 ADD PUSH1 0x0 KECCAK256 PUSH1 0x0 DUP3 ADD MLOAD DUP2 PUSH1 0x0 ADD PUSH1 0x0 PUSH2 0x100 EXP DUP2 SLOAD DUP2 PUSH20 0xFFFFFFFFFFFFFFFFFFFFFFFFFFFFFFFFFFFFFFFF MUL NOT AND SWAP1 DUP4 PUSH20 0xFFFFFFFFFFFFFFFFFFFFFFFFFFFFFFFFFFFFFFFF AND MUL OR SWAP1 SSTORE POP PUSH1 0x20 DUP3 ADD MLOAD DUP2 PUSH1 0x1 ADD SWAP1 DUP2 PUSH2 0x22F1 SWAP2 SWAP1 PUSH2 0x31BD JUMP JUMPDEST POP PUSH1 0x40 DUP3 ADD MLOAD DUP2 PUSH1 0x2 ADD SWAP1 DUP2 PUSH2 0x2307 SWAP2 SWAP1 PUSH2 0x31BD JUMP JUMPDEST POP PUSH1 0x60 DUP3 ADD MLOAD DUP2 PUSH1 0x3 ADD SWAP1 DUP2 PUSH2 0x231D SWAP2 SWAP1 PUSH2 0x31BD JUMP JUMPDEST POP SWAP1 POP POP POP POP POP JUMP JUMPDEST PUSH1 0x40 MLOAD DUP1 PUSH1 0xC0 ADD PUSH1 0x40 MSTORE DUP1 PUSH1 0x60 DUP2 MSTORE PUSH1 0x20 ADD PUSH1 0x60 DUP2 MSTORE PUSH1 0x20 ADD PUSH1 0x60 DUP2 MSTORE PUSH1 0x20 ADD PUSH1 0x0 PUSH20 0xFFFFFFFFFFFFFFFFFFFFFFFFFFFFFFFFFFFFFFFF AND DUP2 MSTORE PUSH1 0x20 ADD PUSH1 0x0 PUSH20 0xFFFFFFFFFFFFFFFFFFFFFFFFFFFFFFFFFFFFFFFF AND DUP2 MSTORE PUSH1 0x20 ADD PUSH1 0x0 PUSH1 0x2 DUP2 GT ISZERO PUSH2 0x2394 JUMPI PUSH2 0x2393 PUSH2 0x27CE JUMP JUMPDEST JUMPDEST DUP2 MSTORE POP SWAP1 JUMP JUMPDEST POP DUP1 SLOAD PUSH2 0x23A6 SWAP1 PUSH2 0x2FE0 JUMP JUMPDEST PUSH1 0x0 DUP3 SSTORE DUP1 PUSH1 0x1F LT PUSH2 0x23B8 JUMPI POP PUSH2 0x23D7 JUMP JUMPDEST PUSH1 0x1F ADD PUSH1 0x20 SWAP1 DIV SWAP1 PUSH1 0x0 MSTORE PUSH1 0x20 PUSH1 0x0 KECCAK256 SWAP1 DUP2 ADD SWAP1 PUSH2 0x23D6 SWAP2 SWAP1 PUSH2 0x2464 JUMP JUMPDEST JUMPDEST POP JUMP JUMPDEST PUSH1 0x40 MLOAD DUP1 PUSH1 0x80 ADD PUSH1 0x40 MSTORE DUP1 PUSH1 0x0 PUSH20 0xFFFFFFFFFFFFFFFFFFFFFFFFFFFFFFFFFFFFFFFF AND DUP2 MSTORE PUSH1 0x20 ADD PUSH1 0x60 DUP2 MSTORE PUSH1 0x20 ADD PUSH1 0x60 DUP2 MSTORE PUSH1 0x20 ADD PUSH1 0x60 DUP2 MSTORE POP SWAP1 JUMP JUMPDEST PUSH1 0x40 MLOAD DUP1 PUSH1 0xC0 ADD PUSH1 0x40 MSTORE DUP1 PUSH1 0x0 PUSH20 0xFFFFFFFFFFFFFFFFFFFFFFFFFFFFFFFFFFFFFFFF AND DUP2 MSTORE PUSH1 0x20 ADD PUSH1 0x60 DUP2 MSTORE PUSH1 0x20 ADD PUSH1 0x60 DUP2 MSTORE PUSH1 0x20 ADD PUSH1 0x60 DUP2 MSTORE PUSH1 0x20 ADD PUSH1 0x60 DUP2 MSTORE PUSH1 0x20 ADD PUSH1 0x60 DUP2 MSTORE POP SWAP1 JUMP JUMPDEST JUMPDEST DUP1 DUP3 GT ISZERO PUSH2 0x247D JUMPI PUSH1 0x0 DUP2 PUSH1 0x0 SWAP1 SSTORE POP PUSH1 0x1 ADD PUSH2 0x2465 JUMP JUMPDEST POP SWAP1 JUMP JUMPDEST PUSH1 0x0 PUSH1 0x40 MLOAD SWAP1 POP SWAP1 JUMP JUMPDEST PUSH1 0x0 DUP1 REVERT JUMPDEST PUSH1 0x0 DUP1 REVERT JUMPDEST PUSH1 0x0 DUP1 REVERT JUMPDEST PUSH1 0x0 DUP1 REVERT JUMPDEST PUSH1 0x0 PUSH1 0x1F NOT PUSH1 0x1F DUP4 ADD AND SWAP1 POP SWAP2 SWAP1 POP JUMP JUMPDEST PUSH32 0x4E487B7100000000000000000000000000000000000000000000000000000000 PUSH1 0x0 MSTORE PUSH1 0x41 PUSH1 0x4 MSTORE PUSH1 0x24 PUSH1 0x0 REVERT JUMPDEST PUSH2 0x24E8 DUP3 PUSH2 0x249F JUMP JUMPDEST DUP2 ADD DUP2 DUP2 LT PUSH8 0xFFFFFFFFFFFFFFFF DUP3 GT OR ISZERO PUSH2 0x2507 JUMPI PUSH2 0x2506 PUSH2 0x24B0 JUMP JUMPDEST JUMPDEST DUP1 PUSH1 0x40 MSTORE POP POP POP JUMP JUMPDEST PUSH1 0x0 PUSH2 0x251A PUSH2 0x2481 JUMP JUMPDEST SWAP1 POP PUSH2 0x2526 DUP3 DUP3 PUSH2 0x24DF JUMP JUMPDEST SWAP2 SWAP1 POP JUMP JUMPDEST PUSH1 0x0 PUSH8 0xFFFFFFFFFFFFFFFF DUP3 GT ISZERO PUSH2 0x2546 JUMPI PUSH2 0x2545 PUSH2 0x24B0 JUMP JUMPDEST JUMPDEST PUSH2 0x254F DUP3 PUSH2 0x249F JUMP JUMPDEST SWAP1 POP PUSH1 0x20 DUP2 ADD SWAP1 POP SWAP2 SWAP1 POP JUMP JUMPDEST DUP3 DUP2 DUP4 CALLDATACOPY PUSH1 0x0 DUP4 DUP4 ADD MSTORE POP POP POP JUMP JUMPDEST PUSH1 0x0 PUSH2 0x257E PUSH2 0x2579 DUP5 PUSH2 0x252B JUMP JUMPDEST PUSH2 0x2510 JUMP JUMPDEST SWAP1 POP DUP3 DUP2 MSTORE PUSH1 0x20 DUP2 ADD DUP5 DUP5 DUP5 ADD GT ISZERO PUSH2 0x259A JUMPI PUSH2 0x2599 PUSH2 0x249A JUMP JUMPDEST JUMPDEST PUSH2 0x25A5 DUP5 DUP3 DUP6 PUSH2 0x255C JUMP JUMPDEST POP SWAP4 SWAP3 POP POP POP JUMP JUMPDEST PUSH1 0x0 DUP3 PUSH1 0x1F DUP4 ADD SLT PUSH2 0x25C2 JUMPI PUSH2 0x25C1 PUSH2 0x2495 JUMP JUMPDEST JUMPDEST DUP2 CALLDATALOAD PUSH2 0x25D2 DUP5 DUP3 PUSH1 0x20 DUP7 ADD PUSH2 0x256B JUMP JUMPDEST SWAP2 POP POP SWAP3 SWAP2 POP POP JUMP JUMPDEST PUSH1 0x0 DUP1 PUSH1 0x0 DUP1 PUSH1 0x0 PUSH1 0xA0 DUP7 DUP9 SUB SLT ISZERO PUSH2 0x25F7 JUMPI PUSH2 0x25F6 PUSH2 0x248B JUMP JUMPDEST JUMPDEST PUSH1 0x0 DUP7 ADD CALLDATALOAD PUSH8 0xFFFFFFFFFFFFFFFF DUP2 GT ISZERO PUSH2 0x2615 JUMPI PUSH2 0x2614 PUSH2 0x2490 JUMP JUMPDEST JUMPDEST PUSH2 0x2621 DUP9 DUP3 DUP10 ADD PUSH2 0x25AD JUMP JUMPDEST SWAP6 POP POP PUSH1 0x20 DUP7 ADD CALLDATALOAD PUSH8 0xFFFFFFFFFFFFFFFF DUP2 GT ISZERO PUSH2 0x2642 JUMPI PUSH2 0x2641 PUSH2 0x2490 JUMP JUMPDEST JUMPDEST PUSH2 0x264E DUP9 DUP3 DUP10 ADD PUSH2 0x25AD JUMP JUMPDEST SWAP5 POP POP PUSH1 0x40 DUP7 ADD CALLDATALOAD PUSH8 0xFFFFFFFFFFFFFFFF DUP2 GT ISZERO PUSH2 0x266F JUMPI PUSH2 0x266E PUSH2 0x2490 JUMP JUMPDEST JUMPDEST PUSH2 0x267B DUP9 DUP3 DUP10 ADD PUSH2 0x25AD JUMP JUMPDEST SWAP4 POP POP PUSH1 0x60 DUP7 ADD CALLDATALOAD PUSH8 0xFFFFFFFFFFFFFFFF DUP2 GT ISZERO PUSH2 0x269C JUMPI PUSH2 0x269B PUSH2 0x2490 JUMP JUMPDEST JUMPDEST PUSH2 0x26A8 DUP9 DUP3 DUP10 ADD PUSH2 0x25AD JUMP JUMPDEST SWAP3 POP POP PUSH1 0x80 DUP7 ADD CALLDATALOAD PUSH8 0xFFFFFFFFFFFFFFFF DUP2 GT ISZERO PUSH2 0x26C9 JUMPI PUSH2 0x26C8 PUSH2 0x2490 JUMP JUMPDEST JUMPDEST PUSH2 0x26D5 DUP9 DUP3 DUP10 ADD PUSH2 0x25AD JUMP JUMPDEST SWAP2 POP POP SWAP3 SWAP6 POP SWAP3 SWAP6 SWAP1 SWAP4 POP JUMP JUMPDEST PUSH1 0x0 DUP2 MLOAD SWAP1 POP SWAP2 SWAP1 POP JUMP JUMPDEST PUSH1 0x0 DUP3 DUP3 MSTORE PUSH1 0x20 DUP3 ADD SWAP1 POP SWAP3 SWAP2 POP POP JUMP JUMPDEST PUSH1 0x0 DUP2 SWAP1 POP PUSH1 0x20 DUP3 ADD SWAP1 POP SWAP2 SWAP1 POP JUMP JUMPDEST PUSH1 0x0 DUP2 MLOAD SWAP1 POP SWAP2 SWAP1 POP JUMP JUMPDEST PUSH1 0x0 DUP3 DUP3 MSTORE PUSH1 0x20 DUP3 ADD SWAP1 POP SWAP3 SWAP2 POP POP JUMP JUMPDEST PUSH1 0x0 JUMPDEST DUP4 DUP2 LT ISZERO PUSH2 0x2748 JUMPI DUP1 DUP3 ADD MLOAD DUP2 DUP5 ADD MSTORE PUSH1 0x20 DUP2 ADD SWAP1 POP PUSH2 0x272D JUMP JUMPDEST PUSH1 0x0 DUP5 DUP5 ADD MSTORE POP POP POP POP JUMP JUMPDEST PUSH1 0x0 PUSH2 0x275F DUP3 PUSH2 0x270E JUMP JUMPDEST PUSH2 0x2769 DUP2 DUP6 PUSH2 0x2719 JUMP JUMPDEST SWAP4 POP PUSH2 0x2779 DUP2 DUP6 PUSH1 0x20 DUP7 ADD PUSH2 0x272A JUMP JUMPDEST PUSH2 0x2782 DUP2 PUSH2 0x249F JUMP JUMPDEST DUP5 ADD SWAP2 POP POP SWAP3 SWAP2 POP POP JUMP JUMPDEST PUSH1 0x0 PUSH20 0xFFFFFFFFFFFFFFFFFFFFFFFFFFFFFFFFFFFFFFFF DUP3 AND SWAP1 POP SWAP2 SWAP1 POP JUMP JUMPDEST PUSH1 0x0 PUSH2 0x27B8 DUP3 PUSH2 0x278D JUMP JUMPDEST SWAP1 POP SWAP2 SWAP1 POP JUMP JUMPDEST PUSH2 0x27C8 DUP2 PUSH2 0x27AD JUMP JUMPDEST DUP3 MSTORE POP POP JUMP JUMPDEST PUSH32 0x4E487B7100000000000000000000000000000000000000000000000000000000 PUSH1 0x0 MSTORE PUSH1 0x21 PUSH1 0x4 MSTORE PUSH1 0x24 PUSH1 0x0 REVERT JUMPDEST PUSH1 0x3 DUP2 LT PUSH2 0x280E JUMPI PUSH2 0x280D PUSH2 0x27CE JUMP JUMPDEST JUMPDEST POP JUMP JUMPDEST PUSH1 0x0 DUP2 SWAP1 POP PUSH2 0x281F DUP3 PUSH2 0x27FD JUMP JUMPDEST SWAP2 SWAP1 POP JUMP JUMPDEST PUSH1 0x0 PUSH2 0x282F DUP3 PUSH2 0x2811 JUMP JUMPDEST SWAP1 POP SWAP2 SWAP1 POP JUMP JUMPDEST PUSH2 0x283F DUP2 PUSH2 0x2824 JUMP JUMPDEST DUP3 MSTORE POP POP JUMP JUMPDEST PUSH1 0x0 PUSH1 0xC0 DUP4 ADD PUSH1 0x0 DUP4 ADD MLOAD DUP5 DUP3 SUB PUSH1 0x0 DUP7 ADD MSTORE PUSH2 0x2862 DUP3 DUP3 PUSH2 0x2754 JUMP JUMPDEST SWAP2 POP POP PUSH1 0x20 DUP4 ADD MLOAD DUP5 DUP3 SUB PUSH1 0x20 DUP7 ADD MSTORE PUSH2 0x287C DUP3 DUP3 PUSH2 0x2754 JUMP JUMPDEST SWAP2 POP POP PUSH1 0x40 DUP4 ADD MLOAD DUP5 DUP3 SUB PUSH1 0x40 DUP7 ADD MSTORE PUSH2 0x2896 DUP3 DUP3 PUSH2 0x2754 JUMP JUMPDEST SWAP2 POP POP PUSH1 0x60 DUP4 ADD MLOAD PUSH2 0x28AB PUSH1 0x60 DUP7 ADD DUP3 PUSH2 0x27BF JUMP JUMPDEST POP PUSH1 0x80 DUP4 ADD MLOAD PUSH2 0x28BE PUSH1 0x80 DUP7 ADD DUP3 PUSH2 0x27BF JUMP JUMPDEST POP PUSH1 0xA0 DUP4 ADD MLOAD PUSH2 0x28D1 PUSH1 0xA0 DUP7 ADD DUP3 PUSH2 0x2836 JUMP JUMPDEST POP DUP1 SWAP2 POP POP SWAP3 SWAP2 POP POP JUMP JUMPDEST PUSH1 0x0 PUSH2 0x28E8 DUP4 DUP4 PUSH2 0x2845 JUMP JUMPDEST SWAP1 POP SWAP3 SWAP2 POP POP JUMP JUMPDEST PUSH1 0x0 PUSH1 0x20 DUP3 ADD SWAP1 POP SWAP2 SWAP1 POP JUMP JUMPDEST PUSH1 0x0 PUSH2 0x2908 DUP3 PUSH2 0x26E2 JUMP JUMPDEST PUSH2 0x2912 DUP2 DUP6 PUSH2 0x26ED JUMP JUMPDEST SWAP4 POP DUP4 PUSH1 0x20 DUP3 MUL DUP6 ADD PUSH2 0x2924 DUP6 PUSH2 0x26FE JUMP JUMPDEST DUP1 PUSH1 0x0 JUMPDEST DUP6 DUP2 LT ISZERO PUSH2 0x2960 JUMPI DUP5 DUP5 SUB DUP10 MSTORE DUP2 MLOAD PUSH2 0x2941 DUP6 DUP3 PUSH2 0x28DC JUMP JUMPDEST SWAP5 POP PUSH2 0x294C DUP4 PUSH2 0x28F0 JUMP JUMPDEST SWAP3 POP PUSH1 0x20 DUP11 ADD SWAP10 POP POP PUSH1 0x1 DUP2 ADD SWAP1 POP PUSH2 0x2928 JUMP JUMPDEST POP DUP3 SWAP8 POP DUP8 SWAP6 POP POP POP POP POP POP SWAP3 SWAP2 POP POP JUMP JUMPDEST PUSH1 0x0 PUSH1 0x20 DUP3 ADD SWAP1 POP DUP2 DUP2 SUB PUSH1 0x0 DUP4 ADD MSTORE PUSH2 0x298C DUP2 DUP5 PUSH2 0x28FD JUMP JUMPDEST SWAP1 POP SWAP3 SWAP2 POP POP JUMP JUMPDEST PUSH2 0x299D DUP2 PUSH2 0x27AD JUMP JUMPDEST DUP2 EQ PUSH2 0x29A8 JUMPI PUSH1 0x0 DUP1 REVERT JUMPDEST POP JUMP JUMPDEST PUSH1 0x0 DUP2 CALLDATALOAD SWAP1 POP PUSH2 0x29BA DUP2 PUSH2 0x2994 JUMP JUMPDEST SWAP3 SWAP2 POP POP JUMP JUMPDEST PUSH1 0x0 PUSH1 0x20 DUP3 DUP5 SUB SLT ISZERO PUSH2 0x29D6 JUMPI PUSH2 0x29D5 PUSH2 0x248B JUMP JUMPDEST JUMPDEST PUSH1 0x0 PUSH2 0x29E4 DUP5 DUP3 DUP6 ADD PUSH2 0x29AB JUMP JUMPDEST SWAP2 POP POP SWAP3 SWAP2 POP POP JUMP JUMPDEST PUSH1 0x0 DUP2 ISZERO ISZERO SWAP1 POP SWAP2 SWAP1 POP JUMP JUMPDEST PUSH2 0x2A02 DUP2 PUSH2 0x29ED JUMP JUMPDEST DUP3 MSTORE POP POP JUMP JUMPDEST PUSH1 0x0 PUSH1 0x20 DUP3 ADD SWAP1 POP PUSH2 0x2A1D PUSH1 0x0 DUP4 ADD DUP5 PUSH2 0x29F9 JUMP JUMPDEST SWAP3 SWAP2 POP POP JUMP JUMPDEST PUSH1 0x0 PUSH1 0x20 DUP3 DUP5 SUB SLT ISZERO PUSH2 0x2A39 JUMPI PUSH2 0x2A38 PUSH2 0x248B JUMP JUMPDEST JUMPDEST PUSH1 0x0 DUP3 ADD CALLDATALOAD PUSH8 0xFFFFFFFFFFFFFFFF DUP2 GT ISZERO PUSH2 0x2A57 JUMPI PUSH2 0x2A56 PUSH2 0x2490 JUMP JUMPDEST JUMPDEST PUSH2 0x2A63 DUP5 DUP3 DUP6 ADD PUSH2 0x25AD JUMP JUMPDEST SWAP2 POP POP SWAP3 SWAP2 POP POP JUMP JUMPDEST PUSH1 0x0 DUP2 SWAP1 POP SWAP2 SWAP1 POP JUMP JUMPDEST PUSH2 0x2A7F DUP2 PUSH2 0x2A6C JUMP JUMPDEST DUP2 EQ PUSH2 0x2A8A JUMPI PUSH1 0x0 DUP1 REVERT JUMPDEST POP JUMP JUMPDEST PUSH1 0x0 DUP2 CALLDATALOAD SWAP1 POP PUSH2 0x2A9C DUP2 PUSH2 0x2A76 JUMP JUMPDEST SWAP3 SWAP2 POP POP JUMP JUMPDEST PUSH1 0x0 PUSH1 0x20 DUP3 DUP5 SUB SLT ISZERO PUSH2 0x2AB8 JUMPI PUSH2 0x2AB7 PUSH2 0x248B JUMP JUMPDEST JUMPDEST PUSH1 0x0 PUSH2 0x2AC6 DUP5 DUP3 DUP6 ADD PUSH2 0x2A8D JUMP JUMPDEST SWAP2 POP POP SWAP3 SWAP2 POP POP JUMP JUMPDEST PUSH1 0x0 DUP3 DUP3 MSTORE PUSH1 0x20 DUP3 ADD SWAP1 POP SWAP3 SWAP2 POP POP JUMP JUMPDEST PUSH1 0x0 PUSH2 0x2AEB DUP3 PUSH2 0x270E JUMP JUMPDEST PUSH2 0x2AF5 DUP2 DUP6 PUSH2 0x2ACF JUMP JUMPDEST SWAP4 POP PUSH2 0x2B05 DUP2 DUP6 PUSH1 0x20 DUP7 ADD PUSH2 0x272A JUMP JUMPDEST PUSH2 0x2B0E DUP2 PUSH2 0x249F JUMP JUMPDEST DUP5 ADD SWAP2 POP POP SWAP3 SWAP2 POP POP JUMP JUMPDEST PUSH1 0x0 PUSH1 0x20 DUP3 ADD SWAP1 POP DUP2 DUP2 SUB PUSH1 0x0 DUP4 ADD MSTORE PUSH2 0x2B33 DUP2 DUP5 PUSH2 0x2AE0 JUMP JUMPDEST SWAP1 POP SWAP3 SWAP2 POP POP JUMP JUMPDEST PUSH1 0x0 PUSH1 0x80 DUP4 ADD PUSH1 0x0 DUP4 ADD MLOAD PUSH2 0x2B53 PUSH1 0x0 DUP7 ADD DUP3 PUSH2 0x27BF JUMP JUMPDEST POP PUSH1 0x20 DUP4 ADD MLOAD DUP5 DUP3 SUB PUSH1 0x20 DUP7 ADD MSTORE PUSH2 0x2B6B DUP3 DUP3 PUSH2 0x2754 JUMP JUMPDEST SWAP2 POP POP PUSH1 0x40 DUP4 ADD MLOAD DUP5 DUP3 SUB PUSH1 0x40 DUP7 ADD MSTORE PUSH2 0x2B85 DUP3 DUP3 PUSH2 0x2754 JUMP JUMPDEST SWAP2 POP POP PUSH1 0x60 DUP4 ADD MLOAD DUP5 DUP3 SUB PUSH1 0x60 DUP7 ADD MSTORE PUSH2 0x2B9F DUP3 DUP3 PUSH2 0x2754 JUMP JUMPDEST SWAP2 POP POP DUP1 SWAP2 POP POP SWAP3 SWAP2 POP POP JUMP JUMPDEST PUSH1 0x0 PUSH1 0x20 DUP3 ADD SWAP1 POP DUP2 DUP2 SUB PUSH1 0x0 DUP4 ADD MSTORE PUSH2 0x2BC6 DUP2 DUP5 PUSH2 0x2B3B JUMP JUMPDEST SWAP1 POP SWAP3 SWAP2 POP POP JUMP JUMPDEST PUSH1 0x0 PUSH1 0xC0 DUP4 ADD PUSH1 0x0 DUP4 ADD MLOAD PUSH2 0x2BE6 PUSH1 0x0 DUP7 ADD DUP3 PUSH2 0x27BF JUMP JUMPDEST POP PUSH1 0x20 DUP4 ADD MLOAD DUP5 DUP3 SUB PUSH1 0x20 DUP7 ADD MSTORE PUSH2 0x2BFE DUP3 DUP3 PUSH2 0x2754 JUMP JUMPDEST SWAP2 POP POP PUSH1 0x40 DUP4 ADD MLOAD DUP5 DUP3 SUB PUSH1 0x40 DUP7 ADD MSTORE PUSH2 0x2C18 DUP3 DUP3 PUSH2 0x2754 JUMP JUMPDEST SWAP2 POP POP PUSH1 0x60 DUP4 ADD MLOAD DUP5 DUP3 SUB PUSH1 0x60 DUP7 ADD MSTORE PUSH2 0x2C32 DUP3 DUP3 PUSH2 0x2754 JUMP JUMPDEST SWAP2 POP POP PUSH1 0x80 DUP4 ADD MLOAD DUP5 DUP3 SUB PUSH1 0x80 DUP7 ADD MSTORE PUSH2 0x2C4C DUP3 DUP3 PUSH2 0x2754 JUMP JUMPDEST SWAP2 POP POP PUSH1 0xA0 DUP4 ADD MLOAD DUP5 DUP3 SUB PUSH1 0xA0 DUP7 ADD MSTORE PUSH2 0x2C66 DUP3 DUP3 PUSH2 0x2754 JUMP JUMPDEST SWAP2 POP POP DUP1 SWAP2 POP POP SWAP3 SWAP2 POP POP JUMP JUMPDEST PUSH1 0x0 PUSH1 0x20 DUP3 ADD SWAP1 POP DUP2 DUP2 SUB PUSH1 0x0 DUP4 ADD MSTORE PUSH2 0x2C8D DUP2 DUP5 PUSH2 0x2BCE JUMP JUMPDEST SWAP1 POP SWAP3 SWAP2 POP POP JUMP JUMPDEST PUSH1 0x0 PUSH1 0xC0 DUP4 ADD PUSH1 0x0 DUP4 ADD MLOAD DUP5 DUP3 SUB PUSH1 0x0 DUP7 ADD MSTORE PUSH2 0x2CB2 DUP3 DUP3 PUSH2 0x2754 JUMP JUMPDEST SWAP2 POP POP PUSH1 0x20 DUP4 ADD MLOAD DUP5 DUP3 SUB PUSH1 0x20 DUP7 ADD MSTORE PUSH2 0x2CCC DUP3 DUP3 PUSH2 0x2754 JUMP JUMPDEST SWAP2 POP POP PUSH1 0x40 DUP4 ADD MLOAD DUP5 DUP3 SUB PUSH1 0x40 DUP7 ADD MSTORE PUSH2 0x2CE6 DUP3 DUP3 PUSH2 0x2754 JUMP JUMPDEST SWAP2 POP POP PUSH1 0x60 DUP4 ADD MLOAD PUSH2 0x2CFB PUSH1 0x60 DUP7 ADD DUP3 PUSH2 0x27BF JUMP JUMPDEST POP PUSH1 0x80 DUP4 ADD MLOAD PUSH2 0x2D0E PUSH1 0x80 DUP7 ADD DUP3 PUSH2 0x27BF JUMP JUMPDEST POP PUSH1 0xA0 DUP4 ADD MLOAD PUSH2 0x2D21 PUSH1 0xA0 DUP7 ADD DUP3 PUSH2 0x2836 JUMP JUMPDEST POP DUP1 SWAP2 POP POP SWAP3 SWAP2 POP POP JUMP JUMPDEST PUSH1 0x0 PUSH1 0x20 DUP3 ADD SWAP1 POP DUP2 DUP2 SUB PUSH1 0x0 DUP4 ADD MSTORE PUSH2 0x2D46 DUP2 DUP5 PUSH2 0x2C95 JUMP JUMPDEST SWAP1 POP SWAP3 SWAP2 POP POP JUMP JUMPDEST PUSH1 0x0 DUP1 PUSH1 0x0 DUP1 PUSH1 0x0 PUSH1 0xA0 DUP7 DUP9 SUB SLT ISZERO PUSH2 0x2D6A JUMPI PUSH2 0x2D69 PUSH2 0x248B JUMP JUMPDEST JUMPDEST PUSH1 0x0 DUP7 ADD CALLDATALOAD PUSH8 0xFFFFFFFFFFFFFFFF DUP2 GT ISZERO PUSH2 0x2D88 JUMPI PUSH2 0x2D87 PUSH2 0x2490 JUMP JUMPDEST JUMPDEST PUSH2 0x2D94 DUP9 DUP3 DUP10 ADD PUSH2 0x25AD JUMP JUMPDEST SWAP6 POP POP PUSH1 0x20 DUP7 ADD CALLDATALOAD PUSH8 0xFFFFFFFFFFFFFFFF DUP2 GT ISZERO PUSH2 0x2DB5 JUMPI PUSH2 0x2DB4 PUSH2 0x2490 JUMP JUMPDEST JUMPDEST PUSH2 0x2DC1 DUP9 DUP3 DUP10 ADD PUSH2 0x25AD JUMP JUMPDEST SWAP5 POP POP PUSH1 0x40 DUP7 ADD CALLDATALOAD PUSH8 0xFFFFFFFFFFFFFFFF DUP2 GT ISZERO PUSH2 0x2DE2 JUMPI PUSH2 0x2DE1 PUSH2 0x2490 JUMP JUMPDEST JUMPDEST PUSH2 0x2DEE DUP9 DUP3 DUP10 ADD PUSH2 0x25AD JUMP JUMPDEST SWAP4 POP POP PUSH1 0x60 PUSH2 0x2DFF DUP9 DUP3 DUP10 ADD PUSH2 0x29AB JUMP JUMPDEST SWAP3 POP POP PUSH1 0x80 PUSH2 0x2E10 DUP9 DUP3 DUP10 ADD PUSH2 0x29AB JUMP JUMPDEST SWAP2 POP POP SWAP3 SWAP6 POP SWAP3 SWAP6 SWAP1 SWAP4 POP JUMP JUMPDEST PUSH1 0x3 DUP2 LT PUSH2 0x2E2A JUMPI PUSH1 0x0 DUP1 REVERT JUMPDEST POP JUMP JUMPDEST PUSH1 0x0 DUP2 CALLDATALOAD SWAP1 POP PUSH2 0x2E3C DUP2 PUSH2 0x2E1D JUMP JUMPDEST SWAP3 SWAP2 POP POP JUMP JUMPDEST PUSH1 0x0 DUP1 PUSH1 0x40 DUP4 DUP6 SUB SLT ISZERO PUSH2 0x2E59 JUMPI PUSH2 0x2E58 PUSH2 0x248B JUMP JUMPDEST JUMPDEST PUSH1 0x0 DUP4 ADD CALLDATALOAD PUSH8 0xFFFFFFFFFFFFFFFF DUP2 GT ISZERO PUSH2 0x2E77 JUMPI PUSH2 0x2E76 PUSH2 0x2490 JUMP JUMPDEST JUMPDEST PUSH2 0x2E83 DUP6 DUP3 DUP7 ADD PUSH2 0x25AD JUMP JUMPDEST SWAP3 POP POP PUSH1 0x20 PUSH2 0x2E94 DUP6 DUP3 DUP7 ADD PUSH2 0x2E2D JUMP JUMPDEST SWAP2 POP POP SWAP3 POP SWAP3 SWAP1 POP JUMP JUMPDEST PUSH1 0x0 DUP1 PUSH1 0x0 PUSH1 0x60 DUP5 DUP7 SUB SLT ISZERO PUSH2 0x2EB7 JUMPI PUSH2 0x2EB6 PUSH2 0x248B JUMP JUMPDEST JUMPDEST PUSH1 0x0 DUP5 ADD CALLDATALOAD PUSH8 0xFFFFFFFFFFFFFFFF DUP2 GT ISZERO PUSH2 0x2ED5 JUMPI PUSH2 0x2ED4 PUSH2 0x2490 JUMP JUMPDEST JUMPDEST PUSH2 0x2EE1 DUP7 DUP3 DUP8 ADD PUSH2 0x25AD JUMP JUMPDEST SWAP4 POP POP PUSH1 0x20 DUP5 ADD CALLDATALOAD PUSH8 0xFFFFFFFFFFFFFFFF DUP2 GT ISZERO PUSH2 0x2F02 JUMPI PUSH2 0x2F01 PUSH2 0x2490 JUMP JUMPDEST JUMPDEST PUSH2 0x2F0E DUP7 DUP3 DUP8 ADD PUSH2 0x25AD JUMP JUMPDEST SWAP3 POP POP PUSH1 0x40 DUP5 ADD CALLDATALOAD PUSH8 0xFFFFFFFFFFFFFFFF DUP2 GT ISZERO PUSH2 0x2F2F JUMPI PUSH2 0x2F2E PUSH2 0x2490 JUMP JUMPDEST JUMPDEST PUSH2 0x2F3B DUP7 DUP3 DUP8 ADD PUSH2 0x25AD JUMP JUMPDEST SWAP2 POP POP SWAP3 POP SWAP3 POP SWAP3 JUMP JUMPDEST PUSH32 0x566572696669657220616C726561647920657869737473000000000000000000 PUSH1 0x0 DUP3 ADD MSTORE POP JUMP JUMPDEST PUSH1 0x0 PUSH2 0x2F7B PUSH1 0x17 DUP4 PUSH2 0x2ACF JUMP JUMPDEST SWAP2 POP PUSH2 0x2F86 DUP3 PUSH2 0x2F45 JUMP JUMPDEST PUSH1 0x20 DUP3 ADD SWAP1 POP SWAP2 SWAP1 POP JUMP JUMPDEST PUSH1 0x0 PUSH1 0x20 DUP3 ADD SWAP1 POP DUP2 DUP2 SUB PUSH1 0x0 DUP4 ADD MSTORE PUSH2 0x2FAA DUP2 PUSH2 0x2F6E JUMP JUMPDEST SWAP1 POP SWAP2 SWAP1 POP JUMP JUMPDEST PUSH32 0x4E487B7100000000000000000000000000000000000000000000000000000000 PUSH1 0x0 MSTORE PUSH1 0x22 PUSH1 0x4 MSTORE PUSH1 0x24 PUSH1 0x0 REVERT JUMPDEST PUSH1 0x0 PUSH1 0x2 DUP3 DIV SWAP1 POP PUSH1 0x1 DUP3 AND DUP1 PUSH2 0x2FF8 JUMPI PUSH1 0x7F DUP3 AND SWAP2 POP JUMPDEST PUSH1 0x20 DUP3 LT DUP2 SUB PUSH2 0x300B JUMPI PUSH2 0x300A PUSH2 0x2FB1 JUMP JUMPDEST JUMPDEST POP SWAP2 SWAP1 POP JUMP JUMPDEST PUSH1 0x0 DUP2 SWAP1 POP DUP2 PUSH1 0x0 MSTORE PUSH1 0x20 PUSH1 0x0 KECCAK256 SWAP1 POP SWAP2 SWAP1 POP JUMP JUMPDEST PUSH1 0x0 PUSH1 0x20 PUSH1 0x1F DUP4 ADD DIV SWAP1 POP SWAP2 SWAP1 POP JUMP JUMPDEST PUSH1 0x0 DUP3 DUP3 SHL SWAP1 POP SWAP3 SWAP2 POP POP JUMP JUMPDEST PUSH1 0x0 PUSH1 0x8 DUP4 MUL PUSH2 0x3073 PUSH32 0xFFFFFFFFFFFFFFFFFFFFFFFFFFFFFFFFFFFFFFFFFFFFFFFFFFFFFFFFFFFFFFFF DUP3 PUSH2 0x3036 JUMP JUMPDEST PUSH2 0x307D DUP7 DUP4 PUSH2 0x3036 JUMP JUMPDEST SWAP6 POP DUP1 NOT DUP5 AND SWAP4 POP DUP1 DUP7 AND DUP5 OR SWAP3 POP POP POP SWAP4 SWAP3 POP POP POP JUMP JUMPDEST PUSH1 0x0 DUP2 SWAP1 POP SWAP2 SWAP1 POP JUMP JUMPDEST PUSH1 0x0 PUSH2 0x30BA PUSH2 0x30B5 PUSH2 0x30B0 DUP5 PUSH2 0x2A6C JUMP JUMPDEST PUSH2 0x3095 JUMP JUMPDEST PUSH2 0x2A6C JUMP JUMPDEST SWAP1 POP SWAP2 SWAP1 POP JUMP JUMPDEST PUSH1 0x0 DUP2 SWAP1 POP SWAP2 SWAP1 POP JUMP JUMPDEST PUSH2 0x30D4 DUP4 PUSH2 0x309F JUMP JUMPDEST PUSH2 0x30E8 PUSH2 0x30E0 DUP3 PUSH2 0x30C1 JUMP JUMPDEST DUP5 DUP5 SLOAD PUSH2 0x3043 JUMP JUMPDEST DUP3 SSTORE POP POP POP POP JUMP JUMPDEST PUSH1 0x0 SWAP1 JUMP JUMPDEST PUSH2 0x30FD PUSH2 0x30F0 JUMP JUMPDEST PUSH2 0x3108 DUP2 DUP5 DUP5 PUSH2 0x30CB JUMP JUMPDEST POP POP POP JUMP JUMPDEST JUMPDEST DUP2 DUP2 LT ISZERO PUSH2 0x312C JUMPI PUSH2 0x3121 PUSH1 0x0 DUP3 PUSH2 0x30F5 JUMP JUMPDEST PUSH1 0x1 DUP2 ADD SWAP1 POP PUSH2 0x310E JUMP JUMPDEST POP POP JUMP JUMPDEST PUSH1 0x1F DUP3 GT ISZERO PUSH2 0x3171 JUMPI PUSH2 0x3142 DUP2 PUSH2 0x3011 JUMP JUMPDEST PUSH2 0x314B DUP5 PUSH2 0x3026 JUMP JUMPDEST DUP2 ADD PUSH1 0x20 DUP6 LT ISZERO PUSH2 0x315A JUMPI DUP2 SWAP1 POP JUMPDEST PUSH2 0x316E PUSH2 0x3166 DUP6 PUSH2 0x3026 JUMP JUMPDEST DUP4 ADD DUP3 PUSH2 0x310D JUMP JUMPDEST POP POP JUMPDEST POP POP POP JUMP JUMPDEST PUSH1 0x0 DUP3 DUP3 SHR SWAP1 POP SWAP3 SWAP2 POP POP JUMP JUMPDEST PUSH1 0x0 PUSH2 0x3194 PUSH1 0x0 NOT DUP5 PUSH1 0x8 MUL PUSH2 0x3176 JUMP JUMPDEST NOT DUP1 DUP4 AND SWAP2 POP POP SWAP3 SWAP2 POP POP JUMP JUMPDEST PUSH1 0x0 PUSH2 0x31AD DUP4 DUP4 PUSH2 0x3183 JUMP JUMPDEST SWAP2 POP DUP3 PUSH1 0x2 MUL DUP3 OR SWAP1 POP SWAP3 SWAP2 POP POP JUMP JUMPDEST PUSH2 0x31C6 DUP3 PUSH2 0x270E JUMP JUMPDEST PUSH8 0xFFFFFFFFFFFFFFFF DUP2 GT ISZERO PUSH2 0x31DF JUMPI PUSH2 0x31DE PUSH2 0x24B0 JUMP JUMPDEST JUMPDEST PUSH2 0x31E9 DUP3 SLOAD PUSH2 0x2FE0 JUMP JUMPDEST PUSH2 0x31F4 DUP3 DUP3 DUP6 PUSH2 0x3130 JUMP JUMPDEST PUSH1 0x0 PUSH1 0x20 SWAP1 POP PUSH1 0x1F DUP4 GT PUSH1 0x1 DUP2 EQ PUSH2 0x3227 JUMPI PUSH1 0x0 DUP5 ISZERO PUSH2 0x3215 JUMPI DUP3 DUP8 ADD MLOAD SWAP1 POP JUMPDEST PUSH2 0x321F DUP6 DUP3 PUSH2 0x31A1 JUMP JUMPDEST DUP7 SSTORE POP PUSH2 0x3287 JUMP JUMPDEST PUSH1 0x1F NOT DUP5 AND PUSH2 0x3235 DUP7 PUSH2 0x3011 JUMP JUMPDEST PUSH1 0x0 JUMPDEST DUP3 DUP2 LT ISZERO PUSH2 0x325D JUMPI DUP5 DUP10 ADD MLOAD DUP3 SSTORE PUSH1 0x1 DUP3 ADD SWAP2 POP PUSH1 0x20 DUP6 ADD SWAP5 POP PUSH1 0x20 DUP2 ADD SWAP1 POP PUSH2 0x3238 JUMP JUMPDEST DUP7 DUP4 LT ISZERO PUSH2 0x327A JUMPI DUP5 DUP10 ADD MLOAD PUSH2 0x3276 PUSH1 0x1F DUP10 AND DUP3 PUSH2 0x3183 JUMP JUMPDEST DUP4 SSTORE POP JUMPDEST PUSH1 0x1 PUSH1 0x2 DUP9 MUL ADD DUP9 SSTORE POP POP POP JUMPDEST POP POP POP POP POP POP JUMP JUMPDEST PUSH32 0x4E487B7100000000000000000000000000000000000000000000000000000000 PUSH1 0x0 MSTORE PUSH1 0x32 PUSH1 0x4 MSTORE PUSH1 0x24 PUSH1 0x0 REVERT JUMPDEST PUSH1 0x0 DUP2 SWAP1 POP SWAP3 SWAP2 POP POP JUMP JUMPDEST PUSH1 0x0 PUSH2 0x32D4 DUP3 PUSH2 0x270E JUMP JUMPDEST PUSH2 0x32DE DUP2 DUP6 PUSH2 0x32BE JUMP JUMPDEST SWAP4 POP PUSH2 0x32EE DUP2 DUP6 PUSH1 0x20 DUP7 ADD PUSH2 0x272A JUMP JUMPDEST DUP1 DUP5 ADD SWAP2 POP POP SWAP3 SWAP2 POP POP JUMP JUMPDEST PUSH1 0x0 PUSH2 0x3306 DUP3 DUP5 PUSH2 0x32C9 JUMP JUMPDEST SWAP2 POP DUP2 SWAP1 POP SWAP3 SWAP2 POP POP JUMP JUMPDEST PUSH32 0x4E487B7100000000000000000000000000000000000000000000000000000000 PUSH1 0x0 MSTORE PUSH1 0x11 PUSH1 0x4 MSTORE PUSH1 0x24 PUSH1 0x0 REVERT JUMPDEST PUSH1 0x0 PUSH2 0x334B DUP3 PUSH2 0x2A6C JUMP JUMPDEST SWAP2 POP PUSH32 0xFFFFFFFFFFFFFFFFFFFFFFFFFFFFFFFFFFFFFFFFFFFFFFFFFFFFFFFFFFFFFFFF DUP3 SUB PUSH2 0x337D JUMPI PUSH2 0x337C PUSH2 0x3311 JUMP JUMPDEST JUMPDEST PUSH1 0x1 DUP3 ADD SWAP1 POP SWAP2 SWAP1 POP JUMP JUMPDEST PUSH32 0x566572696669657220646F6573206E6F74206578697374730000000000000000 PUSH1 0x0 DUP3 ADD MSTORE POP JUMP JUMPDEST PUSH1 0x0 PUSH2 0x33BE PUSH1 0x18 DUP4 PUSH2 0x2ACF JUMP JUMPDEST SWAP2 POP PUSH2 0x33C9 DUP3 PUSH2 0x3388 JUMP JUMPDEST PUSH1 0x20 DUP3 ADD SWAP1 POP SWAP2 SWAP1 POP JUMP JUMPDEST PUSH1 0x0 PUSH1 0x20 DUP3 ADD SWAP1 POP DUP2 DUP2 SUB PUSH1 0x0 DUP4 ADD MSTORE PUSH2 0x33ED DUP2 PUSH2 0x33B1 JUMP JUMPDEST SWAP1 POP SWAP2 SWAP1 POP JUMP JUMPDEST PUSH32 0x446F63756D656E74206E6F7420666F756E640000000000000000000000000000 PUSH1 0x0 DUP3 ADD MSTORE POP JUMP JUMPDEST PUSH1 0x0 PUSH2 0x342A PUSH1 0x12 DUP4 PUSH2 0x2ACF JUMP JUMPDEST SWAP2 POP PUSH2 0x3435 DUP3 PUSH2 0x33F4 JUMP JUMPDEST PUSH1 0x20 DUP3 ADD SWAP1 POP SWAP2 SWAP1 POP JUMP JUMPDEST PUSH1 0x0 PUSH1 0x20 DUP3 ADD SWAP1 POP DUP2 DUP2 SUB PUSH1 0x0 DUP4 ADD MSTORE PUSH2 0x3459 DUP2 PUSH2 0x341D JUMP JUMPDEST SWAP1 POP SWAP2 SWAP1 POP JUMP JUMPDEST PUSH32 0x53747564656E74206E6F7420666F756E64000000000000000000000000000000 PUSH1 0x0 DUP3 ADD MSTORE POP JUMP JUMPDEST PUSH1 0x0 PUSH2 0x3496 PUSH1 0x11 DUP4 PUSH2 0x2ACF JUMP JUMPDEST SWAP2 POP PUSH2 0x34A1 DUP3 PUSH2 0x3460 JUMP JUMPDEST PUSH1 0x20 DUP3 ADD SWAP1 POP SWAP2 SWAP1 POP JUMP JUMPDEST PUSH1 0x0 PUSH1 0x20 DUP3 ADD SWAP1 POP DUP2 DUP2 SUB PUSH1 0x0 DUP4 ADD MSTORE PUSH2 0x34C5 DUP2 PUSH2 0x3489 JUMP JUMPDEST SWAP1 POP SWAP2 SWAP1 POP JUMP JUMPDEST PUSH32 0x53747564656E74206E6F7420617574686F72697A656400000000000000000000 PUSH1 0x0 DUP3 ADD MSTORE POP JUMP JUMPDEST PUSH1 0x0 PUSH2 0x3502 PUSH1 0x16 DUP4 PUSH2 0x2ACF JUMP JUMPDEST SWAP2 POP PUSH2 0x350D DUP3 PUSH2 0x34CC JUMP JUMPDEST PUSH1 0x20 DUP3 ADD SWAP1 POP SWAP2 SWAP1 POP JUMP JUMPDEST PUSH1 0x0 PUSH1 0x20 DUP3 ADD SWAP1 POP DUP2 DUP2 SUB PUSH1 0x0 DUP4 ADD MSTORE PUSH2 0x3531 DUP2 PUSH2 0x34F5 JUMP JUMPDEST SWAP1 POP SWAP2 SWAP1 POP JUMP JUMPDEST PUSH32 0x53747564656E742044657461696C7320616C72656164792064656C6574656400 PUSH1 0x0 DUP3 ADD MSTORE POP JUMP JUMPDEST PUSH1 0x0 PUSH2 0x356E PUSH1 0x1F DUP4 PUSH2 0x2ACF JUMP JUMPDEST SWAP2 POP PUSH2 0x3579 DUP3 PUSH2 0x3538 JUMP JUMPDEST PUSH1 0x20 DUP3 ADD SWAP1 POP SWAP2 SWAP1 POP JUMP JUMPDEST PUSH1 0x0 PUSH1 0x20 DUP3 ADD SWAP1 POP DUP2 DUP2 SUB PUSH1 0x0 DUP4 ADD MSTORE PUSH2 0x359D DUP2 PUSH2 0x3561 JUMP JUMPDEST SWAP1 POP SWAP2 SWAP1 POP JUMP JUMPDEST PUSH32 0x53747564656E742064657461696C73206E6F7420616464656400000000000000 PUSH1 0x0 DUP3 ADD MSTORE POP JUMP JUMPDEST PUSH1 0x0 PUSH2 0x35DA PUSH1 0x19 DUP4 PUSH2 0x2ACF JUMP JUMPDEST SWAP2 POP PUSH2 0x35E5 DUP3 PUSH2 0x35A4 JUMP JUMPDEST PUSH1 0x20 DUP3 ADD SWAP1 POP SWAP2 SWAP1 POP JUMP JUMPDEST PUSH1 0x0 PUSH1 0x20 DUP3 ADD SWAP1 POP DUP2 DUP2 SUB PUSH1 0x0 DUP4 ADD MSTORE PUSH2 0x3609 DUP2 PUSH2 0x35CD JUMP JUMPDEST SWAP1 POP SWAP2 SWAP1 POP JUMP JUMPDEST PUSH32 0x446F63756D656E7420616C726561647920616464656400000000000000000000 PUSH1 0x0 DUP3 ADD MSTORE POP JUMP JUMPDEST PUSH1 0x0 PUSH2 0x3646 PUSH1 0x16 DUP4 PUSH2 0x2ACF JUMP JUMPDEST SWAP2 POP PUSH2 0x3651 DUP3 PUSH2 0x3610 JUMP JUMPDEST PUSH1 0x20 DUP3 ADD SWAP1 POP SWAP2 SWAP1 POP JUMP JUMPDEST PUSH1 0x0 PUSH1 0x20 DUP3 ADD SWAP1 POP DUP2 DUP2 SUB PUSH1 0x0 DUP4 ADD MSTORE PUSH2 0x3675 DUP2 PUSH2 0x3639 JUMP JUMPDEST SWAP1 POP SWAP2 SWAP1 POP JUMP JUMPDEST PUSH32 0x5665726966696572206E6F7420666F756E640000000000000000000000000000 PUSH1 0x0 DUP3 ADD MSTORE POP JUMP JUMPDEST PUSH1 0x0 PUSH2 0x36B2 PUSH1 0x12 DUP4 PUSH2 0x2ACF JUMP JUMPDEST SWAP2 POP PUSH2 0x36BD DUP3 PUSH2 0x367C JUMP JUMPDEST PUSH1 0x20 DUP3 ADD SWAP1 POP SWAP2 SWAP1 POP JUMP JUMPDEST PUSH1 0x0 PUSH1 0x20 DUP3 ADD SWAP1 POP DUP2 DUP2 SUB PUSH1 0x0 DUP4 ADD MSTORE PUSH2 0x36E1 DUP2 PUSH2 0x36A5 JUMP JUMPDEST SWAP1 POP SWAP2 SWAP1 POP JUMP JUMPDEST PUSH32 0x5665726966696572206E6F7420617574686F72697A6564000000000000000000 PUSH1 0x0 DUP3 ADD MSTORE POP JUMP JUMPDEST PUSH1 0x0 PUSH2 0x371E PUSH1 0x17 DUP4 PUSH2 0x2ACF JUMP JUMPDEST SWAP2 POP PUSH2 0x3729 DUP3 PUSH2 0x36E8 JUMP JUMPDEST PUSH1 0x20 DUP3 ADD SWAP1 POP SWAP2 SWAP1 POP JUMP JUMPDEST PUSH1 0x0 PUSH1 0x20 DUP3 ADD SWAP1 POP DUP2 DUP2 SUB PUSH1 0x0 DUP4 ADD MSTORE PUSH2 0x374D DUP2 PUSH2 0x3711 JUMP JUMPDEST SWAP1 POP SWAP2 SWAP1 POP JUMP JUMPDEST PUSH32 0x53747564656E74204164647265737320616C7265616479206164646564000000 PUSH1 0x0 DUP3 ADD MSTORE POP JUMP JUMPDEST PUSH1 0x0 PUSH2 0x378A PUSH1 0x1D DUP4 PUSH2 0x2ACF JUMP JUMPDEST SWAP2 POP PUSH2 0x3795 DUP3 PUSH2 0x3754 JUMP JUMPDEST PUSH1 0x20 DUP3 ADD SWAP1 POP SWAP2 SWAP1 POP JUMP JUMPDEST PUSH1 0x0 PUSH1 0x20 DUP3 ADD SWAP1 POP DUP2 DUP2 SUB PUSH1 0x0 DUP4 ADD MSTORE PUSH2 0x37B9 DUP2 PUSH2 0x377D JUMP JUMPDEST SWAP1 POP SWAP2 SWAP1 POP JUMP INVALID LOG2 PUSH5 0x6970667358 0x22 SLT KECCAK256 0xD EQ 0xE8 0xB6 0xBA 0xBE 0xC8 PUSH14 0xEDC794143766E87B65A049174651 PUSH15 0x9A47402CA8447D6DA764736F6C6343 STOP ADDMOD XOR STOP CALLER "
        },
        "methodIdentifiers": {
          "addDocumentDetails(string,string,string,address,address)": "d998c824",
          "addStudentDetails(string,string,string)": "f884658f",
          "addVerifierDetails(string,string,string,string,string)": "00066b9a",
          "deleteDocument(string)": "635994f8",
          "deleteStudentDetails()": "7c48d713",
          "deleteVerifier()": "4403e2dc",
          "documentHashes(uint256)": "8e383c6b",
          "getDocumentDetails(string)": "d29352db",
          "getDocumentsForStudent()": "91974540",
          "getDocumentsForVerifier()": "1a47c5c5",
          "getStudentDetails()": "bc658659",
          "getVerifierDetails(address)": "c20c4325",
          "isDocumentExists(string)": "ee3fb445",
          "isStudentExists()": "e1b84b44",
          "isVerifierExists(address)": "4fe604ab",
          "verifyDocument(string,uint8)": "e4678dfb"
        }
      }
    }
  }
}