{
  "_format": "hh-sol-artifact-1",
  "contractName": "DocuChain",
  "sourceName": "contracts/DocuChain.sol",
  "abi": [
    {
      "inputs": [
        {
          "internalType": "string",
          "name": "_cid",
          "type": "string"
        },
        {
          "internalType": "string",
          "name": "_name",
          "type": "string"
        },
        {
          "internalType": "string",
          "name": "_docType",
          "type": "string"
        },
        {
          "internalType": "string",
          "name": "_purpose",
          "type": "string"
        },
        {
          "internalType": "address",
          "name": "_verifierAddress",
          "type": "address"
        },
        {
          "internalType": "address",
          "name": "_studentAddress",
          "type": "address"
        }
      ],
      "name": "addDocumentDetails",
      "outputs": [],
      "stateMutability": "nonpayable",
      "type": "function"
    },
    {
      "inputs": [
        {
          "internalType": "string",
          "name": "_fullName",
          "type": "string"
        },
        {
          "internalType": "string",
          "name": "_email",
          "type": "string"
        },
        {
          "internalType": "string",
          "name": "_gender",
          "type": "string"
        }
      ],
      "name": "addStudentDetails",
      "outputs": [],
      "stateMutability": "nonpayable",
      "type": "function"
    },
    {
      "inputs": [
        {
          "internalType": "string",
          "name": "_name",
          "type": "string"
        },
        {
          "internalType": "string",
          "name": "_email",
          "type": "string"
        },
        {
          "internalType": "string",
          "name": "_instituteType",
          "type": "string"
        },
        {
          "internalType": "string",
          "name": "_location",
          "type": "string"
        },
        {
          "internalType": "string",
          "name": "_logoCid",
          "type": "string"
        }
      ],
      "name": "addVerifierDetails",
      "outputs": [],
      "stateMutability": "nonpayable",
      "type": "function"
    },
    {
      "inputs": [
        {
          "internalType": "string",
          "name": "_cid",
          "type": "string"
        }
      ],
      "name": "deleteDocument",
      "outputs": [],
      "stateMutability": "nonpayable",
      "type": "function"
    },
    {
      "inputs": [],
      "name": "deleteStudentDetails",
      "outputs": [],
      "stateMutability": "nonpayable",
      "type": "function"
    },
    {
      "inputs": [],
      "name": "deleteVerifier",
      "outputs": [],
      "stateMutability": "nonpayable",
      "type": "function"
    },
    {
      "inputs": [
        {
          "internalType": "uint256",
          "name": "",
          "type": "uint256"
        }
      ],
      "name": "documentHashes",
      "outputs": [
        {
          "internalType": "string",
          "name": "",
          "type": "string"
        }
      ],
      "stateMutability": "view",
      "type": "function"
    },
    {
      "inputs": [],
      "name": "getAllVerifiers",
      "outputs": [
        {
          "components": [
            {
              "internalType": "address",
              "name": "verifierAddress",
              "type": "address"
            },
            {
              "internalType": "string",
              "name": "name",
              "type": "string"
            },
            {
              "internalType": "string",
              "name": "email",
              "type": "string"
            },
            {
              "internalType": "string",
              "name": "instituteType",
              "type": "string"
            },
            {
              "internalType": "string",
              "name": "location",
              "type": "string"
            },
            {
              "internalType": "string",
              "name": "logoCid",
              "type": "string"
            }
          ],
          "internalType": "struct DocuChain.Verifier[]",
          "name": "",
          "type": "tuple[]"
        }
      ],
      "stateMutability": "view",
      "type": "function"
    },
    {
      "inputs": [
        {
          "internalType": "string",
          "name": "_cid",
          "type": "string"
        }
      ],
      "name": "getDocumentDetails",
      "outputs": [
        {
          "components": [
            {
              "internalType": "string",
              "name": "cid",
              "type": "string"
            },
            {
              "internalType": "string",
              "name": "docName",
              "type": "string"
            },
            {
              "internalType": "string",
              "name": "docType",
              "type": "string"
            },
            {
              "internalType": "string",
              "name": "purpose",
              "type": "string"
            },
            {
              "internalType": "address",
              "name": "verifierAddress",
              "type": "address"
            },
            {
              "internalType": "address",
              "name": "studentAddress",
              "type": "address"
            },
            {
              "internalType": "enum DocuChain.VerificationStatus",
              "name": "status",
              "type": "uint8"
            }
          ],
          "internalType": "struct DocuChain.Document",
          "name": "",
          "type": "tuple"
        }
      ],
      "stateMutability": "view",
      "type": "function"
    },
    {
      "inputs": [],
      "name": "getDocumentsForStudent",
      "outputs": [
        {
          "components": [
            {
              "internalType": "string",
              "name": "cid",
              "type": "string"
            },
            {
              "internalType": "string",
              "name": "docName",
              "type": "string"
            },
            {
              "internalType": "string",
              "name": "docType",
              "type": "string"
            },
            {
              "internalType": "string",
              "name": "purpose",
              "type": "string"
            },
            {
              "internalType": "address",
              "name": "verifierAddress",
              "type": "address"
            },
            {
              "internalType": "address",
              "name": "studentAddress",
              "type": "address"
            },
            {
              "internalType": "enum DocuChain.VerificationStatus",
              "name": "status",
              "type": "uint8"
            }
          ],
          "internalType": "struct DocuChain.Document[]",
          "name": "",
          "type": "tuple[]"
        }
      ],
      "stateMutability": "view",
      "type": "function"
    },
    {
      "inputs": [],
      "name": "getDocumentsForVerifier",
      "outputs": [
        {
          "components": [
            {
              "internalType": "string",
              "name": "cid",
              "type": "string"
            },
            {
              "internalType": "string",
              "name": "docName",
              "type": "string"
            },
            {
              "internalType": "string",
              "name": "docType",
              "type": "string"
            },
            {
              "internalType": "string",
              "name": "purpose",
              "type": "string"
            },
            {
              "internalType": "address",
              "name": "verifierAddress",
              "type": "address"
            },
            {
              "internalType": "address",
              "name": "studentAddress",
              "type": "address"
            },
            {
              "internalType": "enum DocuChain.VerificationStatus",
              "name": "status",
              "type": "uint8"
            }
          ],
          "internalType": "struct DocuChain.Document[]",
          "name": "",
          "type": "tuple[]"
        }
      ],
      "stateMutability": "view",
      "type": "function"
    },
    {
      "inputs": [],
      "name": "getStudentDetails",
      "outputs": [
        {
          "components": [
            {
              "internalType": "address",
              "name": "studentAddress",
              "type": "address"
            },
            {
              "internalType": "string",
              "name": "fullName",
              "type": "string"
            },
            {
              "internalType": "string",
              "name": "email",
              "type": "string"
            },
            {
              "internalType": "string",
              "name": "gender",
              "type": "string"
            }
          ],
          "internalType": "struct DocuChain.Student",
          "name": "",
          "type": "tuple"
        }
      ],
      "stateMutability": "view",
      "type": "function"
    },
    {
      "inputs": [
        {
          "internalType": "address",
          "name": "_address",
          "type": "address"
        }
      ],
      "name": "getVerifierDetails",
      "outputs": [
        {
          "components": [
            {
              "internalType": "address",
              "name": "verifierAddress",
              "type": "address"
            },
            {
              "internalType": "string",
              "name": "name",
              "type": "string"
            },
            {
              "internalType": "string",
              "name": "email",
              "type": "string"
            },
            {
              "internalType": "string",
              "name": "instituteType",
              "type": "string"
            },
            {
              "internalType": "string",
              "name": "location",
              "type": "string"
            },
            {
              "internalType": "string",
              "name": "logoCid",
              "type": "string"
            }
          ],
          "internalType": "struct DocuChain.Verifier",
          "name": "",
          "type": "tuple"
        }
      ],
      "stateMutability": "view",
      "type": "function"
    },
    {
      "inputs": [
        {
          "internalType": "string",
          "name": "_cid",
          "type": "string"
        }
      ],
      "name": "isDocumentExists",
      "outputs": [
        {
          "internalType": "bool",
          "name": "",
          "type": "bool"
        }
      ],
      "stateMutability": "view",
      "type": "function"
    },
    {
      "inputs": [],
      "name": "isStudentExists",
      "outputs": [
        {
          "internalType": "bool",
          "name": "",
          "type": "bool"
        }
      ],
      "stateMutability": "view",
      "type": "function"
    },
    {
      "inputs": [
        {
          "internalType": "address",
          "name": "_address",
          "type": "address"
        }
      ],
      "name": "isVerifierExists",
      "outputs": [
        {
          "internalType": "bool",
          "name": "",
          "type": "bool"
        }
      ],
      "stateMutability": "view",
      "type": "function"
    },
    {
      "inputs": [
        {
          "internalType": "uint256",
          "name": "",
          "type": "uint256"
        }
      ],
      "name": "verifiersList",
      "outputs": [
        {
          "internalType": "address",
          "name": "",
          "type": "address"
        }
      ],
      "stateMutability": "view",
      "type": "function"
    },
    {
      "inputs": [
        {
          "internalType": "string",
          "name": "_cid",
          "type": "string"
        },
        {
          "internalType": "enum DocuChain.VerificationStatus",
          "name": "_status",
          "type": "uint8"
        }
      ],
      "name": "verifyDocument",
      "outputs": [],
      "stateMutability": "nonpayable",
      "type": "function"
    }
  ],
  "bytecode": "0x608060405234801561001057600080fd5b506141b5806100206000396000f3fe608060405234801561001057600080fd5b50600436106101155760003560e01c8063af8d1555116100a2578063d29352db11610071578063d29352db146102ba578063e1b84b44146102ea578063e4678dfb14610308578063ee3fb44514610324578063f884658f1461035457610115565b8063af8d15551461021e578063bc6586591461023c578063c20c43251461025a578063d1f1c5d11461028a57610115565b8063635994f8116100e9578063635994f81461018e5780637c48d713146101aa5780638e383c6b146101b457806391974540146101e457806397f741a61461020257610115565b8062066b9a1461011a5780631a47c5c5146101365780634403e2dc146101545780634fe604ab1461015e575b600080fd5b610134600480360381019061012f9190612d85565b610370565b005b61013e61055d565b60405161014b9190613136565b60405180910390f35b61015c610a54565b005b61017860048036038101906101739190613184565b610b57565b60405161018591906131cc565b60405180910390f35b6101a860048036038101906101a391906131e7565b610bf2565b005b6101b2610df6565b005b6101ce60048036038101906101c99190613266565b610f60565b6040516101db91906132dd565b60405180910390f35b6101ec61100c565b6040516101f99190613136565b60405180910390f35b61021c600480360381019061021791906132ff565b611503565b005b610226611802565b6040516102339190613563565b60405180910390f35b610244611cbc565b60405161025191906135f6565b60405180910390f35b610274600480360381019061026f9190613184565b611f1e565b60405161028191906136bd565b60405180910390f35b6102a4600480360381019061029f9190613266565b6122a7565b6040516102b191906136ee565b60405180910390f35b6102d460048036038101906102cf91906131e7565b6122e6565b6040516102e191906137ba565b60405180910390f35b6102f2612695565b6040516102ff91906131cc565b60405180910390f35b610322600480360381019061031d9190613801565b61272d565b005b61033e600480360381019061033991906131e7565b6128b9565b60405161034b91906131cc565b60405180910390f35b61036e6004803603810190610369919061385d565b6128f3565b005b61037933610b57565b156103b9576040517f08c379a00000000000000000000000000000000000000000000000000000000081526004016103b090613950565b60405180910390fd5b6040518060c001604052803373ffffffffffffffffffffffffffffffffffffffff16815260200186815260200185815260200184815260200183815260200182815250600260003373ffffffffffffffffffffffffffffffffffffffff1673ffffffffffffffffffffffffffffffffffffffff16815260200190815260200160002060008201518160000160006101000a81548173ffffffffffffffffffffffffffffffffffffffff021916908373ffffffffffffffffffffffffffffffffffffffff16021790555060208201518160010190816104979190613b7c565b5060408201518160020190816104ad9190613b7c565b5060608201518160030190816104c39190613b7c565b5060808201518160040190816104d99190613b7c565b5060a08201518160050190816104ef9190613b7c565b509050506004339080600181540180825580915050600190039060005260206000200160009091909190916101000a81548173ffffffffffffffffffffffffffffffffffffffff021916908373ffffffffffffffffffffffffffffffffffffffff1602179055505050505050565b6060600060038054905067ffffffffffffffff8111156105805761057f612c5a565b5b6040519080825280602002602001820160405280156105b957816020015b6105a6612ac9565b81526020019060019003908161059e5790505b5090506000805b600380549050811015610a48576000600382815481106105e3576105e2613c4e565b5b9060005260206000200180546105f89061399f565b80601f01602080910402602001604051908101604052809291908181526020018280546106249061399f565b80156106715780601f1061064657610100808354040283529160200191610671565b820191906000526020600020905b81548152906001019060200180831161065457829003601f168201915b50505050509050600060018260405161068a9190613cb9565b90815260200160405180910390206040518060e00160405290816000820180546106b39061399f565b80601f01602080910402602001604051908101604052809291908181526020018280546106df9061399f565b801561072c5780601f106107015761010080835404028352916020019161072c565b820191906000526020600020905b81548152906001019060200180831161070f57829003601f168201915b505050505081526020016001820180546107459061399f565b80601f01602080910402602001604051908101604052809291908181526020018280546107719061399f565b80156107be5780601f10610793576101008083540402835291602001916107be565b820191906000526020600020905b8154815290600101906020018083116107a157829003601f168201915b505050505081526020016002820180546107d79061399f565b80601f01602080910402602001604051908101604052809291908181526020018280546108039061399f565b80156108505780601f1061082557610100808354040283529160200191610850565b820191906000526020600020905b81548152906001019060200180831161083357829003601f168201915b505050505081526020016003820180546108699061399f565b80601f01602080910402602001604051908101604052809291908181526020018280546108959061399f565b80156108e25780601f106108b7576101008083540402835291602001916108e2565b820191906000526020600020905b8154815290600101906020018083116108c557829003601f168201915b505050505081526020016004820160009054906101000a900473ffffffffffffffffffffffffffffffffffffffff1673ffffffffffffffffffffffffffffffffffffffff1673ffffffffffffffffffffffffffffffffffffffff1681526020016005820160009054906101000a900473ffffffffffffffffffffffffffffffffffffffff1673ffffffffffffffffffffffffffffffffffffffff1673ffffffffffffffffffffffffffffffffffffffff1681526020016005820160149054906101000a900460ff1660028111156109bc576109bb612f78565b5b60028111156109ce576109cd612f78565b5b8152505090503373ffffffffffffffffffffffffffffffffffffffff16816080015173ffffffffffffffffffffffffffffffffffffffff1603610a395780858581518110610a1f57610a1e613c4e565b5b60200260200101819052508380610a3590613cff565b9450505b505080806001019150506105c0565b50808252819250505090565b610a5d33610b57565b610a9c576040517f08c379a0000000000000000000000000000000000000000000000000000000008152600401610a9390613d93565b60405180910390fd5b600260003373ffffffffffffffffffffffffffffffffffffffff1673ffffffffffffffffffffffffffffffffffffffff168152602001908152602001600020600080820160006101000a81549073ffffffffffffffffffffffffffffffffffffffff0219169055600182016000610b139190612b44565b600282016000610b239190612b44565b600382016000610b339190612b44565b600482016000610b439190612b44565b600582016000610b539190612b44565b5050565b60008073ffffffffffffffffffffffffffffffffffffffff16600260008473ffffffffffffffffffffffffffffffffffffffff1673ffffffffffffffffffffffffffffffffffffffff16815260200190815260200160002060000160009054906101000a900473ffffffffffffffffffffffffffffffffffffffff1673ffffffffffffffffffffffffffffffffffffffff1614159050919050565b610bfb816128b9565b610c3a576040517f08c379a0000000000000000000000000000000000000000000000000000000008152600401610c3190613dff565b60405180910390fd5b610c42612695565b610c81576040517f08c379a0000000000000000000000000000000000000000000000000000000008152600401610c7890613e6b565b60405180910390fd5b3373ffffffffffffffffffffffffffffffffffffffff16600182604051610ca89190613cb9565b908152602001604051809103902060050160009054906101000a900473ffffffffffffffffffffffffffffffffffffffff1673ffffffffffffffffffffffffffffffffffffffff1614610d30576040517f08c379a0000000000000000000000000000000000000000000000000000000008152600401610d2790613ed7565b60405180910390fd5b600181604051610d409190613cb9565b908152602001604051809103902060008082016000610d5f9190612b44565b600182016000610d6f9190612b44565b600282016000610d7f9190612b44565b600382016000610d8f9190612b44565b6004820160006101000a81549073ffffffffffffffffffffffffffffffffffffffff02191690556005820160006101000a81549073ffffffffffffffffffffffffffffffffffffffff02191690556005820160146101000a81549060ff0219169055505050565b600073ffffffffffffffffffffffffffffffffffffffff166000803373ffffffffffffffffffffffffffffffffffffffff1673ffffffffffffffffffffffffffffffffffffffff16815260200190815260200160002060000160009054906101000a900473ffffffffffffffffffffffffffffffffffffffff1673ffffffffffffffffffffffffffffffffffffffff1603610ec6576040517f08c379a0000000000000000000000000000000000000000000000000000000008152600401610ebd90613f43565b60405180910390fd5b6000803373ffffffffffffffffffffffffffffffffffffffff1673ffffffffffffffffffffffffffffffffffffffff168152602001908152602001600020600080820160006101000a81549073ffffffffffffffffffffffffffffffffffffffff0219169055600182016000610f3c9190612b44565b600282016000610f4c9190612b44565b600382016000610f5c9190612b44565b5050565b60038181548110610f7057600080fd5b906000526020600020016000915090508054610f8b9061399f565b80601f0160208091040260200160405190810160405280929190818152602001828054610fb79061399f565b80156110045780601f10610fd957610100808354040283529160200191611004565b820191906000526020600020905b815481529060010190602001808311610fe757829003601f168201915b505050505081565b6060600060038054905067ffffffffffffffff81111561102f5761102e612c5a565b5b60405190808252806020026020018201604052801561106857816020015b611055612ac9565b81526020019060019003908161104d5790505b5090506000805b6003805490508110156114f75760006003828154811061109257611091613c4e565b5b9060005260206000200180546110a79061399f565b80601f01602080910402602001604051908101604052809291908181526020018280546110d39061399f565b80156111205780601f106110f557610100808354040283529160200191611120565b820191906000526020600020905b81548152906001019060200180831161110357829003601f168201915b5050505050905060006001826040516111399190613cb9565b90815260200160405180910390206040518060e00160405290816000820180546111629061399f565b80601f016020809104026020016040519081016040528092919081815260200182805461118e9061399f565b80156111db5780601f106111b0576101008083540402835291602001916111db565b820191906000526020600020905b8154815290600101906020018083116111be57829003601f168201915b505050505081526020016001820180546111f49061399f565b80601f01602080910402602001604051908101604052809291908181526020018280546112209061399f565b801561126d5780601f106112425761010080835404028352916020019161126d565b820191906000526020600020905b81548152906001019060200180831161125057829003601f168201915b505050505081526020016002820180546112869061399f565b80601f01602080910402602001604051908101604052809291908181526020018280546112b29061399f565b80156112ff5780601f106112d4576101008083540402835291602001916112ff565b820191906000526020600020905b8154815290600101906020018083116112e257829003601f168201915b505050505081526020016003820180546113189061399f565b80601f01602080910402602001604051908101604052809291908181526020018280546113449061399f565b80156113915780601f1061136657610100808354040283529160200191611391565b820191906000526020600020905b81548152906001019060200180831161137457829003601f168201915b505050505081526020016004820160009054906101000a900473ffffffffffffffffffffffffffffffffffffffff1673ffffffffffffffffffffffffffffffffffffffff1673ffffffffffffffffffffffffffffffffffffffff1681526020016005820160009054906101000a900473ffffffffffffffffffffffffffffffffffffffff1673ffffffffffffffffffffffffffffffffffffffff1673ffffffffffffffffffffffffffffffffffffffff1681526020016005820160149054906101000a900460ff16600281111561146b5761146a612f78565b5b600281111561147d5761147c612f78565b5b8152505090503373ffffffffffffffffffffffffffffffffffffffff168160a0015173ffffffffffffffffffffffffffffffffffffffff16036114e857808585815181106114ce576114cd613c4e565b5b602002602001018190525083806114e490613cff565b9450505b5050808060010191505061106f565b50808252819250505090565b600073ffffffffffffffffffffffffffffffffffffffff166000803373ffffffffffffffffffffffffffffffffffffffff1673ffffffffffffffffffffffffffffffffffffffff16815260200190815260200160002060000160009054906101000a900473ffffffffffffffffffffffffffffffffffffffff1673ffffffffffffffffffffffffffffffffffffffff16036115d3576040517f08c379a00000000000000000000000000000000000000000000000000000000081526004016115ca90613faf565b60405180910390fd5b6115dc866128b9565b1561161c576040517f08c379a00000000000000000000000000000000000000000000000000000000081526004016116139061401b565b60405180910390fd5b6003869080600181540180825580915050600190039060005260206000200160009091909190915090816116509190613b7c565b506040518060e001604052808781526020018681526020018581526020018481526020018373ffffffffffffffffffffffffffffffffffffffff1681526020018273ffffffffffffffffffffffffffffffffffffffff168152602001600060028111156116c0576116bf612f78565b5b8152506001876040516116d39190613cb9565b908152602001604051809103902060008201518160000190816116f69190613b7c565b50602082015181600101908161170c9190613b7c565b5060408201518160020190816117229190613b7c565b5060608201518160030190816117389190613b7c565b5060808201518160040160006101000a81548173ffffffffffffffffffffffffffffffffffffffff021916908373ffffffffffffffffffffffffffffffffffffffff16021790555060a08201518160050160006101000a81548173ffffffffffffffffffffffffffffffffffffffff021916908373ffffffffffffffffffffffffffffffffffffffff16021790555060c08201518160050160146101000a81548160ff021916908360028111156117f2576117f1612f78565b5b0217905550905050505050505050565b6060600060048054905067ffffffffffffffff81111561182557611824612c5a565b5b60405190808252806020026020018201604052801561185e57816020015b61184b612b84565b8152602001906001900390816118435790505b5090506000805b600480549050811015611cb0576118b96004828154811061188957611888613c4e565b5b9060005260206000200160009054906101000a900473ffffffffffffffffffffffffffffffffffffffff16610b57565b15611ca35760026000600483815481106118d6576118d5613c4e565b5b9060005260206000200160009054906101000a900473ffffffffffffffffffffffffffffffffffffffff1673ffffffffffffffffffffffffffffffffffffffff1673ffffffffffffffffffffffffffffffffffffffff1681526020019081526020016000206040518060c00160405290816000820160009054906101000a900473ffffffffffffffffffffffffffffffffffffffff1673ffffffffffffffffffffffffffffffffffffffff1673ffffffffffffffffffffffffffffffffffffffff1681526020016001820180546119ac9061399f565b80601f01602080910402602001604051908101604052809291908181526020018280546119d89061399f565b8015611a255780601f106119fa57610100808354040283529160200191611a25565b820191906000526020600020905b815481529060010190602001808311611a0857829003601f168201915b50505050508152602001600282018054611a3e9061399f565b80601f0160208091040260200160405190810160405280929190818152602001828054611a6a9061399f565b8015611ab75780601f10611a8c57610100808354040283529160200191611ab7565b820191906000526020600020905b815481529060010190602001808311611a9a57829003601f168201915b50505050508152602001600382018054611ad09061399f565b80601f0160208091040260200160405190810160405280929190818152602001828054611afc9061399f565b8015611b495780601f10611b1e57610100808354040283529160200191611b49565b820191906000526020600020905b815481529060010190602001808311611b2c57829003601f168201915b50505050508152602001600482018054611b629061399f565b80601f0160208091040260200160405190810160405280929190818152602001828054611b8e9061399f565b8015611bdb5780601f10611bb057610100808354040283529160200191611bdb565b820191906000526020600020905b815481529060010190602001808311611bbe57829003601f168201915b50505050508152602001600582018054611bf49061399f565b80601f0160208091040260200160405190810160405280929190818152602001828054611c209061399f565b8015611c6d5780601f10611c4257610100808354040283529160200191611c6d565b820191906000526020600020905b815481529060010190602001808311611c5057829003601f168201915b505050505081525050838381518110611c8957611c88613c4e565b5b60200260200101819052508180611c9f90613cff565b9250505b8080600101915050611865565b50808252819250505090565b611cc4612bd0565b6000803373ffffffffffffffffffffffffffffffffffffffff1673ffffffffffffffffffffffffffffffffffffffff1681526020019081526020016000206040518060800160405290816000820160009054906101000a900473ffffffffffffffffffffffffffffffffffffffff1673ffffffffffffffffffffffffffffffffffffffff1673ffffffffffffffffffffffffffffffffffffffff168152602001600182018054611d739061399f565b80601f0160208091040260200160405190810160405280929190818152602001828054611d9f9061399f565b8015611dec5780601f10611dc157610100808354040283529160200191611dec565b820191906000526020600020905b815481529060010190602001808311611dcf57829003601f168201915b50505050508152602001600282018054611e059061399f565b80601f0160208091040260200160405190810160405280929190818152602001828054611e319061399f565b8015611e7e5780601f10611e5357610100808354040283529160200191611e7e565b820191906000526020600020905b815481529060010190602001808311611e6157829003601f168201915b50505050508152602001600382018054611e979061399f565b80601f0160208091040260200160405190810160405280929190818152602001828054611ec39061399f565b8015611f105780601f10611ee557610100808354040283529160200191611f10565b820191906000526020600020905b815481529060010190602001808311611ef357829003601f168201915b505050505081525050905090565b611f26612b84565b600260008373ffffffffffffffffffffffffffffffffffffffff1673ffffffffffffffffffffffffffffffffffffffff1681526020019081526020016000206040518060c00160405290816000820160009054906101000a900473ffffffffffffffffffffffffffffffffffffffff1673ffffffffffffffffffffffffffffffffffffffff1673ffffffffffffffffffffffffffffffffffffffff168152602001600182018054611fd69061399f565b80601f01602080910402602001604051908101604052809291908181526020018280546120029061399f565b801561204f5780601f106120245761010080835404028352916020019161204f565b820191906000526020600020905b81548152906001019060200180831161203257829003601f168201915b505050505081526020016002820180546120689061399f565b80601f01602080910402602001604051908101604052809291908181526020018280546120949061399f565b80156120e15780601f106120b6576101008083540402835291602001916120e1565b820191906000526020600020905b8154815290600101906020018083116120c457829003601f168201915b505050505081526020016003820180546120fa9061399f565b80601f01602080910402602001604051908101604052809291908181526020018280546121269061399f565b80156121735780601f1061214857610100808354040283529160200191612173565b820191906000526020600020905b81548152906001019060200180831161215657829003601f168201915b5050505050815260200160048201805461218c9061399f565b80601f01602080910402602001604051908101604052809291908181526020018280546121b89061399f565b80156122055780601f106121da57610100808354040283529160200191612205565b820191906000526020600020905b8154815290600101906020018083116121e857829003601f168201915b5050505050815260200160058201805461221e9061399f565b80601f016020809104026020016040519081016040528092919081815260200182805461224a9061399f565b80156122975780601f1061226c57610100808354040283529160200191612297565b820191906000526020600020905b81548152906001019060200180831161227a57829003601f168201915b5050505050815250509050919050565b600481815481106122b757600080fd5b906000526020600020016000915054906101000a900473ffffffffffffffffffffffffffffffffffffffff1681565b6122ee612ac9565b6122f7826128b9565b612336576040517f08c379a000000000000000000000000000000000000000000000000000000000815260040161232d90613dff565b60405180910390fd5b6001826040516123469190613cb9565b90815260200160405180910390206040518060e001604052908160008201805461236f9061399f565b80601f016020809104026020016040519081016040528092919081815260200182805461239b9061399f565b80156123e85780601f106123bd576101008083540402835291602001916123e8565b820191906000526020600020905b8154815290600101906020018083116123cb57829003601f168201915b505050505081526020016001820180546124019061399f565b80601f016020809104026020016040519081016040528092919081815260200182805461242d9061399f565b801561247a5780601f1061244f5761010080835404028352916020019161247a565b820191906000526020600020905b81548152906001019060200180831161245d57829003601f168201915b505050505081526020016002820180546124939061399f565b80601f01602080910402602001604051908101604052809291908181526020018280546124bf9061399f565b801561250c5780601f106124e15761010080835404028352916020019161250c565b820191906000526020600020905b8154815290600101906020018083116124ef57829003601f168201915b505050505081526020016003820180546125259061399f565b80601f01602080910402602001604051908101604052809291908181526020018280546125519061399f565b801561259e5780601f106125735761010080835404028352916020019161259e565b820191906000526020600020905b81548152906001019060200180831161258157829003601f168201915b505050505081526020016004820160009054906101000a900473ffffffffffffffffffffffffffffffffffffffff1673ffffffffffffffffffffffffffffffffffffffff1673ffffffffffffffffffffffffffffffffffffffff1681526020016005820160009054906101000a900473ffffffffffffffffffffffffffffffffffffffff1673ffffffffffffffffffffffffffffffffffffffff1673ffffffffffffffffffffffffffffffffffffffff1681526020016005820160149054906101000a900460ff16600281111561267857612677612f78565b5b600281111561268a57612689612f78565b5b815250509050919050565b60008073ffffffffffffffffffffffffffffffffffffffff166000803373ffffffffffffffffffffffffffffffffffffffff1673ffffffffffffffffffffffffffffffffffffffff16815260200190815260200160002060000160009054906101000a900473ffffffffffffffffffffffffffffffffffffffff1673ffffffffffffffffffffffffffffffffffffffff161415905090565b612736826128b9565b612775576040517f08c379a000000000000000000000000000000000000000000000000000000000815260040161276c90613dff565b60405180910390fd5b61277e33610b57565b6127bd576040517f08c379a00000000000000000000000000000000000000000000000000000000081526004016127b490614087565b60405180910390fd5b3373ffffffffffffffffffffffffffffffffffffffff166001836040516127e49190613cb9565b908152602001604051809103902060040160009054906101000a900473ffffffffffffffffffffffffffffffffffffffff1673ffffffffffffffffffffffffffffffffffffffff161461286c576040517f08c379a0000000000000000000000000000000000000000000000000000000008152600401612863906140f3565b60405180910390fd5b8060018360405161287d9190613cb9565b908152602001604051809103902060050160146101000a81548160ff021916908360028111156128b0576128af612f78565b5b02179055505050565b6000806001836040516128cc9190613cb9565b908152602001604051809103902060000180546128e89061399f565b905014159050919050565b600073ffffffffffffffffffffffffffffffffffffffff166000803373ffffffffffffffffffffffffffffffffffffffff1673ffffffffffffffffffffffffffffffffffffffff16815260200190815260200160002060000160009054906101000a900473ffffffffffffffffffffffffffffffffffffffff1673ffffffffffffffffffffffffffffffffffffffff16146129c3576040517f08c379a00000000000000000000000000000000000000000000000000000000081526004016129ba9061415f565b60405180910390fd5b60405180608001604052803373ffffffffffffffffffffffffffffffffffffffff168152602001848152602001838152602001828152506000803373ffffffffffffffffffffffffffffffffffffffff1673ffffffffffffffffffffffffffffffffffffffff16815260200190815260200160002060008201518160000160006101000a81548173ffffffffffffffffffffffffffffffffffffffff021916908373ffffffffffffffffffffffffffffffffffffffff1602179055506020820151816001019081612a949190613b7c565b506040820151816002019081612aaa9190613b7c565b506060820151816003019081612ac09190613b7c565b50905050505050565b6040518060e0016040528060608152602001606081526020016060815260200160608152602001600073ffffffffffffffffffffffffffffffffffffffff168152602001600073ffffffffffffffffffffffffffffffffffffffff16815260200160006002811115612b3e57612b3d612f78565b5b81525090565b508054612b509061399f565b6000825580601f10612b625750612b81565b601f016020900490600052602060002090810190612b809190612c0e565b5b50565b6040518060c00160405280600073ffffffffffffffffffffffffffffffffffffffff16815260200160608152602001606081526020016060815260200160608152602001606081525090565b6040518060800160405280600073ffffffffffffffffffffffffffffffffffffffff1681526020016060815260200160608152602001606081525090565b5b80821115612c27576000816000905550600101612c0f565b5090565b6000604051905090565b600080fd5b600080fd5b600080fd5b600080fd5b6000601f19601f8301169050919050565b7f4e487b7100000000000000000000000000000000000000000000000000000000600052604160045260246000fd5b612c9282612c49565b810181811067ffffffffffffffff82111715612cb157612cb0612c5a565b5b80604052505050565b6000612cc4612c2b565b9050612cd08282612c89565b919050565b600067ffffffffffffffff821115612cf057612cef612c5a565b5b612cf982612c49565b9050602081019050919050565b82818337600083830152505050565b6000612d28612d2384612cd5565b612cba565b905082815260208101848484011115612d4457612d43612c44565b5b612d4f848285612d06565b509392505050565b600082601f830112612d6c57612d6b612c3f565b5b8135612d7c848260208601612d15565b91505092915050565b600080600080600060a08688031215612da157612da0612c35565b5b600086013567ffffffffffffffff811115612dbf57612dbe612c3a565b5b612dcb88828901612d57565b955050602086013567ffffffffffffffff811115612dec57612deb612c3a565b5b612df888828901612d57565b945050604086013567ffffffffffffffff811115612e1957612e18612c3a565b5b612e2588828901612d57565b935050606086013567ffffffffffffffff811115612e4657612e45612c3a565b5b612e5288828901612d57565b925050608086013567ffffffffffffffff811115612e7357612e72612c3a565b5b612e7f88828901612d57565b9150509295509295909350565b600081519050919050565b600082825260208201905092915050565b6000819050602082019050919050565b600081519050919050565b600082825260208201905092915050565b60005b83811015612ef2578082015181840152602081019050612ed7565b60008484015250505050565b6000612f0982612eb8565b612f138185612ec3565b9350612f23818560208601612ed4565b612f2c81612c49565b840191505092915050565b600073ffffffffffffffffffffffffffffffffffffffff82169050919050565b6000612f6282612f37565b9050919050565b612f7281612f57565b82525050565b7f4e487b7100000000000000000000000000000000000000000000000000000000600052602160045260246000fd5b60038110612fb857612fb7612f78565b5b50565b6000819050612fc982612fa7565b919050565b6000612fd982612fbb565b9050919050565b612fe981612fce565b82525050565b600060e083016000830151848203600086015261300c8282612efe565b915050602083015184820360208601526130268282612efe565b915050604083015184820360408601526130408282612efe565b9150506060830151848203606086015261305a8282612efe565b915050608083015161306f6080860182612f69565b5060a083015161308260a0860182612f69565b5060c083015161309560c0860182612fe0565b508091505092915050565b60006130ac8383612fef565b905092915050565b6000602082019050919050565b60006130cc82612e8c565b6130d68185612e97565b9350836020820285016130e885612ea8565b8060005b85811015613124578484038952815161310585826130a0565b9450613110836130b4565b925060208a019950506001810190506130ec565b50829750879550505050505092915050565b6000602082019050818103600083015261315081846130c1565b905092915050565b61316181612f57565b811461316c57600080fd5b50565b60008135905061317e81613158565b92915050565b60006020828403121561319a57613199612c35565b5b60006131a88482850161316f565b91505092915050565b60008115159050919050565b6131c6816131b1565b82525050565b60006020820190506131e160008301846131bd565b92915050565b6000602082840312156131fd576131fc612c35565b5b600082013567ffffffffffffffff81111561321b5761321a612c3a565b5b61322784828501612d57565b91505092915050565b6000819050919050565b61324381613230565b811461324e57600080fd5b50565b6000813590506132608161323a565b92915050565b60006020828403121561327c5761327b612c35565b5b600061328a84828501613251565b91505092915050565b600082825260208201905092915050565b60006132af82612eb8565b6132b98185613293565b93506132c9818560208601612ed4565b6132d281612c49565b840191505092915050565b600060208201905081810360008301526132f781846132a4565b905092915050565b60008060008060008060c0878903121561331c5761331b612c35565b5b600087013567ffffffffffffffff81111561333a57613339612c3a565b5b61334689828a01612d57565b965050602087013567ffffffffffffffff81111561336757613366612c3a565b5b61337389828a01612d57565b955050604087013567ffffffffffffffff81111561339457613393612c3a565b5b6133a089828a01612d57565b945050606087013567ffffffffffffffff8111156133c1576133c0612c3a565b5b6133cd89828a01612d57565b93505060806133de89828a0161316f565b92505060a06133ef89828a0161316f565b9150509295509295509295565b600081519050919050565b600082825260208201905092915050565b6000819050602082019050919050565b600060c0830160008301516134406000860182612f69565b50602083015184820360208601526134588282612efe565b915050604083015184820360408601526134728282612efe565b9150506060830151848203606086015261348c8282612efe565b915050608083015184820360808601526134a68282612efe565b91505060a083015184820360a08601526134c08282612efe565b9150508091505092915050565b60006134d98383613428565b905092915050565b6000602082019050919050565b60006134f9826133fc565b6135038185613407565b93508360208202850161351585613418565b8060005b85811015613551578484038952815161353285826134cd565b945061353d836134e1565b925060208a01995050600181019050613519565b50829750879550505050505092915050565b6000602082019050818103600083015261357d81846134ee565b905092915050565b600060808301600083015161359d6000860182612f69565b50602083015184820360208601526135b58282612efe565b915050604083015184820360408601526135cf8282612efe565b915050606083015184820360608601526135e98282612efe565b9150508091505092915050565b600060208201905081810360008301526136108184613585565b905092915050565b600060c0830160008301516136306000860182612f69565b50602083015184820360208601526136488282612efe565b915050604083015184820360408601526136628282612efe565b9150506060830151848203606086015261367c8282612efe565b915050608083015184820360808601526136968282612efe565b91505060a083015184820360a08601526136b08282612efe565b9150508091505092915050565b600060208201905081810360008301526136d78184613618565b905092915050565b6136e881612f57565b82525050565b600060208201905061370360008301846136df565b92915050565b600060e08301600083015184820360008601526137268282612efe565b915050602083015184820360208601526137408282612efe565b9150506040830151848203604086015261375a8282612efe565b915050606083015184820360608601526137748282612efe565b91505060808301516137896080860182612f69565b5060a083015161379c60a0860182612f69565b5060c08301516137af60c0860182612fe0565b508091505092915050565b600060208201905081810360008301526137d48184613709565b905092915050565b600381106137e957600080fd5b50565b6000813590506137fb816137dc565b92915050565b6000806040838503121561381857613817612c35565b5b600083013567ffffffffffffffff81111561383657613835612c3a565b5b61384285828601612d57565b9250506020613853858286016137ec565b9150509250929050565b60008060006060848603121561387657613875612c35565b5b600084013567ffffffffffffffff81111561389457613893612c3a565b5b6138a086828701612d57565b935050602084013567ffffffffffffffff8111156138c1576138c0612c3a565b5b6138cd86828701612d57565b925050604084013567ffffffffffffffff8111156138ee576138ed612c3a565b5b6138fa86828701612d57565b9150509250925092565b7f566572696669657220616c726561647920657869737473000000000000000000600082015250565b600061393a601783613293565b915061394582613904565b602082019050919050565b600060208201905081810360008301526139698161392d565b9050919050565b7f4e487b7100000000000000000000000000000000000000000000000000000000600052602260045260246000fd5b600060028204905060018216806139b757607f821691505b6020821081036139ca576139c9613970565b5b50919050565b60008190508160005260206000209050919050565b60006020601f8301049050919050565b600082821b905092915050565b600060088302613a327fffffffffffffffffffffffffffffffffffffffffffffffffffffffffffffffff826139f5565b613a3c86836139f5565b95508019841693508086168417925050509392505050565b6000819050919050565b6000613a79613a74613a6f84613230565b613a54565b613230565b9050919050565b6000819050919050565b613a9383613a5e565b613aa7613a9f82613a80565b848454613a02565b825550505050565b600090565b613abc613aaf565b613ac7818484613a8a565b505050565b5b81811015613aeb57613ae0600082613ab4565b600181019050613acd565b5050565b601f821115613b3057613b01816139d0565b613b0a846139e5565b81016020851015613b19578190505b613b2d613b25856139e5565b830182613acc565b50505b505050565b600082821c905092915050565b6000613b5360001984600802613b35565b1980831691505092915050565b6000613b6c8383613b42565b9150826002028217905092915050565b613b8582612eb8565b67ffffffffffffffff811115613b9e57613b9d612c5a565b5b613ba8825461399f565b613bb3828285613aef565b600060209050601f831160018114613be65760008415613bd4578287015190505b613bde8582613b60565b865550613c46565b601f198416613bf4866139d0565b60005b82811015613c1c57848901518255600182019150602085019450602081019050613bf7565b86831015613c395784890151613c35601f891682613b42565b8355505b6001600288020188555050505b505050505050565b7f4e487b7100000000000000000000000000000000000000000000000000000000600052603260045260246000fd5b600081905092915050565b6000613c9382612eb8565b613c9d8185613c7d565b9350613cad818560208601612ed4565b80840191505092915050565b6000613cc58284613c88565b915081905092915050565b7f4e487b7100000000000000000000000000000000000000000000000000000000600052601160045260246000fd5b6000613d0a82613230565b91507fffffffffffffffffffffffffffffffffffffffffffffffffffffffffffffffff8203613d3c57613d3b613cd0565b5b600182019050919050565b7f566572696669657220646f6573206e6f74206578697374730000000000000000600082015250565b6000613d7d601883613293565b9150613d8882613d47565b602082019050919050565b60006020820190508181036000830152613dac81613d70565b9050919050565b7f446f63756d656e74206e6f7420666f756e640000000000000000000000000000600082015250565b6000613de9601283613293565b9150613df482613db3565b602082019050919050565b60006020820190508181036000830152613e1881613ddc565b9050919050565b7f53747564656e74206e6f7420666f756e64000000000000000000000000000000600082015250565b6000613e55601183613293565b9150613e6082613e1f565b602082019050919050565b60006020820190508181036000830152613e8481613e48565b9050919050565b7f53747564656e74206e6f7420617574686f72697a656400000000000000000000600082015250565b6000613ec1601683613293565b9150613ecc82613e8b565b602082019050919050565b60006020820190508181036000830152613ef081613eb4565b9050919050565b7f53747564656e742044657461696c7320616c72656164792064656c6574656400600082015250565b6000613f2d601f83613293565b9150613f3882613ef7565b602082019050919050565b60006020820190508181036000830152613f5c81613f20565b9050919050565b7f53747564656e742064657461696c73206e6f7420616464656400000000000000600082015250565b6000613f99601983613293565b9150613fa482613f63565b602082019050919050565b60006020820190508181036000830152613fc881613f8c565b9050919050565b7f446f63756d656e7420616c726561647920616464656400000000000000000000600082015250565b6000614005601683613293565b915061401082613fcf565b602082019050919050565b6000602082019050818103600083015261403481613ff8565b9050919050565b7f5665726966696572206e6f7420666f756e640000000000000000000000000000600082015250565b6000614071601283613293565b915061407c8261403b565b602082019050919050565b600060208201905081810360008301526140a081614064565b9050919050565b7f5665726966696572206e6f7420617574686f72697a6564000000000000000000600082015250565b60006140dd601783613293565b91506140e8826140a7565b602082019050919050565b6000602082019050818103600083015261410c816140d0565b9050919050565b7f53747564656e74204164647265737320616c7265616479206164646564000000600082015250565b6000614149601d83613293565b915061415482614113565b602082019050919050565b600060208201905081810360008301526141788161413c565b905091905056fea2646970667358221220b7a8887bf9b4c298cef1dfe25bdb1f10b72716bfd38671bb2b2bd6a60653926664736f6c63430008180033",
  "linkReferences": {},
  "deployedLinkReferences": {}
}